{
  "contractName": "GameManager",
  "abi": [
    {
      "anonymous": false,
      "inputs": [
        {
          "indexed": true,
          "internalType": "address",
          "name": "receiver",
          "type": "address"
        },
        {
          "indexed": true,
          "internalType": "uint256",
          "name": "tokenId",
          "type": "uint256"
        }
      ],
      "name": "Airdrop",
      "type": "event"
    },
    {
      "anonymous": false,
      "inputs": [
        {
          "indexed": false,
          "internalType": "address",
          "name": "account",
          "type": "address"
        }
      ],
      "name": "Paused",
      "type": "event"
    },
    {
      "anonymous": false,
      "inputs": [
        {
          "indexed": false,
          "internalType": "address",
          "name": "account",
          "type": "address"
        }
      ],
      "name": "Unpaused",
      "type": "event"
    },
    {
      "inputs": [],
      "name": "CLNYAddress",
      "outputs": [
        {
          "internalType": "address",
          "name": "",
          "type": "address"
        }
      ],
      "stateMutability": "view",
      "type": "function",
      "constant": true
    },
    {
      "inputs": [],
      "name": "DAO",
      "outputs": [
        {
          "internalType": "address",
          "name": "",
          "type": "address"
        }
      ],
      "stateMutability": "view",
      "type": "function",
      "constant": true
    },
    {
      "inputs": [],
      "name": "MCAddress",
      "outputs": [
        {
          "internalType": "address",
          "name": "",
          "type": "address"
        }
      ],
      "stateMutability": "view",
      "type": "function",
      "constant": true
    },
    {
      "inputs": [],
      "name": "maxTokenId",
      "outputs": [
        {
          "internalType": "uint64",
          "name": "",
          "type": "uint64"
        }
      ],
      "stateMutability": "view",
      "type": "function",
      "constant": true
    },
    {
      "inputs": [],
      "name": "paused",
      "outputs": [
        {
          "internalType": "bool",
          "name": "",
          "type": "bool"
        }
      ],
      "stateMutability": "view",
      "type": "function",
      "constant": true
    },
    {
      "inputs": [],
      "name": "price",
      "outputs": [
        {
          "internalType": "uint256",
          "name": "",
          "type": "uint256"
        }
      ],
      "stateMutability": "view",
      "type": "function",
      "constant": true
    },
    {
      "inputs": [
        {
          "internalType": "address",
          "name": "_DAO",
          "type": "address"
        }
      ],
      "name": "transferDAO",
      "outputs": [],
      "stateMutability": "nonpayable",
      "type": "function"
    },
    {
      "inputs": [
        {
          "internalType": "address",
          "name": "_DAO",
          "type": "address"
        },
        {
          "internalType": "address",
          "name": "_CLNYAddress",
          "type": "address"
        },
        {
          "internalType": "address",
          "name": "_MCAddress",
          "type": "address"
        }
      ],
      "name": "initialize",
      "outputs": [],
      "stateMutability": "nonpayable",
      "type": "function"
    },
    {
      "inputs": [
        {
          "internalType": "uint256",
          "name": "tokenCount",
          "type": "uint256"
        }
      ],
      "name": "getFee",
      "outputs": [
        {
          "internalType": "uint256",
          "name": "",
          "type": "uint256"
        }
      ],
      "stateMutability": "view",
      "type": "function",
      "constant": true
    },
    {
      "inputs": [
        {
          "internalType": "uint256",
          "name": "_price",
          "type": "uint256"
        }
      ],
      "name": "setPrice",
      "outputs": [],
      "stateMutability": "nonpayable",
      "type": "function"
    },
    {
      "inputs": [
        {
          "internalType": "uint64",
          "name": "_id",
          "type": "uint64"
        }
      ],
      "name": "setMaxTokenId",
      "outputs": [],
      "stateMutability": "nonpayable",
      "type": "function"
    },
    {
      "inputs": [
        {
          "internalType": "address",
          "name": "_address",
          "type": "address"
        }
      ],
      "name": "setCLNYAddress",
      "outputs": [],
      "stateMutability": "nonpayable",
      "type": "function"
    },
    {
      "inputs": [
        {
          "internalType": "address",
          "name": "_address",
          "type": "address"
        }
      ],
      "name": "setMCAddress",
      "outputs": [],
      "stateMutability": "nonpayable",
      "type": "function"
    },
    {
      "inputs": [
        {
          "internalType": "uint256",
          "name": "tokenId",
          "type": "uint256"
        }
      ],
      "name": "claimOne",
      "outputs": [],
      "stateMutability": "payable",
      "type": "function",
      "payable": true
    },
    {
      "inputs": [
        {
          "internalType": "uint256[]",
          "name": "tokenIds",
          "type": "uint256[]"
        }
      ],
      "name": "claim",
      "outputs": [],
      "stateMutability": "payable",
      "type": "function",
      "payable": true
    },
    {
      "inputs": [],
      "name": "pause",
      "outputs": [],
      "stateMutability": "nonpayable",
      "type": "function"
    },
    {
      "inputs": [],
      "name": "unpause",
      "outputs": [],
      "stateMutability": "nonpayable",
      "type": "function"
    },
    {
      "inputs": [
        {
          "internalType": "address",
          "name": "receiver",
          "type": "address"
        },
        {
          "internalType": "uint256",
          "name": "tokenId",
          "type": "uint256"
        }
      ],
      "name": "airdrop",
      "outputs": [],
      "stateMutability": "nonpayable",
      "type": "function"
    },
    {
      "inputs": [
        {
          "internalType": "uint256",
          "name": "tokenId",
          "type": "uint256"
        }
      ],
      "name": "getLastCheckout",
      "outputs": [
        {
          "internalType": "uint256",
          "name": "",
          "type": "uint256"
        }
      ],
      "stateMutability": "view",
      "type": "function",
      "constant": true
    },
    {
      "inputs": [
        {
          "internalType": "uint256",
          "name": "tokenId",
          "type": "uint256"
        }
      ],
      "name": "getEarned",
      "outputs": [
        {
          "internalType": "uint256",
          "name": "",
          "type": "uint256"
        }
      ],
      "stateMutability": "view",
      "type": "function",
      "constant": true
    },
    {
      "inputs": [
        {
          "internalType": "uint256",
          "name": "tokenId",
          "type": "uint256"
        }
      ],
      "name": "getEarningSpeed",
      "outputs": [
        {
          "internalType": "uint256",
          "name": "",
          "type": "uint256"
        }
      ],
      "stateMutability": "view",
      "type": "function",
      "constant": true
    },
    {
      "inputs": [
        {
          "internalType": "uint256",
          "name": "tokenId",
          "type": "uint256"
        }
      ],
      "name": "buildBaseStation",
      "outputs": [],
      "stateMutability": "nonpayable",
      "type": "function"
    },
    {
      "inputs": [
        {
          "internalType": "uint256",
          "name": "tokenId",
          "type": "uint256"
        },
        {
          "internalType": "uint8",
          "name": "level",
          "type": "uint8"
        }
      ],
      "name": "buildTransport",
      "outputs": [],
      "stateMutability": "nonpayable",
      "type": "function"
    },
    {
      "inputs": [
        {
          "internalType": "uint256",
          "name": "tokenId",
          "type": "uint256"
        },
        {
          "internalType": "uint8",
          "name": "level",
          "type": "uint8"
        }
      ],
      "name": "buildRobotAssembly",
      "outputs": [],
      "stateMutability": "nonpayable",
      "type": "function"
    },
    {
      "inputs": [
        {
          "internalType": "uint256",
          "name": "tokenId",
          "type": "uint256"
        },
        {
          "internalType": "uint8",
          "name": "level",
          "type": "uint8"
        }
      ],
      "name": "buildPowerProduction",
      "outputs": [],
      "stateMutability": "nonpayable",
      "type": "function"
    },
    {
      "inputs": [
        {
          "internalType": "uint256",
          "name": "tokenId",
          "type": "uint256"
        }
      ],
      "name": "hasBaseStation",
      "outputs": [
        {
          "internalType": "uint8",
          "name": "",
          "type": "uint8"
        }
      ],
      "stateMutability": "view",
      "type": "function",
      "constant": true
    },
    {
      "inputs": [
        {
          "internalType": "uint256",
          "name": "tokenId",
          "type": "uint256"
        }
      ],
      "name": "getTransport",
      "outputs": [
        {
          "internalType": "uint8",
          "name": "",
          "type": "uint8"
        }
      ],
      "stateMutability": "view",
      "type": "function",
      "constant": true
    },
    {
      "inputs": [
        {
          "internalType": "uint256",
          "name": "tokenId",
          "type": "uint256"
        }
      ],
      "name": "getRobotAssembly",
      "outputs": [
        {
          "internalType": "uint8",
          "name": "",
          "type": "uint8"
        }
      ],
      "stateMutability": "view",
      "type": "function",
      "constant": true
    },
    {
      "inputs": [
        {
          "internalType": "uint256",
          "name": "tokenId",
          "type": "uint256"
        }
      ],
      "name": "getPowerProduction",
      "outputs": [
        {
          "internalType": "uint8",
          "name": "",
          "type": "uint8"
        }
      ],
      "stateMutability": "view",
      "type": "function",
      "constant": true
    },
    {
      "inputs": [
        {
          "internalType": "uint256[]",
          "name": "tokenIds",
          "type": "uint256[]"
        }
      ],
      "name": "claimEarned",
      "outputs": [],
      "stateMutability": "nonpayable",
      "type": "function"
    },
    {
      "inputs": [],
      "name": "withdraw",
      "outputs": [],
      "stateMutability": "nonpayable",
      "type": "function"
    },
    {
      "inputs": [
        {
          "internalType": "uint256",
          "name": "value",
          "type": "uint256"
        }
      ],
      "name": "withdrawValue",
      "outputs": [],
      "stateMutability": "nonpayable",
      "type": "function"
    }
  ],
  "bytecode": "0x608060405234801561001057600080fd5b5061445c806100206000396000f3fe6080604052600436106101e35760003560e01c80638ba4cc3c11610102578063bc5de5e011610095578063e938750411610064578063e938750414610670578063ee348123146106ad578063fcee45f4146106ea578063fd5da72914610727576101e3565b8063bc5de5e0146105b8578063c0c53b8b146105f5578063cb6ff6f91461061e578063cfc26d9914610647576101e3565b8063932070cd116100d1578063932070cd146104fc57806398fabd3a146105395780639a3274c414610564578063a035b1fe1461058d576101e3565b80638ba4cc3c1461045657806391b7f5ed1461047f57806391ba317a146104a857806391cdd9f0146104d3576101e3565b80636ba4c1381161017a5780637a318866116101495780637a318866146103c257806381fd61cc146103eb5780638451938c146104145780638456cb591461043f576101e3565b80636ba4c138146103155780636e13b00a1461033157806372cab4b81461035c57806376dc436f14610385576101e3565b80633f4ba83a116101b65780633f4ba83a1461028e57806342aa65f4146102a55780635c975abb146102ce57806366233126146102f9576101e3565b8063168a060a146101e857806333e3480f146102115780633ccfd60b1461023a5780633d5f321a14610251575b600080fd5b3480156101f457600080fd5b5061020f600480360381019061020a9190613851565b610764565b005b34801561021d57600080fd5b5061023860048036038101906102339190613811565b61088c565b005b34801561024657600080fd5b5061024f610aaa565b005b34801561025d57600080fd5b50610278600480360381019061027391906137e4565b610c4f565b6040516102859190613e09565b60405180910390f35b34801561029a57600080fd5b506102a3610d96565b005b3480156102b157600080fd5b506102cc60048036038101906102c79190613797565b610f34565b005b3480156102da57600080fd5b506102e361122e565b6040516102f09190613b98565b60405180910390f35b610313600480360381019061030e91906137e4565b611245565b005b61032f600480360381019061032a9190613797565b61140f565b005b34801561033d57600080fd5b506103466116bf565b6040516103539190613b54565b60405180910390f35b34801561036857600080fd5b50610383600480360381019061037e91906136aa565b6116e5565b005b34801561039157600080fd5b506103ac60048036038101906103a791906137e4565b6117b9565b6040516103b99190613e09565b60405180910390f35b3480156103ce57600080fd5b506103e960048036038101906103e491906136aa565b611900565b005b3480156103f757600080fd5b50610412600480360381019061040d91906136aa565b6119d4565b005b34801561042057600080fd5b50610429611aa8565b6040516104369190613b54565b60405180910390f35b34801561044b57600080fd5b50610454611ace565b005b34801561046257600080fd5b5061047d60048036038101906104789190613757565b611c6c565b005b34801561048b57600080fd5b506104a660048036038101906104a191906137e4565b611ec7565b005b3480156104b457600080fd5b506104bd611fc2565b6040516104ca9190613dee565b60405180910390f35b3480156104df57600080fd5b506104fa60048036038101906104f591906137e4565b611fdc565b005b34801561050857600080fd5b50610523600480360381019061051e91906137e4565b612182565b6040516105309190613dd3565b60405180910390f35b34801561054557600080fd5b5061054e6122da565b60405161055b9190613b54565b60405180910390f35b34801561057057600080fd5b5061058b60048036038101906105869190613811565b612300565b005b34801561059957600080fd5b506105a261251e565b6040516105af9190613dd3565b60405180910390f35b3480156105c457600080fd5b506105df60048036038101906105da91906137e4565b612524565b6040516105ec9190613e09565b60405180910390f35b34801561060157600080fd5b5061061c60048036038101906106179190613704565b61266b565b005b34801561062a57600080fd5b5061064560048036038101906106409190613811565b612858565b005b34801561065357600080fd5b5061066e600480360381019061066991906137e4565b612a76565b005b34801561067c57600080fd5b50610697600480360381019061069291906137e4565b612c87565b6040516106a49190613dd3565b60405180910390f35b3480156106b957600080fd5b506106d460048036038101906106cf91906137e4565b612cf9565b6040516106e19190613e09565b60405180910390f35b3480156106f657600080fd5b50610711600480360381019061070c91906137e4565b612e40565b60405161071e9190613dd3565b60405180910390f35b34801561073357600080fd5b5061074e600480360381019061074991906137e4565b612e57565b60405161075b9190613dd3565b60405180910390f35b606560009054906101000a900473ffffffffffffffffffffffffffffffffffffffff1673ffffffffffffffffffffffffffffffffffffffff163373ffffffffffffffffffffffffffffffffffffffff16146107f4576040517f08c379a00000000000000000000000000000000000000000000000000000000081526004016107eb90613cb3565b60405180910390fd5b606760149054906101000a900467ffffffffffffffff1667ffffffffffffffff168167ffffffffffffffff1611610860576040517f08c379a000000000000000000000000000000000000000000000000000000000815260040161085790613c73565b60405180910390fd5b80606760146101000a81548167ffffffffffffffff021916908367ffffffffffffffff16021790555050565b813373ffffffffffffffffffffffffffffffffffffffff16606860009054906101000a900473ffffffffffffffffffffffffffffffffffffffff1673ffffffffffffffffffffffffffffffffffffffff16636352211e836040518263ffffffff1660e01b81526004016108ff9190613dd3565b60206040518083038186803b15801561091757600080fd5b505afa15801561092b573d6000803e3d6000fd5b505050506040513d601f19601f8201168201806040525081019061094f91906136d7565b73ffffffffffffffffffffffffffffffffffffffff16146109a5576040517f08c379a000000000000000000000000000000000000000000000000000000000815260040161099c90613c13565b60405180910390fd5b6109ad61122e565b156109ed576040517f08c379a00000000000000000000000000000000000000000000000000000000081526004016109e490613d13565b60405180910390fd5b6001826109fa9190613f55565b60ff166069600085815260200190815260200160002060010160099054906101000a900460ff1660ff1614610a64576040517f08c379a0000000000000000000000000000000000000000000000000000000008152600401610a5b90613d53565b60405180910390fd5b610a6d83612f83565b816069600085815260200190815260200160002060010160096101000a81548160ff021916908360ff160217905550610aa582612fe6565b505050565b606560009054906101000a900473ffffffffffffffffffffffffffffffffffffffff1673ffffffffffffffffffffffffffffffffffffffff163373ffffffffffffffffffffffffffffffffffffffff1614610b3a576040517f08c379a0000000000000000000000000000000000000000000000000000000008152600401610b3190613cb3565b60405180910390fd5b6000471415610b7e576040517f08c379a0000000000000000000000000000000000000000000000000000000008152600401610b7590613c33565b60405180910390fd5b6000606560009054906101000a900473ffffffffffffffffffffffffffffffffffffffff1673ffffffffffffffffffffffffffffffffffffffff1647604051610bc690613b3f565b60006040518083038185875af1925050503d8060008114610c03576040519150601f19603f3d011682016040523d82523d6000602084013e610c08565b606091505b5050905080610c4c576040517f08c379a0000000000000000000000000000000000000000000000000000000008152600401610c4390613c53565b60405180910390fd5b50565b6000813373ffffffffffffffffffffffffffffffffffffffff16606860009054906101000a900473ffffffffffffffffffffffffffffffffffffffff1673ffffffffffffffffffffffffffffffffffffffff16636352211e836040518263ffffffff1660e01b8152600401610cc49190613dd3565b60206040518083038186803b158015610cdc57600080fd5b505afa158015610cf0573d6000803e3d6000fd5b505050506040513d601f19601f82011682018060405250810190610d1491906136d7565b73ffffffffffffffffffffffffffffffffffffffff1614610d6a576040517f08c379a0000000000000000000000000000000000000000000000000000000008152600401610d6190613c13565b60405180910390fd5b60696000848152602001908152602001600020600101600a9054906101000a900460ff16915050919050565b606560009054906101000a900473ffffffffffffffffffffffffffffffffffffffff1673ffffffffffffffffffffffffffffffffffffffff163373ffffffffffffffffffffffffffffffffffffffff1614610e26576040517f08c379a0000000000000000000000000000000000000000000000000000000008152600401610e1d90613cb3565b60405180910390fd5b610e2e613124565b606760009054906101000a900473ffffffffffffffffffffffffffffffffffffffff1673ffffffffffffffffffffffffffffffffffffffff16633f4ba83a6040518163ffffffff1660e01b8152600401600060405180830381600087803b158015610e9857600080fd5b505af1158015610eac573d6000803e3d6000fd5b50505050606860009054906101000a900473ffffffffffffffffffffffffffffffffffffffff1673ffffffffffffffffffffffffffffffffffffffff16633f4ba83a6040518163ffffffff1660e01b8152600401600060405180830381600087803b158015610f1a57600080fd5b505af1158015610f2e573d6000803e3d6000fd5b50505050565b610f3c61122e565b15610f7c576040517f08c379a0000000000000000000000000000000000000000000000000000000008152600401610f7390613d13565b60405180910390fd5b6000828290501415610fc3576040517f08c379a0000000000000000000000000000000000000000000000000000000008152600401610fba90613d93565b60405180910390fd5b60005b828290508160ff16101561122957606860009054906101000a900473ffffffffffffffffffffffffffffffffffffffff1673ffffffffffffffffffffffffffffffffffffffff16636352211e84848460ff168181106110285761102761407a565b5b905060200201356040518263ffffffff1660e01b815260040161104b9190613dd3565b60206040518083038186803b15801561106357600080fd5b505afa158015611077573d6000803e3d6000fd5b505050506040513d601f19601f8201168201806040525081019061109b91906136d7565b73ffffffffffffffffffffffffffffffffffffffff163373ffffffffffffffffffffffffffffffffffffffff16146110d257600080fd5b606760009054906101000a900473ffffffffffffffffffffffffffffffffffffffff1673ffffffffffffffffffffffffffffffffffffffff166340c10f193361113686868660ff1681811061112a5761112961407a565b5b90506020020135612c87565b6040518363ffffffff1660e01b8152600401611153929190613b6f565b600060405180830381600087803b15801561116d57600080fd5b505af1158015611181573d6000803e3d6000fd5b5050505060006069600085858560ff168181106111a1576111a061407a565b5b90506020020135815260200190815260200160002060000181905550426069600085858560ff168181106111d8576111d761407a565b5b90506020020135815260200190815260200160002060010160006101000a81548167ffffffffffffffff021916908367ffffffffffffffff160217905550808061122190613ff2565b915050610fc6565b505050565b6000603360009054906101000a900460ff16905090565b61124d61122e565b1561128d576040517f08c379a000000000000000000000000000000000000000000000000000000000815260040161128490613d13565b60405180910390fd5b60665434146112d1576040517f08c379a00000000000000000000000000000000000000000000000000000000081526004016112c890613cf3565b60405180910390fd5b6000811180156113015750606760149054906101000a900467ffffffffffffffff1667ffffffffffffffff168111155b611340576040517f08c379a000000000000000000000000000000000000000000000000000000000815260040161133790613bb3565b60405180910390fd5b606860009054906101000a900473ffffffffffffffffffffffffffffffffffffffff1673ffffffffffffffffffffffffffffffffffffffff166340c10f1933836040518363ffffffff1660e01b815260040161139d929190613b6f565b600060405180830381600087803b1580156113b757600080fd5b505af11580156113cb573d6000803e3d6000fd5b50505050426069600083815260200190815260200160002060010160006101000a81548167ffffffffffffffff021916908367ffffffffffffffff16021790555050565b61141761122e565b15611457576040517f08c379a000000000000000000000000000000000000000000000000000000000815260040161144e90613d13565b60405180910390fd5b600082829050141561149e576040517f08c379a000000000000000000000000000000000000000000000000000000000815260040161149590613d73565b60405180910390fd5b6114aa82829050612e40565b34146114eb576040517f08c379a00000000000000000000000000000000000000000000000000000000081526004016114e290613cf3565b60405180910390fd5b60005b828290508160ff1610156116ba57600083838360ff168181106115145761151361407a565b5b905060200201351180156115645750606760149054906101000a900467ffffffffffffffff1667ffffffffffffffff1683838360ff1681811061155a5761155961407a565b5b9050602002013511155b6115a3576040517f08c379a000000000000000000000000000000000000000000000000000000000815260040161159a90613bb3565b60405180910390fd5b606860009054906101000a900473ffffffffffffffffffffffffffffffffffffffff1673ffffffffffffffffffffffffffffffffffffffff166340c10f193385858560ff168181106115f8576115f761407a565b5b905060200201356040518363ffffffff1660e01b815260040161161c929190613b6f565b600060405180830381600087803b15801561163657600080fd5b505af115801561164a573d6000803e3d6000fd5b50505050426069600085858560ff168181106116695761166861407a565b5b90506020020135815260200190815260200160002060010160006101000a81548167ffffffffffffffff021916908367ffffffffffffffff16021790555080806116b290613ff2565b9150506114ee565b505050565b606860009054906101000a900473ffffffffffffffffffffffffffffffffffffffff1681565b606560009054906101000a900473ffffffffffffffffffffffffffffffffffffffff1673ffffffffffffffffffffffffffffffffffffffff163373ffffffffffffffffffffffffffffffffffffffff1614611775576040517f08c379a000000000000000000000000000000000000000000000000000000000815260040161176c90613cb3565b60405180910390fd5b80606760006101000a81548173ffffffffffffffffffffffffffffffffffffffff021916908373ffffffffffffffffffffffffffffffffffffffff16021790555050565b6000813373ffffffffffffffffffffffffffffffffffffffff16606860009054906101000a900473ffffffffffffffffffffffffffffffffffffffff1673ffffffffffffffffffffffffffffffffffffffff16636352211e836040518263ffffffff1660e01b815260040161182e9190613dd3565b60206040518083038186803b15801561184657600080fd5b505afa15801561185a573d6000803e3d6000fd5b505050506040513d601f19601f8201168201806040525081019061187e91906136d7565b73ffffffffffffffffffffffffffffffffffffffff16146118d4576040517f08c379a00000000000000000000000000000000000000000000000000000000081526004016118cb90613c13565b60405180910390fd5b60696000848152602001908152602001600020600101600b9054906101000a900460ff16915050919050565b606560009054906101000a900473ffffffffffffffffffffffffffffffffffffffff1673ffffffffffffffffffffffffffffffffffffffff163373ffffffffffffffffffffffffffffffffffffffff1614611990576040517f08c379a000000000000000000000000000000000000000000000000000000000815260040161198790613cb3565b60405180910390fd5b80606560006101000a81548173ffffffffffffffffffffffffffffffffffffffff021916908373ffffffffffffffffffffffffffffffffffffffff16021790555050565b606560009054906101000a900473ffffffffffffffffffffffffffffffffffffffff1673ffffffffffffffffffffffffffffffffffffffff163373ffffffffffffffffffffffffffffffffffffffff1614611a64576040517f08c379a0000000000000000000000000000000000000000000000000000000008152600401611a5b90613cb3565b60405180910390fd5b80606860006101000a81548173ffffffffffffffffffffffffffffffffffffffff021916908373ffffffffffffffffffffffffffffffffffffffff16021790555050565b606760009054906101000a900473ffffffffffffffffffffffffffffffffffffffff1681565b606560009054906101000a900473ffffffffffffffffffffffffffffffffffffffff1673ffffffffffffffffffffffffffffffffffffffff163373ffffffffffffffffffffffffffffffffffffffff1614611b5e576040517f08c379a0000000000000000000000000000000000000000000000000000000008152600401611b5590613cb3565b60405180910390fd5b611b666131c6565b606760009054906101000a900473ffffffffffffffffffffffffffffffffffffffff1673ffffffffffffffffffffffffffffffffffffffff16638456cb596040518163ffffffff1660e01b8152600401600060405180830381600087803b158015611bd057600080fd5b505af1158015611be4573d6000803e3d6000fd5b50505050606860009054906101000a900473ffffffffffffffffffffffffffffffffffffffff1673ffffffffffffffffffffffffffffffffffffffff16638456cb596040518163ffffffff1660e01b8152600401600060405180830381600087803b158015611c5257600080fd5b505af1158015611c66573d6000803e3d6000fd5b50505050565b611c7461122e565b15611cb4576040517f08c379a0000000000000000000000000000000000000000000000000000000008152600401611cab90613d13565b60405180910390fd5b606560009054906101000a900473ffffffffffffffffffffffffffffffffffffffff1673ffffffffffffffffffffffffffffffffffffffff163373ffffffffffffffffffffffffffffffffffffffff1614611d44576040517f08c379a0000000000000000000000000000000000000000000000000000000008152600401611d3b90613cb3565b60405180910390fd5b600081118015611d745750606760149054906101000a900467ffffffffffffffff1667ffffffffffffffff168111155b611db3576040517f08c379a0000000000000000000000000000000000000000000000000000000008152600401611daa90613bb3565b60405180910390fd5b606860009054906101000a900473ffffffffffffffffffffffffffffffffffffffff1673ffffffffffffffffffffffffffffffffffffffff166340c10f1983836040518363ffffffff1660e01b8152600401611e10929190613b6f565b600060405180830381600087803b158015611e2a57600080fd5b505af1158015611e3e573d6000803e3d6000fd5b50505050426069600083815260200190815260200160002060010160006101000a81548167ffffffffffffffff021916908367ffffffffffffffff160217905550808273ffffffffffffffffffffffffffffffffffffffff167f8c32c568416fcf97be35ce5b27844cfddcd63a67a1a602c3595ba5dac38f303a60405160405180910390a35050565b606560009054906101000a900473ffffffffffffffffffffffffffffffffffffffff1673ffffffffffffffffffffffffffffffffffffffff163373ffffffffffffffffffffffffffffffffffffffff1614611f57576040517f08c379a0000000000000000000000000000000000000000000000000000000008152600401611f4e90613cb3565b60405180910390fd5b67016345785d8a00008110158015611f79575069021e19e0c9bab24000008111155b611fb8576040517f08c379a0000000000000000000000000000000000000000000000000000000008152600401611faf90613c93565b60405180910390fd5b8060668190555050565b606760149054906101000a900467ffffffffffffffff1681565b606560009054906101000a900473ffffffffffffffffffffffffffffffffffffffff1673ffffffffffffffffffffffffffffffffffffffff163373ffffffffffffffffffffffffffffffffffffffff161461206c576040517f08c379a000000000000000000000000000000000000000000000000000000000815260040161206390613cb3565b60405180910390fd5b60004714156120b0576040517f08c379a00000000000000000000000000000000000000000000000000000000081526004016120a790613c33565b60405180910390fd5b6000606560009054906101000a900473ffffffffffffffffffffffffffffffffffffffff1673ffffffffffffffffffffffffffffffffffffffff16826040516120f890613b3f565b60006040518083038185875af1925050503d8060008114612135576040519150601f19603f3d011682016040523d82523d6000602084013e61213a565b606091505b505090508061217e576040517f08c379a000000000000000000000000000000000000000000000000000000000815260040161217590613c53565b60405180910390fd5b5050565b6000813373ffffffffffffffffffffffffffffffffffffffff16606860009054906101000a900473ffffffffffffffffffffffffffffffffffffffff1673ffffffffffffffffffffffffffffffffffffffff16636352211e836040518263ffffffff1660e01b81526004016121f79190613dd3565b60206040518083038186803b15801561220f57600080fd5b505afa158015612223573d6000803e3d6000fd5b505050506040513d601f19601f8201168201806040525081019061224791906136d7565b73ffffffffffffffffffffffffffffffffffffffff161461229d576040517f08c379a000000000000000000000000000000000000000000000000000000000815260040161229490613c13565b60405180910390fd5b6069600084815260200190815260200160002060010160009054906101000a900467ffffffffffffffff1667ffffffffffffffff16915050919050565b606560009054906101000a900473ffffffffffffffffffffffffffffffffffffffff1681565b813373ffffffffffffffffffffffffffffffffffffffff16606860009054906101000a900473ffffffffffffffffffffffffffffffffffffffff1673ffffffffffffffffffffffffffffffffffffffff16636352211e836040518263ffffffff1660e01b81526004016123739190613dd3565b60206040518083038186803b15801561238b57600080fd5b505afa15801561239f573d6000803e3d6000fd5b505050506040513d601f19601f820116820180604052508101906123c391906136d7565b73ffffffffffffffffffffffffffffffffffffffff1614612419576040517f08c379a000000000000000000000000000000000000000000000000000000000815260040161241090613c13565b60405180910390fd5b61242161122e565b15612461576040517f08c379a000000000000000000000000000000000000000000000000000000000815260040161245890613d13565b60405180910390fd5b60018261246e9190613f55565b60ff1660696000858152602001908152602001600020600101600a9054906101000a900460ff1660ff16146124d8576040517f08c379a00000000000000000000000000000000000000000000000000000000081526004016124cf90613d53565b60405180910390fd5b6124e183612f83565b8160696000858152602001908152602001600020600101600a6101000a81548160ff021916908360ff16021790555061251982612fe6565b505050565b60665481565b6000813373ffffffffffffffffffffffffffffffffffffffff16606860009054906101000a900473ffffffffffffffffffffffffffffffffffffffff1673ffffffffffffffffffffffffffffffffffffffff16636352211e836040518263ffffffff1660e01b81526004016125999190613dd3565b60206040518083038186803b1580156125b157600080fd5b505afa1580156125c5573d6000803e3d6000fd5b505050506040513d601f19601f820116820180604052508101906125e991906136d7565b73ffffffffffffffffffffffffffffffffffffffff161461263f576040517f08c379a000000000000000000000000000000000000000000000000000000000815260040161263690613c13565b60405180910390fd5b6069600084815260200190815260200160002060010160099054906101000a900460ff16915050919050565b600060019054906101000a900460ff166126935760008054906101000a900460ff161561269c565b61269b613269565b5b6126db576040517f08c379a00000000000000000000000000000000000000000000000000000000081526004016126d290613d33565b60405180910390fd5b60008060019054906101000a900460ff16159050801561272b576001600060016101000a81548160ff02191690831515021790555060016000806101000a81548160ff0219169083151502179055505b61273361327a565b83606560006101000a81548173ffffffffffffffffffffffffffffffffffffffff021916908373ffffffffffffffffffffffffffffffffffffffff16021790555082606760006101000a81548173ffffffffffffffffffffffffffffffffffffffff021916908373ffffffffffffffffffffffffffffffffffffffff16021790555081606860006101000a81548173ffffffffffffffffffffffffffffffffffffffff021916908373ffffffffffffffffffffffffffffffffffffffff160217905550615208606760146101000a81548167ffffffffffffffff021916908367ffffffffffffffff160217905550680d8d726b7177a8000060668190555080156128525760008060016101000a81548160ff0219169083151502179055505b50505050565b813373ffffffffffffffffffffffffffffffffffffffff16606860009054906101000a900473ffffffffffffffffffffffffffffffffffffffff1673ffffffffffffffffffffffffffffffffffffffff16636352211e836040518263ffffffff1660e01b81526004016128cb9190613dd3565b60206040518083038186803b1580156128e357600080fd5b505afa1580156128f7573d6000803e3d6000fd5b505050506040513d601f19601f8201168201806040525081019061291b91906136d7565b73ffffffffffffffffffffffffffffffffffffffff1614612971576040517f08c379a000000000000000000000000000000000000000000000000000000000815260040161296890613c13565b60405180910390fd5b61297961122e565b156129b9576040517f08c379a00000000000000000000000000000000000000000000000000000000081526004016129b090613d13565b60405180910390fd5b6001826129c69190613f55565b60ff1660696000858152602001908152602001600020600101600b9054906101000a900460ff1660ff1614612a30576040517f08c379a0000000000000000000000000000000000000000000000000000000008152600401612a2790613d53565b60405180910390fd5b612a3983612f83565b8160696000858152602001908152602001600020600101600b6101000a81548160ff021916908360ff160217905550612a7182612fe6565b505050565b803373ffffffffffffffffffffffffffffffffffffffff16606860009054906101000a900473ffffffffffffffffffffffffffffffffffffffff1673ffffffffffffffffffffffffffffffffffffffff16636352211e836040518263ffffffff1660e01b8152600401612ae99190613dd3565b60206040518083038186803b158015612b0157600080fd5b505afa158015612b15573d6000803e3d6000fd5b505050506040513d601f19601f82011682018060405250810190612b3991906136d7565b73ffffffffffffffffffffffffffffffffffffffff1614612b8f576040517f08c379a0000000000000000000000000000000000000000000000000000000008152600401612b8690613c13565b60405180910390fd5b612b9761122e565b15612bd7576040517f08c379a0000000000000000000000000000000000000000000000000000000008152600401612bce90613d13565b60405180910390fd5b60006069600084815260200190815260200160002060010160089054906101000a900460ff1660ff1614612c40576040517f08c379a0000000000000000000000000000000000000000000000000000000008152600401612c3790613cd3565b60405180910390fd5b612c4982612f83565b60016069600084815260200190815260200160002060010160086101000a81548160ff021916908360ff160217905550612c836000612fe6565b5050565b6000606960008381526020019081526020016000206000015462015180670de0b6b3a7640000612cb685612182565b42612cc19190613f21565b612cca866132db565b612cd49190613ec7565b612cde9190613ec7565b612ce89190613e96565b612cf29190613e40565b9050919050565b6000813373ffffffffffffffffffffffffffffffffffffffff16606860009054906101000a900473ffffffffffffffffffffffffffffffffffffffff1673ffffffffffffffffffffffffffffffffffffffff16636352211e836040518263ffffffff1660e01b8152600401612d6e9190613dd3565b60206040518083038186803b158015612d8657600080fd5b505afa158015612d9a573d6000803e3d6000fd5b505050506040513d601f19601f82011682018060405250810190612dbe91906136d7565b73ffffffffffffffffffffffffffffffffffffffff1614612e14576040517f08c379a0000000000000000000000000000000000000000000000000000000008152600401612e0b90613c13565b60405180910390fd5b6069600084815260200190815260200160002060010160089054906101000a900460ff16915050919050565b600081606654612e509190613ec7565b9050919050565b6000813373ffffffffffffffffffffffffffffffffffffffff16606860009054906101000a900473ffffffffffffffffffffffffffffffffffffffff1673ffffffffffffffffffffffffffffffffffffffff16636352211e836040518263ffffffff1660e01b8152600401612ecc9190613dd3565b60206040518083038186803b158015612ee457600080fd5b505afa158015612ef8573d6000803e3d6000fd5b505050506040513d601f19601f82011682018060405250810190612f1c91906136d7565b73ffffffffffffffffffffffffffffffffffffffff1614612f72576040517f08c379a0000000000000000000000000000000000000000000000000000000008152600401612f6990613c13565b60405180910390fd5b612f7b836132db565b915050919050565b612f8c81612c87565b6069600083815260200190815260200160002060000181905550426069600083815260200190815260200160002060010160006101000a81548167ffffffffffffffff021916908367ffffffffffffffff16021790555050565b60008060ff168260ff161415613003576801a055690d9db8000090505b60018260ff16141561301c5768068155a43676e0000090505b60028260ff16141561303557680ea300b17a8b78000090505b60038260ff16141561304e57681a055690d9db80000090505b60008111613091576040517f08c379a000000000000000000000000000000000000000000000000000000000815260040161308890613bf3565b60405180910390fd5b606760009054906101000a900473ffffffffffffffffffffffffffffffffffffffff1673ffffffffffffffffffffffffffffffffffffffff16639dc29fac33836040518363ffffffff1660e01b81526004016130ee929190613b6f565b600060405180830381600087803b15801561310857600080fd5b505af115801561311c573d6000803e3d6000fd5b505050505050565b61312c61122e565b61316b576040517f08c379a000000000000000000000000000000000000000000000000000000000815260040161316290613bd3565b60405180910390fd5b6000603360006101000a81548160ff0219169083151502179055507f5db9ee0a495bf2e6ff9c91a7834c1ba4fdd244a5e8aa4e537bd38aeae4b073aa6131af613513565b6040516131bc9190613b54565b60405180910390a1565b6131ce61122e565b1561320e576040517f08c379a000000000000000000000000000000000000000000000000000000000815260040161320590613d13565b60405180910390fd5b6001603360006101000a81548160ff0219169083151502179055507f62e78cea01bee320cd4e420270b5ea74000d11b0c9f74754ebdbfc544b05a258613252613513565b60405161325f9190613b54565b60405180910390a1565b60006132743061351b565b15905090565b600060019054906101000a900460ff166132c9576040517f08c379a00000000000000000000000000000000000000000000000000000000081526004016132c090613db3565b60405180910390fd5b6132d161352e565b6132d961357f565b565b6000806001905060006069600085815260200190815260200160002060010160089054906101000a900460ff1660ff1611156133215760018161331e9190613e40565b90505b60006069600085815260200190815260200160002060010160099054906101000a900460ff1660ff1611801561337e575060036069600085815260200190815260200160002060010160099054906101000a900460ff1660ff1611155b156133c45760016069600085815260200190815260200160002060010160099054906101000a900460ff1660ff16826133b79190613e40565b6133c19190613e40565b90505b600060696000858152602001908152602001600020600101600a9054906101000a900460ff1660ff161180156134215750600360696000858152602001908152602001600020600101600a9054906101000a900460ff1660ff1611155b1561346757600160696000858152602001908152602001600020600101600a9054906101000a900460ff1660ff168261345a9190613e40565b6134649190613e40565b90505b600060696000858152602001908152602001600020600101600b9054906101000a900460ff1660ff161180156134c45750600360696000858152602001908152602001600020600101600b9054906101000a900460ff1660ff1611155b1561350a57600160696000858152602001908152602001600020600101600b9054906101000a900460ff1660ff16826134fd9190613e40565b6135079190613e40565b90505b80915050919050565b600033905090565b600080823b905060008111915050919050565b600060019054906101000a900460ff1661357d576040517f08c379a000000000000000000000000000000000000000000000000000000000815260040161357490613db3565b60405180910390fd5b565b600060019054906101000a900460ff166135ce576040517f08c379a00000000000000000000000000000000000000000000000000000000081526004016135c590613db3565b60405180910390fd5b6000603360006101000a81548160ff021916908315150217905550565b6000813590506135fa816143ca565b92915050565b60008151905061360f816143ca565b92915050565b60008083601f84011261362b5761362a6140ae565b5b8235905067ffffffffffffffff811115613648576136476140a9565b5b602083019150836020820283011115613664576136636140b3565b5b9250929050565b60008135905061367a816143e1565b92915050565b60008135905061368f816143f8565b92915050565b6000813590506136a48161440f565b92915050565b6000602082840312156136c0576136bf6140bd565b5b60006136ce848285016135eb565b91505092915050565b6000602082840312156136ed576136ec6140bd565b5b60006136fb84828501613600565b91505092915050565b60008060006060848603121561371d5761371c6140bd565b5b600061372b868287016135eb565b935050602061373c868287016135eb565b925050604061374d868287016135eb565b9150509250925092565b6000806040838503121561376e5761376d6140bd565b5b600061377c858286016135eb565b925050602061378d8582860161366b565b9150509250929050565b600080602083850312156137ae576137ad6140bd565b5b600083013567ffffffffffffffff8111156137cc576137cb6140b8565b5b6137d885828601613615565b92509250509250929050565b6000602082840312156137fa576137f96140bd565b5b60006138088482850161366b565b91505092915050565b60008060408385031215613828576138276140bd565b5b60006138368582860161366b565b925050602061384785828601613695565b9150509250929050565b600060208284031215613867576138666140bd565b5b600061387584828501613680565b91505092915050565b61388781613f89565b82525050565b61389681613f9b565b82525050565b60006138a9601683613e2f565b91506138b4826140c2565b602082019050919050565b60006138cc601483613e2f565b91506138d7826140eb565b602082019050919050565b60006138ef600b83613e2f565b91506138fa82614114565b602082019050919050565b6000613912601a83613e2f565b915061391d8261413d565b602082019050919050565b6000613935601383613e2f565b915061394082614166565b602082019050919050565b6000613958600f83613e2f565b91506139638261418f565b602082019050919050565b600061397b601e83613e2f565b9150613986826141b8565b602082019050919050565b600061399e601a83613e2f565b91506139a9826141e1565b602082019050919050565b60006139c1600883613e2f565b91506139cc8261420a565b602082019050919050565b60006139e4601f83613e2f565b91506139ef82614233565b602082019050919050565b6000613a07601283613e2f565b9150613a128261425c565b602082019050919050565b6000613a2a601083613e2f565b9150613a3582614285565b602082019050919050565b6000613a4d602e83613e2f565b9150613a58826142ae565b604082019050919050565b6000613a70601783613e2f565b9150613a7b826142fd565b602082019050919050565b6000613a93601883613e2f565b9150613a9e82614326565b602082019050919050565b6000613ab6600b83613e2f565b9150613ac18261434f565b602082019050919050565b6000613ad9600083613e24565b9150613ae482614378565b600082019050919050565b6000613afc602b83613e2f565b9150613b078261437b565b604082019050919050565b613b1b81613fc7565b82525050565b613b2a81613fd1565b82525050565b613b3981613fe5565b82525050565b6000613b4a82613acc565b9150819050919050565b6000602082019050613b69600083018461387e565b92915050565b6000604082019050613b84600083018561387e565b613b916020830184613b12565b9392505050565b6000602082019050613bad600083018461388d565b92915050565b60006020820190508181036000830152613bcc8161389c565b9050919050565b60006020820190508181036000830152613bec816138bf565b9050919050565b60006020820190508181036000830152613c0c816138e2565b9050919050565b60006020820190508181036000830152613c2c81613905565b9050919050565b60006020820190508181036000830152613c4c81613928565b9050919050565b60006020820190508181036000830152613c6c8161394b565b9050919050565b60006020820190508181036000830152613c8c8161396e565b9050919050565b60006020820190508181036000830152613cac81613991565b9050919050565b60006020820190508181036000830152613ccc816139b4565b9050919050565b60006020820190508181036000830152613cec816139d7565b9050919050565b60006020820190508181036000830152613d0c816139fa565b9050919050565b60006020820190508181036000830152613d2c81613a1d565b9050919050565b60006020820190508181036000830152613d4c81613a40565b9050919050565b60006020820190508181036000830152613d6c81613a63565b9050919050565b60006020820190508181036000830152613d8c81613a86565b9050919050565b60006020820190508181036000830152613dac81613aa9565b9050919050565b60006020820190508181036000830152613dcc81613aef565b9050919050565b6000602082019050613de86000830184613b12565b92915050565b6000602082019050613e036000830184613b21565b92915050565b6000602082019050613e1e6000830184613b30565b92915050565b600081905092915050565b600082825260208201905092915050565b6000613e4b82613fc7565b9150613e5683613fc7565b9250827fffffffffffffffffffffffffffffffffffffffffffffffffffffffffffffffff03821115613e8b57613e8a61401c565b5b828201905092915050565b6000613ea182613fc7565b9150613eac83613fc7565b925082613ebc57613ebb61404b565b5b828204905092915050565b6000613ed282613fc7565b9150613edd83613fc7565b9250817fffffffffffffffffffffffffffffffffffffffffffffffffffffffffffffffff0483118215151615613f1657613f1561401c565b5b828202905092915050565b6000613f2c82613fc7565b9150613f3783613fc7565b925082821015613f4a57613f4961401c565b5b828203905092915050565b6000613f6082613fe5565b9150613f6b83613fe5565b925082821015613f7e57613f7d61401c565b5b828203905092915050565b6000613f9482613fa7565b9050919050565b60008115159050919050565b600073ffffffffffffffffffffffffffffffffffffffff82169050919050565b6000819050919050565b600067ffffffffffffffff82169050919050565b600060ff82169050919050565b6000613ffd82613fe5565b915060ff8214156140115761401061401c565b5b600182019050919050565b7f4e487b7100000000000000000000000000000000000000000000000000000000600052601160045260246000fd5b7f4e487b7100000000000000000000000000000000000000000000000000000000600052601260045260246000fd5b7f4e487b7100000000000000000000000000000000000000000000000000000000600052603260045260246000fd5b600080fd5b600080fd5b600080fd5b600080fd5b600080fd5b7f546f6b656e206964206f7574206f6620626f756e647300000000000000000000600082015250565b7f5061757361626c653a206e6f7420706175736564000000000000000000000000600082015250565b7f57726f6e67206c6576656c000000000000000000000000000000000000000000600082015250565b7f596f75206172656e27742074686520746f6b656e206f776e6572000000000000600082015250565b7f4e6f7468696e6720746f20776974686472617700000000000000000000000000600082015250565b7f5472616e73666572206661696c65640000000000000000000000000000000000600082015250565b7f4e6577206d6178206964206973206e6f74206f7665722063757272656e740000600082015250565b7f4e6577207072696365206973206f7574206f6620626f756e6473000000000000600082015250565b7f4f6e6c792044414f000000000000000000000000000000000000000000000000600082015250565b7f546865726520697320616c7265616479206120626173652073746174696f6e00600082015250565b7f57726f6e6720636c61696d696e67206665650000000000000000000000000000600082015250565b7f5061757361626c653a2070617573656400000000000000000000000000000000600082015250565b7f496e697469616c697a61626c653a20636f6e747261637420697320616c72656160008201527f647920696e697469616c697a6564000000000000000000000000000000000000602082015250565b7f43616e20627579206f6e6c79206e657874206c6576656c000000000000000000600082015250565b7f596f752063616e277420636c61696d203020746f6b656e730000000000000000600082015250565b7f456d707479206172726179000000000000000000000000000000000000000000600082015250565b50565b7f496e697469616c697a61626c653a20636f6e7472616374206973206e6f74206960008201527f6e697469616c697a696e67000000000000000000000000000000000000000000602082015250565b6143d381613f89565b81146143de57600080fd5b50565b6143ea81613fc7565b81146143f557600080fd5b50565b61440181613fd1565b811461440c57600080fd5b50565b61441881613fe5565b811461442357600080fd5b5056fea2646970667358221220039d062e7c4e67a0c8a7de32521ff35d572dddc47db6b1887c4d41eb1898a62964736f6c63430008050033",
  "immutableReferences": {},
  "source": "// SPDX-License-Identifier: MIT\npragma solidity >=0.8.0 <0.9.0;\n\nimport '@openzeppelin/contracts-upgradeable/security/PausableUpgradeable.sol';\nimport './NFTMintableInterface.sol';\nimport './PauseInterface.sol';\nimport './ERC20MintBurnInterface.sol';\nimport './DAOOwnershipInitializable.sol';\n\n\ncontract GameManager is PausableUpgradeable, DAOOwnershipInitializable {\n  uint256 public price;\n\n  address public CLNYAddress;\n\n  uint64 public maxTokenId;\n\n  address public MCAddress;\n\n  struct LandData {\n    uint256 fixedEarnings;\n    uint64 lastCLNYCheckout;\n    uint8 baseStation; // 0 or 1\n    uint8 transport; // 0 or 1, 2, 3 (levels)\n    uint8 robotAssembly; // 0 or 1, 2, 3 (levels)\n    uint8 powerProduction; // 0 or 1, 2, 3 (levels)\n  }\n\n  mapping (uint256 => LandData) private tokenData;\n\n  uint256[50] private ______gm_gap;\n\n  event Airdrop (address indexed receiver, uint256 indexed tokenId);\n\n  modifier onlyTokenOwner(uint256 tokenId) {\n    require(NFTMintableInterface(MCAddress).ownerOf(tokenId) == msg.sender, \"You aren't the token owner\");\n    _;\n  }\n\n  function initialize(\n    address _DAO,\n    address _CLNYAddress,\n    address _MCAddress\n  ) public initializer {\n    __Pausable_init();\n    DAO = _DAO;\n    CLNYAddress = _CLNYAddress;\n    MCAddress = _MCAddress;\n    maxTokenId = 21000;\n    price = 250 ether;\n  }\n\n  function getFee(uint256 tokenCount) public view returns (uint256) {\n    return price * tokenCount;\n  }\n\n  function setPrice(uint256 _price) external onlyDAO {\n    require(_price >= 0.1 ether && _price <= 10000 ether, 'New price is out of bounds');\n    price = _price;\n  }\n\n  function setMaxTokenId(uint64 _id) external onlyDAO {\n    require(_id > maxTokenId, 'New max id is not over current');\n    maxTokenId = _id;\n  }\n\n  function setCLNYAddress(address _address) external onlyDAO {\n    CLNYAddress = _address;\n  }\n\n  function setMCAddress(address _address) external onlyDAO {\n    MCAddress = _address;\n  }\n\n  function claimOne(uint256 tokenId) external payable whenNotPaused {\n    require (msg.value == price, 'Wrong claiming fee');\n    require (tokenId > 0 && tokenId <= maxTokenId, 'Token id out of bounds');\n    NFTMintableInterface(MCAddress).mint(msg.sender, tokenId);\n    tokenData[tokenId].lastCLNYCheckout = uint64(block.timestamp);\n  }\n\n  function claim(uint256[] calldata tokenIds) external payable whenNotPaused {\n    require (tokenIds.length != 0, \"You can't claim 0 tokens\");\n    require (msg.value == getFee(tokenIds.length), 'Wrong claiming fee');\n    for (uint8 i = 0; i < tokenIds.length; i++) {\n      require (tokenIds[i] > 0 && tokenIds[i] <= maxTokenId, 'Token id out of bounds');\n      NFTMintableInterface(MCAddress).mint(msg.sender, tokenIds[i]);\n      tokenData[tokenIds[i]].lastCLNYCheckout = uint64(block.timestamp);\n    }\n  }\n\n  function pause() external onlyDAO {\n    _pause();\n    PauseInterface(CLNYAddress).pause();\n    PauseInterface(MCAddress).pause();\n  }\n\n  function unpause() external onlyDAO {\n    _unpause();\n    PauseInterface(CLNYAddress).unpause();\n    PauseInterface(MCAddress).unpause();\n  }\n\n  function airdrop(address receiver, uint256 tokenId) external whenNotPaused onlyDAO {\n    require (tokenId > 0 && tokenId <= maxTokenId, 'Token id out of bounds');\n    NFTMintableInterface(MCAddress).mint(receiver, tokenId);\n    tokenData[tokenId].lastCLNYCheckout = uint64(block.timestamp);\n    emit Airdrop(receiver, tokenId);\n  }\n\n  uint8 constant BASE_STATION = 0;\n\n  // uint32 enhamcement_costs public = [30, 120, 270, 480];\n\n  /**\n   * Burn CLNY token for building enhancements\n   */\n  function _deduct(uint8 level) private {\n    uint256 amount = 0;\n    if (level == BASE_STATION) {\n      amount = 30 * 10 ** 18;\n    }\n    if (level == 1) {\n      amount = 120 * 10 ** 18;\n    }\n    if (level == 2) {\n      amount = 270 * 10 ** 18;\n    }\n    if (level == 3) {\n      amount = 480 * 10 ** 18;\n    }\n    require (amount > 0, 'Wrong level');\n    ERC20MintBurnInterface(CLNYAddress).burn(msg.sender, amount);\n  }\n\n  function getLastCheckout(uint256 tokenId) public view onlyTokenOwner(tokenId) returns (uint256) {\n    return tokenData[tokenId].lastCLNYCheckout;\n  }\n\n  function getEarned(uint256 tokenId) public view returns (uint256) { // onlyTokenOwner here by getLastCheckout\n    return _getEarningSpeed(tokenId)\n      * (block.timestamp - getLastCheckout(tokenId)) * 10 ** 18 / (24 * 60 * 60)\n      + tokenData[tokenId].fixedEarnings;\n  }\n\n  function _getEarningSpeed(uint256 tokenId) private view returns (uint256) {\n    uint256 speed = 1; // bare land\n    if (tokenData[tokenId].baseStation > 0) {\n      speed = speed + 1; // base station gives +1\n    }\n    if (tokenData[tokenId].transport > 0 && tokenData[tokenId].transport <= 3) {\n      speed = speed + tokenData[tokenId].transport + 1; // others give from +2 to +4\n    }\n    if (tokenData[tokenId].robotAssembly > 0 && tokenData[tokenId].robotAssembly <= 3) {\n      speed = speed + tokenData[tokenId].robotAssembly + 1;\n    }\n    if (tokenData[tokenId].powerProduction > 0 && tokenData[tokenId].powerProduction <= 3) {\n      speed = speed + tokenData[tokenId].powerProduction + 1;\n    }\n    return speed;\n  }\n\n  function getEarningSpeed(uint256 tokenId) external view onlyTokenOwner(tokenId) returns (uint256) {\n    return _getEarningSpeed(tokenId);\n  }\n\n  function fixEarnings(uint256 tokenId) private {\n    tokenData[tokenId].fixedEarnings = getEarned(tokenId); // onlyTokenOwner\n    tokenData[tokenId].lastCLNYCheckout = uint64(block.timestamp);\n  }\n\n  function buildBaseStation(uint256 tokenId) external onlyTokenOwner(tokenId) whenNotPaused {\n    require(tokenData[tokenId].baseStation == 0, 'There is already a base station');\n    fixEarnings(tokenId);\n    tokenData[tokenId].baseStation = 1;\n    _deduct(BASE_STATION);\n  }\n\n  function buildTransport(uint256 tokenId, uint8 level) external onlyTokenOwner(tokenId) whenNotPaused {\n    require(tokenData[tokenId].transport == level - 1, 'Can buy only next level');\n    fixEarnings(tokenId);\n    tokenData[tokenId].transport = level;\n    _deduct(level);\n  }\n\n  function buildRobotAssembly(uint256 tokenId, uint8 level) external onlyTokenOwner(tokenId) whenNotPaused {\n    require(tokenData[tokenId].robotAssembly == level - 1, 'Can buy only next level');\n    fixEarnings(tokenId);\n    tokenData[tokenId].robotAssembly = level;\n    _deduct(level);\n  }\n\n  function buildPowerProduction(uint256 tokenId, uint8 level) external onlyTokenOwner(tokenId) whenNotPaused {\n    require(tokenData[tokenId].powerProduction == level - 1, 'Can buy only next level');\n    fixEarnings(tokenId);\n    tokenData[tokenId].powerProduction = level;\n    _deduct(level);\n  }\n\n  function hasBaseStation(uint256 tokenId) external view onlyTokenOwner(tokenId) returns (uint8) {\n    return tokenData[tokenId].baseStation;\n  }\n\n  function getTransport(uint256 tokenId) external view onlyTokenOwner(tokenId) returns (uint8) {\n    return tokenData[tokenId].transport;\n  }\n\n  function getRobotAssembly(uint256 tokenId) external view onlyTokenOwner(tokenId) returns (uint8) {\n    return tokenData[tokenId].robotAssembly;\n  }\n\n  function getPowerProduction(uint256 tokenId) external view onlyTokenOwner(tokenId) returns (uint8) {\n    return tokenData[tokenId].powerProduction;\n  }\n\n  function claimEarned(uint256[] calldata tokenIds) external whenNotPaused {\n    require (tokenIds.length != 0, 'Empty array');\n    for (uint8 i = 0; i < tokenIds.length; i++) {\n      require (msg.sender == NFTMintableInterface(MCAddress).ownerOf(tokenIds[i]));\n      ERC20MintBurnInterface(CLNYAddress).mint(\n        msg.sender,\n        getEarned(tokenIds[i])\n      );\n      tokenData[tokenIds[i]].fixedEarnings = 0;\n      tokenData[tokenIds[i]].lastCLNYCheckout = uint64(block.timestamp);\n    }\n  }\n\n  function withdraw() external onlyDAO {\n    require (address(this).balance != 0, 'Nothing to withdraw');\n    (bool success, ) = payable(DAO).call{ value: address(this).balance }('');\n    require(success, 'Transfer failed');\n  }\n\n  function withdrawValue(uint256 value) external onlyDAO {\n    require (address(this).balance != 0, 'Nothing to withdraw');\n    (bool success, ) = payable(DAO).call{ value: value }('');\n    require(success, 'Transfer failed');\n  }\n\n  // only tests\n  // function faucetClaim100() external {\n  //   ERC20MintBurnInterface(CLNYAddress).mint(msg.sender,  100 * 10 ** 18);\n  // }\n}\n",
  "sourcePath": "/Users/kek/contracts/contracts/GameManager.sol",
  "compiler": {
    "name": "solc",
    "version": "0.8.5+commit.a4f2e591.Emscripten.clang"
  },
  "schemaVersion": "3.4.3",
  "updatedAt": "2021-12-29T14:29:10.578Z",
  "networkType": "ethereum",
  "devdoc": {
    "kind": "dev",
    "methods": {
      "paused()": {
        "details": "Returns true if the contract is paused, and false otherwise."
      }
    },
    "version": 1
  },
  "userdoc": {
    "kind": "user",
    "methods": {},
    "version": 1
  }
}