{
  "contractName": "GameManager",
  "abi": [
    {
      "anonymous": false,
      "inputs": [
        {
          "indexed": true,
          "internalType": "address",
          "name": "receiver",
          "type": "address"
        },
        {
          "indexed": true,
          "internalType": "uint256",
          "name": "tokenId",
          "type": "uint256"
        }
      ],
      "name": "Airdrop",
      "type": "event"
    },
    {
      "anonymous": false,
      "inputs": [
        {
          "indexed": false,
          "internalType": "uint256",
          "name": "tokenId",
          "type": "uint256"
        },
        {
          "indexed": true,
          "internalType": "address",
          "name": "owner",
          "type": "address"
        }
      ],
      "name": "BuildBaseStation",
      "type": "event"
    },
    {
      "anonymous": false,
      "inputs": [
        {
          "indexed": false,
          "internalType": "uint256",
          "name": "tokenId",
          "type": "uint256"
        },
        {
          "indexed": true,
          "internalType": "address",
          "name": "owner",
          "type": "address"
        },
        {
          "indexed": false,
          "internalType": "uint8",
          "name": "level",
          "type": "uint8"
        }
      ],
      "name": "BuildPowerProduction",
      "type": "event"
    },
    {
      "anonymous": false,
      "inputs": [
        {
          "indexed": false,
          "internalType": "uint256",
          "name": "tokenId",
          "type": "uint256"
        },
        {
          "indexed": true,
          "internalType": "address",
          "name": "owner",
          "type": "address"
        },
        {
          "indexed": false,
          "internalType": "uint8",
          "name": "level",
          "type": "uint8"
        }
      ],
      "name": "BuildRobotAssembly",
      "type": "event"
    },
    {
      "anonymous": false,
      "inputs": [
        {
          "indexed": false,
          "internalType": "uint256",
          "name": "tokenId",
          "type": "uint256"
        },
        {
          "indexed": true,
          "internalType": "address",
          "name": "owner",
          "type": "address"
        },
        {
          "indexed": false,
          "internalType": "uint8",
          "name": "level",
          "type": "uint8"
        }
      ],
      "name": "BuildTransport",
      "type": "event"
    },
    {
      "anonymous": false,
      "inputs": [
        {
          "indexed": false,
          "internalType": "address",
          "name": "account",
          "type": "address"
        }
      ],
      "name": "Paused",
      "type": "event"
    },
    {
      "anonymous": false,
      "inputs": [
        {
          "indexed": false,
          "internalType": "address",
          "name": "account",
          "type": "address"
        }
      ],
      "name": "Unpaused",
      "type": "event"
    },
    {
      "inputs": [],
      "name": "CLNYAddress",
      "outputs": [
        {
          "internalType": "address",
          "name": "",
          "type": "address"
        }
      ],
      "stateMutability": "view",
      "type": "function",
      "constant": true
    },
    {
      "inputs": [],
      "name": "DAO",
      "outputs": [
        {
          "internalType": "address",
          "name": "",
          "type": "address"
        }
      ],
      "stateMutability": "view",
      "type": "function",
      "constant": true
    },
    {
      "inputs": [],
      "name": "MCAddress",
      "outputs": [
        {
          "internalType": "address",
          "name": "",
          "type": "address"
        }
      ],
      "stateMutability": "view",
      "type": "function",
      "constant": true
    },
    {
      "inputs": [],
      "name": "liquidity",
      "outputs": [
        {
          "internalType": "address",
          "name": "",
          "type": "address"
        }
      ],
      "stateMutability": "view",
      "type": "function",
      "constant": true
    },
    {
      "inputs": [],
      "name": "maxTokenId",
      "outputs": [
        {
          "internalType": "uint256",
          "name": "",
          "type": "uint256"
        }
      ],
      "stateMutability": "view",
      "type": "function",
      "constant": true
    },
    {
      "inputs": [],
      "name": "paused",
      "outputs": [
        {
          "internalType": "bool",
          "name": "",
          "type": "bool"
        }
      ],
      "stateMutability": "view",
      "type": "function",
      "constant": true
    },
    {
      "inputs": [],
      "name": "price",
      "outputs": [
        {
          "internalType": "uint256",
          "name": "",
          "type": "uint256"
        }
      ],
      "stateMutability": "view",
      "type": "function",
      "constant": true
    },
    {
      "inputs": [],
      "name": "treasury",
      "outputs": [
        {
          "internalType": "address",
          "name": "",
          "type": "address"
        }
      ],
      "stateMutability": "view",
      "type": "function",
      "constant": true
    },
    {
      "inputs": [
        {
          "internalType": "address",
          "name": "_DAO",
          "type": "address"
        },
        {
          "internalType": "address",
          "name": "_CLNYAddress",
          "type": "address"
        },
        {
          "internalType": "address",
          "name": "_MCAddress",
          "type": "address"
        },
        {
          "internalType": "address",
          "name": "_treasury",
          "type": "address"
        },
        {
          "internalType": "address",
          "name": "_liquidity",
          "type": "address"
        }
      ],
      "name": "initialize",
      "outputs": [],
      "stateMutability": "nonpayable",
      "type": "function"
    },
    {
      "inputs": [
        {
          "internalType": "address",
          "name": "_DAO",
          "type": "address"
        }
      ],
      "name": "transferDAO",
      "outputs": [],
      "stateMutability": "nonpayable",
      "type": "function"
    },
    {
      "inputs": [
        {
          "internalType": "address",
          "name": "_treasury",
          "type": "address"
        }
      ],
      "name": "setTreasury",
      "outputs": [],
      "stateMutability": "nonpayable",
      "type": "function"
    },
    {
      "inputs": [
        {
          "internalType": "address",
          "name": "_liquidity",
          "type": "address"
        }
      ],
      "name": "setLiquidity",
      "outputs": [],
      "stateMutability": "nonpayable",
      "type": "function"
    },
    {
      "inputs": [
        {
          "internalType": "uint256",
          "name": "tokenCount",
          "type": "uint256"
        }
      ],
      "name": "getFee",
      "outputs": [
        {
          "internalType": "uint256",
          "name": "",
          "type": "uint256"
        }
      ],
      "stateMutability": "view",
      "type": "function",
      "constant": true
    },
    {
      "inputs": [
        {
          "internalType": "uint256",
          "name": "_price",
          "type": "uint256"
        }
      ],
      "name": "setPrice",
      "outputs": [],
      "stateMutability": "nonpayable",
      "type": "function"
    },
    {
      "inputs": [
        {
          "internalType": "uint256",
          "name": "_id",
          "type": "uint256"
        }
      ],
      "name": "setMaxTokenId",
      "outputs": [],
      "stateMutability": "nonpayable",
      "type": "function"
    },
    {
      "inputs": [
        {
          "internalType": "address",
          "name": "_address",
          "type": "address"
        }
      ],
      "name": "setCLNYAddress",
      "outputs": [],
      "stateMutability": "nonpayable",
      "type": "function"
    },
    {
      "inputs": [
        {
          "internalType": "address",
          "name": "_address",
          "type": "address"
        }
      ],
      "name": "setMCAddress",
      "outputs": [],
      "stateMutability": "nonpayable",
      "type": "function"
    },
    {
      "inputs": [
        {
          "internalType": "uint256",
          "name": "tokenId",
          "type": "uint256"
        }
      ],
      "name": "claimOne",
      "outputs": [],
      "stateMutability": "payable",
      "type": "function",
      "payable": true
    },
    {
      "inputs": [
        {
          "internalType": "uint256[]",
          "name": "tokenIds",
          "type": "uint256[]"
        }
      ],
      "name": "claim",
      "outputs": [],
      "stateMutability": "payable",
      "type": "function",
      "payable": true
    },
    {
      "inputs": [],
      "name": "pause",
      "outputs": [],
      "stateMutability": "nonpayable",
      "type": "function"
    },
    {
      "inputs": [],
      "name": "unpause",
      "outputs": [],
      "stateMutability": "nonpayable",
      "type": "function"
    },
    {
      "inputs": [
        {
          "internalType": "address",
          "name": "receiver",
          "type": "address"
        },
        {
          "internalType": "uint256",
          "name": "tokenId",
          "type": "uint256"
        }
      ],
      "name": "airdrop",
      "outputs": [],
      "stateMutability": "nonpayable",
      "type": "function"
    },
    {
      "inputs": [
        {
          "internalType": "uint256",
          "name": "tokenId",
          "type": "uint256"
        }
      ],
      "name": "getLastCheckout",
      "outputs": [
        {
          "internalType": "uint256",
          "name": "",
          "type": "uint256"
        }
      ],
      "stateMutability": "view",
      "type": "function",
      "constant": true
    },
    {
      "inputs": [
        {
          "internalType": "uint256",
          "name": "tokenId",
          "type": "uint256"
        }
      ],
      "name": "getEarned",
      "outputs": [
        {
          "internalType": "uint256",
          "name": "",
          "type": "uint256"
        }
      ],
      "stateMutability": "view",
      "type": "function",
      "constant": true
    },
    {
      "inputs": [
        {
          "internalType": "uint256[]",
          "name": "tokenIds",
          "type": "uint256[]"
        }
      ],
      "name": "getEarningData",
      "outputs": [
        {
          "internalType": "uint256",
          "name": "",
          "type": "uint256"
        },
        {
          "internalType": "uint256",
          "name": "",
          "type": "uint256"
        }
      ],
      "stateMutability": "view",
      "type": "function",
      "constant": true
    },
    {
      "inputs": [
        {
          "internalType": "uint256",
          "name": "tokenId",
          "type": "uint256"
        }
      ],
      "name": "getEarningSpeed",
      "outputs": [
        {
          "internalType": "uint256",
          "name": "",
          "type": "uint256"
        }
      ],
      "stateMutability": "view",
      "type": "function",
      "constant": true
    },
    {
      "inputs": [
        {
          "internalType": "uint256",
          "name": "tokenId",
          "type": "uint256"
        }
      ],
      "name": "buildBaseStation",
      "outputs": [],
      "stateMutability": "nonpayable",
      "type": "function"
    },
    {
      "inputs": [
        {
          "internalType": "uint256",
          "name": "tokenId",
          "type": "uint256"
        },
        {
          "internalType": "uint8",
          "name": "level",
          "type": "uint8"
        }
      ],
      "name": "buildTransport",
      "outputs": [],
      "stateMutability": "nonpayable",
      "type": "function"
    },
    {
      "inputs": [
        {
          "internalType": "uint256",
          "name": "tokenId",
          "type": "uint256"
        },
        {
          "internalType": "uint8",
          "name": "level",
          "type": "uint8"
        }
      ],
      "name": "buildRobotAssembly",
      "outputs": [],
      "stateMutability": "nonpayable",
      "type": "function"
    },
    {
      "inputs": [
        {
          "internalType": "uint256",
          "name": "tokenId",
          "type": "uint256"
        },
        {
          "internalType": "uint8",
          "name": "level",
          "type": "uint8"
        }
      ],
      "name": "buildPowerProduction",
      "outputs": [],
      "stateMutability": "nonpayable",
      "type": "function"
    },
    {
      "inputs": [
        {
          "internalType": "uint256",
          "name": "tokenId",
          "type": "uint256"
        }
      ],
      "name": "getEnhancements",
      "outputs": [
        {
          "internalType": "uint8",
          "name": "",
          "type": "uint8"
        },
        {
          "internalType": "uint8",
          "name": "",
          "type": "uint8"
        },
        {
          "internalType": "uint8",
          "name": "",
          "type": "uint8"
        },
        {
          "internalType": "uint8",
          "name": "",
          "type": "uint8"
        }
      ],
      "stateMutability": "view",
      "type": "function",
      "constant": true
    },
    {
      "inputs": [
        {
          "internalType": "uint256",
          "name": "tokenId",
          "type": "uint256"
        }
      ],
      "name": "getAttributes",
      "outputs": [
        {
          "internalType": "uint8",
          "name": "",
          "type": "uint8"
        },
        {
          "internalType": "uint8",
          "name": "",
          "type": "uint8"
        },
        {
          "internalType": "uint8",
          "name": "",
          "type": "uint8"
        },
        {
          "internalType": "uint8",
          "name": "",
          "type": "uint8"
        },
        {
          "internalType": "uint256",
          "name": "",
          "type": "uint256"
        },
        {
          "internalType": "uint256",
          "name": "",
          "type": "uint256"
        }
      ],
      "stateMutability": "view",
      "type": "function",
      "constant": true
    },
    {
      "inputs": [
        {
          "internalType": "uint256[]",
          "name": "tokenIds",
          "type": "uint256[]"
        }
      ],
      "name": "getAttributesMany",
      "outputs": [
        {
          "components": [
            {
              "internalType": "uint256",
              "name": "speed",
              "type": "uint256"
            },
            {
              "internalType": "uint256",
              "name": "earned",
              "type": "uint256"
            },
            {
              "internalType": "uint8",
              "name": "baseStation",
              "type": "uint8"
            },
            {
              "internalType": "uint8",
              "name": "transport",
              "type": "uint8"
            },
            {
              "internalType": "uint8",
              "name": "robotAssembly",
              "type": "uint8"
            },
            {
              "internalType": "uint8",
              "name": "powerProduction",
              "type": "uint8"
            }
          ],
          "internalType": "struct GameManager.AttributeData[]",
          "name": "",
          "type": "tuple[]"
        }
      ],
      "stateMutability": "view",
      "type": "function",
      "constant": true
    },
    {
      "inputs": [
        {
          "internalType": "uint256[]",
          "name": "tokenIds",
          "type": "uint256[]"
        }
      ],
      "name": "claimEarned",
      "outputs": [],
      "stateMutability": "nonpayable",
      "type": "function"
    },
    {
      "inputs": [],
      "name": "withdraw",
      "outputs": [],
      "stateMutability": "nonpayable",
      "type": "function"
    },
    {
      "inputs": [
        {
          "internalType": "uint256",
          "name": "value",
          "type": "uint256"
        }
      ],
      "name": "withdrawValue",
      "outputs": [],
      "stateMutability": "nonpayable",
      "type": "function"
    },
    {
      "inputs": [],
      "name": "burn10kLiquidity",
      "outputs": [],
      "stateMutability": "nonpayable",
      "type": "function"
    }
  ],
  "bytecode": "0x608060405234801561001057600080fd5b50614b9d806100206000396000f3fe60806040526004361061021a5760003560e01c80637a3188661161012357806398fabd3a116100ab578063d26a0dfb1161006f578063d26a0dfb1461076c578063e938750414610783578063f0f44260146107c0578063fcee45f4146107e9578063fd5da729146108265761021a565b806398fabd3a1461069b5780639a3274c4146106c6578063a035b1fe146106ef578063cb6ff6f91461071a578063cfc26d99146107435761021a565b80638ba4cc3c116100f25780638ba4cc3c146105b857806391b7f5ed146105e157806391ba317a1461060a57806391cdd9f014610635578063932070cd1461065e5761021a565b80637a3188661461052457806381fd61cc1461054d5780638451938c146105765780638456cb59146105a15761021a565b806342aa65f4116101a657806361d027b31161017557806361d027b31461046d57806366233126146104985780636ba4c138146104b45780636e13b00a146104d057806372cab4b8146104fb5761021a565b806342aa65f4146103975780634378a6e3146103c05780635bde71ac146104025780635c975abb146104425761021a565b806333e3480f116101ed57806333e3480f146102da57806336171e0e146103035780633ccfd60b1461032c5780633eb87111146103435780633f4ba83a146103805761021a565b806308cfe44b1461021f5780631459457a1461025d5780631a68650214610286578063202fcbbd146102b1575b600080fd5b34801561022b57600080fd5b5061024660048036038101906102419190613b91565b610863565b60405161025492919061436c565b60405180910390f35b34801561026957600080fd5b50610284600480360381019061027f9190613a89565b6108f6565b005b34801561029257600080fd5b5061029b610b45565b6040516102a89190614065565b60405180910390f35b3480156102bd57600080fd5b506102d860048036038101906102d39190613bda565b610b6b565b005b3480156102e657600080fd5b5061030160048036038101906102fc9190613c07565b610c49565b005b34801561030f57600080fd5b5061032a60048036038101906103259190613a2f565b610eeb565b005b34801561033857600080fd5b50610341610fbf565b005b34801561034f57600080fd5b5061036a60048036038101906103659190613b44565b611164565b60405161037791906140d2565b60405180910390f35b34801561038c57600080fd5b506103956112ff565b005b3480156103a357600080fd5b506103be60048036038101906103b99190613b44565b61149d565b005b3480156103cc57600080fd5b506103e760048036038101906103e29190613bda565b61192f565b6040516103f996959493929190614403565b60405180910390f35b34801561040e57600080fd5b5061042960048036038101906104249190613bda565b6119ef565b60405161043994939291906143be565b60405180910390f35b34801561044e57600080fd5b50610457611a94565b60405161046491906140f4565b60405180910390f35b34801561047957600080fd5b50610482611aab565b60405161048f9190614065565b60405180910390f35b6104b260048036038101906104ad9190613bda565b611ad1565b005b6104ce60048036038101906104c99190613b44565b611b6a565b005b3480156104dc57600080fd5b506104e5611c95565b6040516104f29190614065565b60405180910390f35b34801561050757600080fd5b50610522600480360381019061051d9190613a2f565b611cbb565b005b34801561053057600080fd5b5061054b60048036038101906105469190613a2f565b611d8f565b005b34801561055957600080fd5b50610574600480360381019061056f9190613a2f565b611e63565b005b34801561058257600080fd5b5061058b611f37565b6040516105989190614065565b60405180910390f35b3480156105ad57600080fd5b506105b6611f5d565b005b3480156105c457600080fd5b506105df60048036038101906105da9190613b04565b6120fb565b005b3480156105ed57600080fd5b5061060860048036038101906106039190613bda565b612225565b005b34801561061657600080fd5b5061061f612320565b60405161062c9190614351565b60405180910390f35b34801561064157600080fd5b5061065c60048036038101906106579190613bda565b612326565b005b34801561066a57600080fd5b5061068560048036038101906106809190613bda565b6124cc565b6040516106929190614351565b60405180910390f35b3480156106a757600080fd5b506106b061250a565b6040516106bd9190614065565b60405180910390f35b3480156106d257600080fd5b506106ed60048036038101906106e89190613c07565b612530565b005b3480156106fb57600080fd5b506107046127d2565b6040516107119190614351565b60405180910390f35b34801561072657600080fd5b50610741600480360381019061073c9190613c07565b6127d8565b005b34801561074f57600080fd5b5061076a60048036038101906107659190613bda565b612a7a565b005b34801561077857600080fd5b50610781612cd9565b005b34801561078f57600080fd5b506107aa60048036038101906107a59190613bda565b612e24565b6040516107b79190614351565b60405180910390f35b3480156107cc57600080fd5b506107e760048036038101906107e29190613a2f565b612eca565b005b3480156107f557600080fd5b50610810600480360381019061080b9190613bda565b612f9e565b60405161081d9190614351565b60405180910390f35b34801561083257600080fd5b5061084d60048036038101906108489190613bda565b612fb5565b60405161085a9190614351565b60405180910390f35b60008060008060005b85518110156108e85761089886828151811061088b5761088a614792565b5b6020026020010151612e24565b836108a39190614515565b92506108c88682815181106108bb576108ba614792565b5b6020026020010151612fb5565b826108d39190614515565b915080806108e0906146c1565b91505061086c565b508181935093505050915091565b600060019054906101000a900460ff1661091e5760008054906101000a900460ff1615610927565b6109266132d1565b5b610966576040517f08c379a000000000000000000000000000000000000000000000000000000000815260040161095d906142b1565b60405180910390fd5b60008060019054906101000a900460ff1615905080156109b6576001600060016101000a81548160ff02191690831515021790555060016000806101000a81548160ff0219169083151502179055505b6109be6132e2565b85609760006101000a81548173ffffffffffffffffffffffffffffffffffffffff021916908373ffffffffffffffffffffffffffffffffffffffff16021790555084609b60006101000a81548173ffffffffffffffffffffffffffffffffffffffff021916908373ffffffffffffffffffffffffffffffffffffffff16021790555083609d60006101000a81548173ffffffffffffffffffffffffffffffffffffffff021916908373ffffffffffffffffffffffffffffffffffffffff160217905550615208609c81905550680d8d726b7177a80000609a8190555082609860006101000a81548173ffffffffffffffffffffffffffffffffffffffff021916908373ffffffffffffffffffffffffffffffffffffffff16021790555081609960006101000a81548173ffffffffffffffffffffffffffffffffffffffff021916908373ffffffffffffffffffffffffffffffffffffffff1602179055508015610b3d5760008060016101000a81548160ff0219169083151502179055505b505050505050565b609960009054906101000a900473ffffffffffffffffffffffffffffffffffffffff1681565b609760009054906101000a900473ffffffffffffffffffffffffffffffffffffffff1673ffffffffffffffffffffffffffffffffffffffff163373ffffffffffffffffffffffffffffffffffffffff1614610bfb576040517f08c379a0000000000000000000000000000000000000000000000000000000008152600401610bf290614231565b60405180910390fd5b609c548111610c3f576040517f08c379a0000000000000000000000000000000000000000000000000000000008152600401610c36906141f1565b60405180910390fd5b80609c8190555050565b813373ffffffffffffffffffffffffffffffffffffffff16609d60009054906101000a900473ffffffffffffffffffffffffffffffffffffffff1673ffffffffffffffffffffffffffffffffffffffff16636352211e836040518263ffffffff1660e01b8152600401610cbc9190614351565b60206040518083038186803b158015610cd457600080fd5b505afa158015610ce8573d6000803e3d6000fd5b505050506040513d601f19601f82011682018060405250810190610d0c9190613a5c565b73ffffffffffffffffffffffffffffffffffffffff1614610d62576040517f08c379a0000000000000000000000000000000000000000000000000000000008152600401610d5990614191565b60405180910390fd5b610d6a611a94565b15610daa576040517f08c379a0000000000000000000000000000000000000000000000000000000008152600401610da190614291565b60405180910390fd5b610dee8260ff1660016040518060400160405280600a81526020017f4d617468206572726f7200000000000000000000000000000000000000000000815250613343565b60d0600085815260200190815260200160002060010160099054906101000a900460ff1660ff1614610e55576040517f08c379a0000000000000000000000000000000000000000000000000000000008152600401610e4c906142d1565b60405180910390fd5b610e5e82613398565b610e6783613504565b8160d0600085815260200190815260200160002060010160096101000a81548160ff021916908360ff1602179055503373ffffffffffffffffffffffffffffffffffffffff167fbce74c3d6a81a6ea4b55a703751c4fbad439c2ce8997bc12bb2463cb3f6d987b8484604051610ede929190614395565b60405180910390a2505050565b609760009054906101000a900473ffffffffffffffffffffffffffffffffffffffff1673ffffffffffffffffffffffffffffffffffffffff163373ffffffffffffffffffffffffffffffffffffffff1614610f7b576040517f08c379a0000000000000000000000000000000000000000000000000000000008152600401610f7290614231565b60405180910390fd5b80609960006101000a81548173ffffffffffffffffffffffffffffffffffffffff021916908373ffffffffffffffffffffffffffffffffffffffff16021790555050565b609760009054906101000a900473ffffffffffffffffffffffffffffffffffffffff1673ffffffffffffffffffffffffffffffffffffffff163373ffffffffffffffffffffffffffffffffffffffff161461104f576040517f08c379a000000000000000000000000000000000000000000000000000000000815260040161104690614231565b60405180910390fd5b6000471415611093576040517f08c379a000000000000000000000000000000000000000000000000000000000815260040161108a906141b1565b60405180910390fd5b6000609760009054906101000a900473ffffffffffffffffffffffffffffffffffffffff1673ffffffffffffffffffffffffffffffffffffffff16476040516110db90614050565b60006040518083038185875af1925050503d8060008114611118576040519150601f19603f3d011682016040523d82523d6000602084013e61111d565b606091505b5050905080611161576040517f08c379a0000000000000000000000000000000000000000000000000000000008152600401611158906141d1565b60405180910390fd5b50565b606060008383905067ffffffffffffffff811115611185576111846147c1565b5b6040519080825280602002602001820160405280156111be57816020015b6111ab6138a5565b8152602001906001900390816111a35790505b50905060005b848490508110156112f45760008585838181106111e4576111e3614792565b5b9050602002013590506040518060c0016040528061120183612fb5565b815260200161120f83612e24565b815260200160d0600084815260200190815260200160002060010160089054906101000a900460ff1660ff16815260200160d0600084815260200190815260200160002060010160099054906101000a900460ff1660ff16815260200160d06000848152602001908152602001600020600101600a9054906101000a900460ff1660ff16815260200160d06000848152602001908152602001600020600101600b9054906101000a900460ff1660ff168152508383815181106112d5576112d4614792565b5b60200260200101819052505080806112ec906146c1565b9150506111c4565b508091505092915050565b609760009054906101000a900473ffffffffffffffffffffffffffffffffffffffff1673ffffffffffffffffffffffffffffffffffffffff163373ffffffffffffffffffffffffffffffffffffffff161461138f576040517f08c379a000000000000000000000000000000000000000000000000000000000815260040161138690614231565b60405180910390fd5b611397613567565b609b60009054906101000a900473ffffffffffffffffffffffffffffffffffffffff1673ffffffffffffffffffffffffffffffffffffffff16633f4ba83a6040518163ffffffff1660e01b8152600401600060405180830381600087803b15801561140157600080fd5b505af1158015611415573d6000803e3d6000fd5b50505050609d60009054906101000a900473ffffffffffffffffffffffffffffffffffffffff1673ffffffffffffffffffffffffffffffffffffffff16633f4ba83a6040518163ffffffff1660e01b8152600401600060405180830381600087803b15801561148357600080fd5b505af1158015611497573d6000803e3d6000fd5b50505050565b6114a5611a94565b156114e5576040517f08c379a00000000000000000000000000000000000000000000000000000000081526004016114dc90614291565b60405180910390fd5b600082829050141561152c576040517f08c379a000000000000000000000000000000000000000000000000000000000815260040161152390614311565b60405180910390fd5b60005b828290508160ff16101561192a57609d60009054906101000a900473ffffffffffffffffffffffffffffffffffffffff1673ffffffffffffffffffffffffffffffffffffffff16636352211e84848460ff1681811061159157611590614792565b5b905060200201356040518263ffffffff1660e01b81526004016115b49190614351565b60206040518083038186803b1580156115cc57600080fd5b505afa1580156115e0573d6000803e3d6000fd5b505050506040513d601f19601f820116820180604052508101906116049190613a5c565b73ffffffffffffffffffffffffffffffffffffffff163373ffffffffffffffffffffffffffffffffffffffff161461163b57600080fd5b600061166284848460ff1681811061165657611655614792565b5b90506020020135612e24565b9050609b60009054906101000a900473ffffffffffffffffffffffffffffffffffffffff1673ffffffffffffffffffffffffffffffffffffffff166340c10f1933836040518363ffffffff1660e01b81526004016116c19291906140a9565b600060405180830381600087803b1580156116db57600080fd5b505af11580156116ef573d6000803e3d6000fd5b50505050609b60009054906101000a900473ffffffffffffffffffffffffffffffffffffffff1673ffffffffffffffffffffffffffffffffffffffff166340c10f19609860009054906101000a900473ffffffffffffffffffffffffffffffffffffffff166031601f85611763919061459c565b61176d919061456b565b6040518363ffffffff1660e01b815260040161178a9291906140a9565b600060405180830381600087803b1580156117a457600080fd5b505af11580156117b8573d6000803e3d6000fd5b50505050609b60009054906101000a900473ffffffffffffffffffffffffffffffffffffffff1673ffffffffffffffffffffffffffffffffffffffff166340c10f19609960009054906101000a900473ffffffffffffffffffffffffffffffffffffffff16603160148561182c919061459c565b611836919061456b565b6040518363ffffffff1660e01b81526004016118539291906140a9565b600060405180830381600087803b15801561186d57600080fd5b505af1158015611881573d6000803e3d6000fd5b50505050600060d0600086868660ff168181106118a1576118a0614792565b5b905060200201358152602001908152602001600020600001819055504260d0600086868660ff168181106118d8576118d7614792565b5b90506020020135815260200190815260200160002060010160006101000a81548167ffffffffffffffff021916908367ffffffffffffffff1602179055505080806119229061470a565b91505061152f565b505050565b60008060008060008060d0600088815260200190815260200160002060010160089054906101000a900460ff1660d0600089815260200190815260200160002060010160099054906101000a900460ff1660d060008a8152602001908152602001600020600101600a9054906101000a900460ff1660d060008b8152602001908152602001600020600101600b9054906101000a900460ff166119d18b612e24565b6119da8c612fb5565b95509550955095509550955091939550919395565b60008060008060d0600086815260200190815260200160002060010160089054906101000a900460ff1660d0600087815260200190815260200160002060010160099054906101000a900460ff1660d06000888152602001908152602001600020600101600a9054906101000a900460ff1660d06000898152602001908152602001600020600101600b9054906101000a900460ff1693509350935093509193509193565b6000603360009054906101000a900460ff16905090565b609860009054906101000a900473ffffffffffffffffffffffffffffffffffffffff1681565b611ad9611a94565b15611b19576040517f08c379a0000000000000000000000000000000000000000000000000000000008152600401611b1090614291565b60405180910390fd5b609a543414611b5d576040517f08c379a0000000000000000000000000000000000000000000000000000000008152600401611b5490614271565b60405180910390fd5b611b673382613609565b50565b611b72611a94565b15611bb2576040517f08c379a0000000000000000000000000000000000000000000000000000000008152600401611ba990614291565b60405180910390fd5b6000828290501415611bf9576040517f08c379a0000000000000000000000000000000000000000000000000000000008152600401611bf0906142f1565b60405180910390fd5b611c0582829050612f9e565b3414611c46576040517f08c379a0000000000000000000000000000000000000000000000000000000008152600401611c3d90614271565b60405180910390fd5b60005b828290508160ff161015611c9057611c7d3384848460ff16818110611c7157611c70614792565b5b90506020020135613609565b8080611c889061470a565b915050611c49565b505050565b609d60009054906101000a900473ffffffffffffffffffffffffffffffffffffffff1681565b609760009054906101000a900473ffffffffffffffffffffffffffffffffffffffff1673ffffffffffffffffffffffffffffffffffffffff163373ffffffffffffffffffffffffffffffffffffffff1614611d4b576040517f08c379a0000000000000000000000000000000000000000000000000000000008152600401611d4290614231565b60405180910390fd5b80609b60006101000a81548173ffffffffffffffffffffffffffffffffffffffff021916908373ffffffffffffffffffffffffffffffffffffffff16021790555050565b609760009054906101000a900473ffffffffffffffffffffffffffffffffffffffff1673ffffffffffffffffffffffffffffffffffffffff163373ffffffffffffffffffffffffffffffffffffffff1614611e1f576040517f08c379a0000000000000000000000000000000000000000000000000000000008152600401611e1690614231565b60405180910390fd5b80609760006101000a81548173ffffffffffffffffffffffffffffffffffffffff021916908373ffffffffffffffffffffffffffffffffffffffff16021790555050565b609760009054906101000a900473ffffffffffffffffffffffffffffffffffffffff1673ffffffffffffffffffffffffffffffffffffffff163373ffffffffffffffffffffffffffffffffffffffff1614611ef3576040517f08c379a0000000000000000000000000000000000000000000000000000000008152600401611eea90614231565b60405180910390fd5b80609d60006101000a81548173ffffffffffffffffffffffffffffffffffffffff021916908373ffffffffffffffffffffffffffffffffffffffff16021790555050565b609b60009054906101000a900473ffffffffffffffffffffffffffffffffffffffff1681565b609760009054906101000a900473ffffffffffffffffffffffffffffffffffffffff1673ffffffffffffffffffffffffffffffffffffffff163373ffffffffffffffffffffffffffffffffffffffff1614611fed576040517f08c379a0000000000000000000000000000000000000000000000000000000008152600401611fe490614231565b60405180910390fd5b611ff561372a565b609b60009054906101000a900473ffffffffffffffffffffffffffffffffffffffff1673ffffffffffffffffffffffffffffffffffffffff16638456cb596040518163ffffffff1660e01b8152600401600060405180830381600087803b15801561205f57600080fd5b505af1158015612073573d6000803e3d6000fd5b50505050609d60009054906101000a900473ffffffffffffffffffffffffffffffffffffffff1673ffffffffffffffffffffffffffffffffffffffff16638456cb596040518163ffffffff1660e01b8152600401600060405180830381600087803b1580156120e157600080fd5b505af11580156120f5573d6000803e3d6000fd5b50505050565b612103611a94565b15612143576040517f08c379a000000000000000000000000000000000000000000000000000000000815260040161213a90614291565b60405180910390fd5b609760009054906101000a900473ffffffffffffffffffffffffffffffffffffffff1673ffffffffffffffffffffffffffffffffffffffff163373ffffffffffffffffffffffffffffffffffffffff16146121d3576040517f08c379a00000000000000000000000000000000000000000000000000000000081526004016121ca90614231565b60405180910390fd5b6121dd8282613609565b808273ffffffffffffffffffffffffffffffffffffffff167f8c32c568416fcf97be35ce5b27844cfddcd63a67a1a602c3595ba5dac38f303a60405160405180910390a35050565b609760009054906101000a900473ffffffffffffffffffffffffffffffffffffffff1673ffffffffffffffffffffffffffffffffffffffff163373ffffffffffffffffffffffffffffffffffffffff16146122b5576040517f08c379a00000000000000000000000000000000000000000000000000000000081526004016122ac90614231565b60405180910390fd5b67016345785d8a000081101580156122d7575069021e19e0c9bab24000008111155b612316576040517f08c379a000000000000000000000000000000000000000000000000000000000815260040161230d90614211565b60405180910390fd5b80609a8190555050565b609c5481565b609760009054906101000a900473ffffffffffffffffffffffffffffffffffffffff1673ffffffffffffffffffffffffffffffffffffffff163373ffffffffffffffffffffffffffffffffffffffff16146123b6576040517f08c379a00000000000000000000000000000000000000000000000000000000081526004016123ad90614231565b60405180910390fd5b60004714156123fa576040517f08c379a00000000000000000000000000000000000000000000000000000000081526004016123f1906141b1565b60405180910390fd5b6000609760009054906101000a900473ffffffffffffffffffffffffffffffffffffffff1673ffffffffffffffffffffffffffffffffffffffff168260405161244290614050565b60006040518083038185875af1925050503d806000811461247f576040519150601f19603f3d011682016040523d82523d6000602084013e612484565b606091505b50509050806124c8576040517f08c379a00000000000000000000000000000000000000000000000000000000081526004016124bf906141d1565b60405180910390fd5b5050565b600060d0600083815260200190815260200160002060010160009054906101000a900467ffffffffffffffff1667ffffffffffffffff169050919050565b609760009054906101000a900473ffffffffffffffffffffffffffffffffffffffff1681565b813373ffffffffffffffffffffffffffffffffffffffff16609d60009054906101000a900473ffffffffffffffffffffffffffffffffffffffff1673ffffffffffffffffffffffffffffffffffffffff16636352211e836040518263ffffffff1660e01b81526004016125a39190614351565b60206040518083038186803b1580156125bb57600080fd5b505afa1580156125cf573d6000803e3d6000fd5b505050506040513d601f19601f820116820180604052508101906125f39190613a5c565b73ffffffffffffffffffffffffffffffffffffffff1614612649576040517f08c379a000000000000000000000000000000000000000000000000000000000815260040161264090614191565b60405180910390fd5b612651611a94565b15612691576040517f08c379a000000000000000000000000000000000000000000000000000000000815260040161268890614291565b60405180910390fd5b6126d58260ff1660016040518060400160405280600a81526020017f4d617468206572726f7200000000000000000000000000000000000000000000815250613343565b60d06000858152602001908152602001600020600101600a9054906101000a900460ff1660ff161461273c576040517f08c379a0000000000000000000000000000000000000000000000000000000008152600401612733906142d1565b60405180910390fd5b61274582613398565b61274e83613504565b8160d06000858152602001908152602001600020600101600a6101000a81548160ff021916908360ff1602179055503373ffffffffffffffffffffffffffffffffffffffff167f6f4c6fa65abfbdb878065cf56239c87467b1308866c1f27dad012e666a589b6884846040516127c5929190614395565b60405180910390a2505050565b609a5481565b813373ffffffffffffffffffffffffffffffffffffffff16609d60009054906101000a900473ffffffffffffffffffffffffffffffffffffffff1673ffffffffffffffffffffffffffffffffffffffff16636352211e836040518263ffffffff1660e01b815260040161284b9190614351565b60206040518083038186803b15801561286357600080fd5b505afa158015612877573d6000803e3d6000fd5b505050506040513d601f19601f8201168201806040525081019061289b9190613a5c565b73ffffffffffffffffffffffffffffffffffffffff16146128f1576040517f08c379a00000000000000000000000000000000000000000000000000000000081526004016128e890614191565b60405180910390fd5b6128f9611a94565b15612939576040517f08c379a000000000000000000000000000000000000000000000000000000000815260040161293090614291565b60405180910390fd5b61297d8260ff1660016040518060400160405280600a81526020017f4d617468206572726f7200000000000000000000000000000000000000000000815250613343565b60d06000858152602001908152602001600020600101600b9054906101000a900460ff1660ff16146129e4576040517f08c379a00000000000000000000000000000000000000000000000000000000081526004016129db906142d1565b60405180910390fd5b6129ed82613398565b6129f683613504565b8160d06000858152602001908152602001600020600101600b6101000a81548160ff021916908360ff1602179055503373ffffffffffffffffffffffffffffffffffffffff167f9914b04dac571a45d7a7b33184088cbd4d62a2ed88e64602a6b8a6a93b3fb0a68484604051612a6d929190614395565b60405180910390a2505050565b803373ffffffffffffffffffffffffffffffffffffffff16609d60009054906101000a900473ffffffffffffffffffffffffffffffffffffffff1673ffffffffffffffffffffffffffffffffffffffff16636352211e836040518263ffffffff1660e01b8152600401612aed9190614351565b60206040518083038186803b158015612b0557600080fd5b505afa158015612b19573d6000803e3d6000fd5b505050506040513d601f19601f82011682018060405250810190612b3d9190613a5c565b73ffffffffffffffffffffffffffffffffffffffff1614612b93576040517f08c379a0000000000000000000000000000000000000000000000000000000008152600401612b8a90614191565b60405180910390fd5b612b9b611a94565b15612bdb576040517f08c379a0000000000000000000000000000000000000000000000000000000008152600401612bd290614291565b60405180910390fd5b600060d0600084815260200190815260200160002060010160089054906101000a900460ff1660ff1614612c44576040517f08c379a0000000000000000000000000000000000000000000000000000000008152600401612c3b90614251565b60405180910390fd5b612c4e6000613398565b612c5782613504565b600160d0600084815260200190815260200160002060010160086101000a81548160ff021916908360ff1602179055503373ffffffffffffffffffffffffffffffffffffffff167ff9917faa5009c58ed8bd6a1c70b79e1fbefc8afe3e7142ba8b854ccb887fb26283604051612ccd9190614351565b60405180910390a25050565b609760009054906101000a900473ffffffffffffffffffffffffffffffffffffffff1673ffffffffffffffffffffffffffffffffffffffff163373ffffffffffffffffffffffffffffffffffffffff1614612d69576040517f08c379a0000000000000000000000000000000000000000000000000000000008152600401612d6090614231565b60405180910390fd5b609b60009054906101000a900473ffffffffffffffffffffffffffffffffffffffff1673ffffffffffffffffffffffffffffffffffffffff16639dc29fac609960009054906101000a900473ffffffffffffffffffffffffffffffffffffffff16678ac7230489e800006040518363ffffffff1660e01b8152600401612df0929190614080565b600060405180830381600087803b158015612e0a57600080fd5b505af1158015612e1e573d6000803e3d6000fd5b50505050565b600060d060008381526020019081526020016000206000015462015180670de0b6b3a7640000612e9242612e57876124cc565b6040518060400160405280600a81526020017f4d617468206572726f7200000000000000000000000000000000000000000000815250613343565b612e9b86612fb5565b612ea5919061459c565b612eaf919061459c565b612eb9919061456b565b612ec39190614515565b9050919050565b609760009054906101000a900473ffffffffffffffffffffffffffffffffffffffff1673ffffffffffffffffffffffffffffffffffffffff163373ffffffffffffffffffffffffffffffffffffffff1614612f5a576040517f08c379a0000000000000000000000000000000000000000000000000000000008152600401612f5190614231565b60405180910390fd5b80609860006101000a81548173ffffffffffffffffffffffffffffffffffffffff021916908373ffffffffffffffffffffffffffffffffffffffff16021790555050565b600081609a54612fae919061459c565b9050919050565b60008073ffffffffffffffffffffffffffffffffffffffff16609d60009054906101000a900473ffffffffffffffffffffffffffffffffffffffff1673ffffffffffffffffffffffffffffffffffffffff16636352211e846040518263ffffffff1660e01b81526004016130299190614351565b60206040518083038186803b15801561304157600080fd5b505afa158015613055573d6000803e3d6000fd5b505050506040513d601f19601f820116820180604052508101906130799190613a5c565b73ffffffffffffffffffffffffffffffffffffffff16141561309a57600080fd5b600060019050600060d0600085815260200190815260200160002060010160089054906101000a900460ff1660ff1611156130df576001816130dc9190614515565b90505b600060d0600085815260200190815260200160002060010160099054906101000a900460ff1660ff1611801561313c5750600360d0600085815260200190815260200160002060010160099054906101000a900460ff1660ff1611155b1561318257600160d0600085815260200190815260200160002060010160099054906101000a900460ff1660ff16826131759190614515565b61317f9190614515565b90505b600060d06000858152602001908152602001600020600101600a9054906101000a900460ff1660ff161180156131df5750600360d06000858152602001908152602001600020600101600a9054906101000a900460ff1660ff1611155b1561322557600160d06000858152602001908152602001600020600101600a9054906101000a900460ff1660ff16826132189190614515565b6132229190614515565b90505b600060d06000858152602001908152602001600020600101600b9054906101000a900460ff1660ff161180156132825750600360d06000858152602001908152602001600020600101600b9054906101000a900460ff1660ff1611155b156132c857600160d06000858152602001908152602001600020600101600b9054906101000a900460ff1660ff16826132bb9190614515565b6132c59190614515565b90505b80915050919050565b60006132dc306137cd565b15905090565b600060019054906101000a900460ff16613331576040517f08c379a000000000000000000000000000000000000000000000000000000000815260040161332890614331565b60405180910390fd5b6133396137e0565b613341613831565b565b600083831115829061338b576040517f08c379a0000000000000000000000000000000000000000000000000000000008152600401613382919061410f565b60405180910390fd5b5082840390509392505050565b60008060ff168260ff1614156133c057670de0b6b3a7640000601e6133bd919061459c565b90505b60018260ff1614156133e457670de0b6b3a764000060786133e1919061459c565b90505b60028260ff16141561340957670de0b6b3a764000061010e613406919061459c565b90505b60038260ff16141561342e57670de0b6b3a76400006101e061342b919061459c565b90505b60008111613471576040517f08c379a000000000000000000000000000000000000000000000000000000000815260040161346890614171565b60405180910390fd5b609b60009054906101000a900473ffffffffffffffffffffffffffffffffffffffff1673ffffffffffffffffffffffffffffffffffffffff16639dc29fac33836040518363ffffffff1660e01b81526004016134ce9291906140a9565b600060405180830381600087803b1580156134e857600080fd5b505af11580156134fc573d6000803e3d6000fd5b505050505050565b61350d81612e24565b60d06000838152602001908152602001600020600001819055504260d0600083815260200190815260200160002060010160006101000a81548167ffffffffffffffff021916908367ffffffffffffffff16021790555050565b61356f611a94565b6135ae576040517f08c379a00000000000000000000000000000000000000000000000000000000081526004016135a590614151565b60405180910390fd5b6000603360006101000a81548160ff0219169083151502179055507f5db9ee0a495bf2e6ff9c91a7834c1ba4fdd244a5e8aa4e537bd38aeae4b073aa6135f261389d565b6040516135ff9190614065565b60405180910390a1565b60008111801561361b5750609c548111155b61365a576040517f08c379a000000000000000000000000000000000000000000000000000000000815260040161365190614131565b60405180910390fd5b609d60009054906101000a900473ffffffffffffffffffffffffffffffffffffffff1673ffffffffffffffffffffffffffffffffffffffff166340c10f1983836040518363ffffffff1660e01b81526004016136b79291906140a9565b600060405180830381600087803b1580156136d157600080fd5b505af11580156136e5573d6000803e3d6000fd5b505050504260d0600083815260200190815260200160002060010160006101000a81548167ffffffffffffffff021916908367ffffffffffffffff1602179055505050565b613732611a94565b15613772576040517f08c379a000000000000000000000000000000000000000000000000000000000815260040161376990614291565b60405180910390fd5b6001603360006101000a81548160ff0219169083151502179055507f62e78cea01bee320cd4e420270b5ea74000d11b0c9f74754ebdbfc544b05a2586137b661389d565b6040516137c39190614065565b60405180910390a1565b600080823b905060008111915050919050565b600060019054906101000a900460ff1661382f576040517f08c379a000000000000000000000000000000000000000000000000000000000815260040161382690614331565b60405180910390fd5b565b600060019054906101000a900460ff16613880576040517f08c379a000000000000000000000000000000000000000000000000000000000815260040161387790614331565b60405180910390fd5b6000603360006101000a81548160ff021916908315150217905550565b600033905090565b6040518060c001604052806000815260200160008152602001600060ff168152602001600060ff168152602001600060ff168152602001600060ff1681525090565b60006138fa6138f584614489565b614464565b9050808382526020820190508285602086028201111561391d5761391c6147fa565b5b60005b8581101561394d57816139338882613a05565b845260208401935060208301925050600181019050613920565b5050509392505050565b60008135905061396681614b22565b92915050565b60008151905061397b81614b22565b92915050565b60008083601f840112613997576139966147f5565b5b8235905067ffffffffffffffff8111156139b4576139b36147f0565b5b6020830191508360208202830111156139d0576139cf6147fa565b5b9250929050565b600082601f8301126139ec576139eb6147f5565b5b81356139fc8482602086016138e7565b91505092915050565b600081359050613a1481614b39565b92915050565b600081359050613a2981614b50565b92915050565b600060208284031215613a4557613a44614804565b5b6000613a5384828501613957565b91505092915050565b600060208284031215613a7257613a71614804565b5b6000613a808482850161396c565b91505092915050565b600080600080600060a08688031215613aa557613aa4614804565b5b6000613ab388828901613957565b9550506020613ac488828901613957565b9450506040613ad588828901613957565b9350506060613ae688828901613957565b9250506080613af788828901613957565b9150509295509295909350565b60008060408385031215613b1b57613b1a614804565b5b6000613b2985828601613957565b9250506020613b3a85828601613a05565b9150509250929050565b60008060208385031215613b5b57613b5a614804565b5b600083013567ffffffffffffffff811115613b7957613b786147ff565b5b613b8585828601613981565b92509250509250929050565b600060208284031215613ba757613ba6614804565b5b600082013567ffffffffffffffff811115613bc557613bc46147ff565b5b613bd1848285016139d7565b91505092915050565b600060208284031215613bf057613bef614804565b5b6000613bfe84828501613a05565b91505092915050565b60008060408385031215613c1e57613c1d614804565b5b6000613c2c85828601613a05565b9250506020613c3d85828601613a1a565b9150509250929050565b6000613c538383613f99565b60c08301905092915050565b613c68816145f6565b82525050565b6000613c79826144c5565b613c8381856144e8565b9350613c8e836144b5565b8060005b83811015613cbf578151613ca68882613c47565b9750613cb1836144db565b925050600181019050613c92565b5085935050505092915050565b613cd581614608565b82525050565b613ce48161464b565b82525050565b6000613cf5826144d0565b613cff8185614504565b9350613d0f81856020860161465d565b613d1881614809565b840191505092915050565b6000613d30601683614504565b9150613d3b8261481a565b602082019050919050565b6000613d53601483614504565b9150613d5e82614843565b602082019050919050565b6000613d76600b83614504565b9150613d818261486c565b602082019050919050565b6000613d99601a83614504565b9150613da482614895565b602082019050919050565b6000613dbc601383614504565b9150613dc7826148be565b602082019050919050565b6000613ddf600f83614504565b9150613dea826148e7565b602082019050919050565b6000613e02601e83614504565b9150613e0d82614910565b602082019050919050565b6000613e25601a83614504565b9150613e3082614939565b602082019050919050565b6000613e48600883614504565b9150613e5382614962565b602082019050919050565b6000613e6b601f83614504565b9150613e768261498b565b602082019050919050565b6000613e8e601283614504565b9150613e99826149b4565b602082019050919050565b6000613eb1601083614504565b9150613ebc826149dd565b602082019050919050565b6000613ed4602e83614504565b9150613edf82614a06565b604082019050919050565b6000613ef7601783614504565b9150613f0282614a55565b602082019050919050565b6000613f1a601883614504565b9150613f2582614a7e565b602082019050919050565b6000613f3d600b83614504565b9150613f4882614aa7565b602082019050919050565b6000613f606000836144f9565b9150613f6b82614ad0565b600082019050919050565b6000613f83602b83614504565b9150613f8e82614ad3565b604082019050919050565b60c082016000820151613faf6000850182614014565b506020820151613fc26020850182614014565b506040820151613fd56040850182614032565b506060820151613fe86060850182614032565b506080820151613ffb6080850182614032565b5060a082015161400e60a0850182614032565b50505050565b61401d81614634565b82525050565b61402c81614634565b82525050565b61403b8161463e565b82525050565b61404a8161463e565b82525050565b600061405b82613f53565b9150819050919050565b600060208201905061407a6000830184613c5f565b92915050565b60006040820190506140956000830185613c5f565b6140a26020830184613cdb565b9392505050565b60006040820190506140be6000830185613c5f565b6140cb6020830184614023565b9392505050565b600060208201905081810360008301526140ec8184613c6e565b905092915050565b60006020820190506141096000830184613ccc565b92915050565b600060208201905081810360008301526141298184613cea565b905092915050565b6000602082019050818103600083015261414a81613d23565b9050919050565b6000602082019050818103600083015261416a81613d46565b9050919050565b6000602082019050818103600083015261418a81613d69565b9050919050565b600060208201905081810360008301526141aa81613d8c565b9050919050565b600060208201905081810360008301526141ca81613daf565b9050919050565b600060208201905081810360008301526141ea81613dd2565b9050919050565b6000602082019050818103600083015261420a81613df5565b9050919050565b6000602082019050818103600083015261422a81613e18565b9050919050565b6000602082019050818103600083015261424a81613e3b565b9050919050565b6000602082019050818103600083015261426a81613e5e565b9050919050565b6000602082019050818103600083015261428a81613e81565b9050919050565b600060208201905081810360008301526142aa81613ea4565b9050919050565b600060208201905081810360008301526142ca81613ec7565b9050919050565b600060208201905081810360008301526142ea81613eea565b9050919050565b6000602082019050818103600083015261430a81613f0d565b9050919050565b6000602082019050818103600083015261432a81613f30565b9050919050565b6000602082019050818103600083015261434a81613f76565b9050919050565b60006020820190506143666000830184614023565b92915050565b60006040820190506143816000830185614023565b61438e6020830184614023565b9392505050565b60006040820190506143aa6000830185614023565b6143b76020830184614041565b9392505050565b60006080820190506143d36000830187614041565b6143e06020830186614041565b6143ed6040830185614041565b6143fa6060830184614041565b95945050505050565b600060c0820190506144186000830189614041565b6144256020830188614041565b6144326040830187614041565b61443f6060830186614041565b61444c6080830185614023565b61445960a0830184614023565b979650505050505050565b600061446e61447f565b905061447a8282614690565b919050565b6000604051905090565b600067ffffffffffffffff8211156144a4576144a36147c1565b5b602082029050602081019050919050565b6000819050602082019050919050565b600081519050919050565b600081519050919050565b6000602082019050919050565b600082825260208201905092915050565b600081905092915050565b600082825260208201905092915050565b600061452082614634565b915061452b83614634565b9250827fffffffffffffffffffffffffffffffffffffffffffffffffffffffffffffffff038211156145605761455f614734565b5b828201905092915050565b600061457682614634565b915061458183614634565b92508261459157614590614763565b5b828204905092915050565b60006145a782614634565b91506145b283614634565b9250817fffffffffffffffffffffffffffffffffffffffffffffffffffffffffffffffff04831182151516156145eb576145ea614734565b5b828202905092915050565b600061460182614614565b9050919050565b60008115159050919050565b600073ffffffffffffffffffffffffffffffffffffffff82169050919050565b6000819050919050565b600060ff82169050919050565b600061465682614634565b9050919050565b60005b8381101561467b578082015181840152602081019050614660565b8381111561468a576000848401525b50505050565b61469982614809565b810181811067ffffffffffffffff821117156146b8576146b76147c1565b5b80604052505050565b60006146cc82614634565b91507fffffffffffffffffffffffffffffffffffffffffffffffffffffffffffffffff8214156146ff576146fe614734565b5b600182019050919050565b60006147158261463e565b915060ff82141561472957614728614734565b5b600182019050919050565b7f4e487b7100000000000000000000000000000000000000000000000000000000600052601160045260246000fd5b7f4e487b7100000000000000000000000000000000000000000000000000000000600052601260045260246000fd5b7f4e487b7100000000000000000000000000000000000000000000000000000000600052603260045260246000fd5b7f4e487b7100000000000000000000000000000000000000000000000000000000600052604160045260246000fd5b600080fd5b600080fd5b600080fd5b600080fd5b600080fd5b6000601f19601f8301169050919050565b7f546f6b656e206964206f7574206f6620626f756e647300000000000000000000600082015250565b7f5061757361626c653a206e6f7420706175736564000000000000000000000000600082015250565b7f57726f6e67206c6576656c000000000000000000000000000000000000000000600082015250565b7f596f75206172656e27742074686520746f6b656e206f776e6572000000000000600082015250565b7f4e6f7468696e6720746f20776974686472617700000000000000000000000000600082015250565b7f5769746864726177206661696c65640000000000000000000000000000000000600082015250565b7f4e6577206d6178206964206973206e6f74206f7665722063757272656e740000600082015250565b7f4e6577207072696365206973206f7574206f6620626f756e6473000000000000600082015250565b7f4f6e6c792044414f000000000000000000000000000000000000000000000000600082015250565b7f546865726520697320616c7265616479206120626173652073746174696f6e00600082015250565b7f57726f6e6720636c61696d696e67206665650000000000000000000000000000600082015250565b7f5061757361626c653a2070617573656400000000000000000000000000000000600082015250565b7f496e697469616c697a61626c653a20636f6e747261637420697320616c72656160008201527f647920696e697469616c697a6564000000000000000000000000000000000000602082015250565b7f43616e20627579206f6e6c79206e657874206c6576656c000000000000000000600082015250565b7f596f752063616e277420636c61696d203020746f6b656e730000000000000000600082015250565b7f456d707479206172726179000000000000000000000000000000000000000000600082015250565b50565b7f496e697469616c697a61626c653a20636f6e7472616374206973206e6f74206960008201527f6e697469616c697a696e67000000000000000000000000000000000000000000602082015250565b614b2b816145f6565b8114614b3657600080fd5b50565b614b4281614634565b8114614b4d57600080fd5b50565b614b598161463e565b8114614b6457600080fd5b5056fea2646970667358221220995670495ceeebfc863c83c1cd75776cce92e17af9cbad3bb70b549f7fbf00bf64736f6c63430008050033",
  "immutableReferences": {},
  "source": "// SPDX-License-Identifier: MIT\npragma solidity >=0.8.0 <0.9.0;\n\nimport '@openzeppelin/contracts-upgradeable/security/PausableUpgradeable.sol';\nimport './interfaces/NFTMintableInterface.sol';\nimport './interfaces/PauseInterface.sol';\nimport './interfaces/ERC20MintBurnInterface.sol';\n\n\n/**\n * Game logic; upgradable\n */\ncontract GameManager is PausableUpgradeable {\n  uint256[50] private ______gm_gap_0;\n\n  address public DAO; // owner\n\n  address public treasury;\n  \n  address public liquidity;\n\n  uint256 public price;\n\n  address public CLNYAddress;\n\n  uint256 public maxTokenId;\n\n  address public MCAddress;\n\n  uint256[50] private ______gm_gap_1;\n\n  struct LandData {\n    uint256 fixedEarnings; // already earned CLNY, but not withdrawn yet\n    uint64 lastCLNYCheckout; // (now - lastCLNYCheckout) * 'earning speed' + fixedEarnings = farmed so far\n    uint8 baseStation; // 0 or 1\n    uint8 transport; // 0 or 1, 2, 3 (levels)\n    uint8 robotAssembly; // 0 or 1, 2, 3 (levels)\n    uint8 powerProduction; // 0 or 1, 2, 3 (levels)\n  }\n\n  /**\n   * Data to output\n   */\n  struct AttributeData {\n    uint256 speed; // CLNY earning speed\n    uint256 earned;\n    uint8 baseStation; // 0 or 1\n    uint8 transport; // 0 or 1, 2, 3 (levels)\n    uint8 robotAssembly; // 0 or 1, 2, 3 (levels)\n    uint8 powerProduction; // 0 or 1, 2, 3 (levels)\n  }\n\n  mapping (uint256 => LandData) private tokenData;\n\n  uint256[50] private ______gm_gap_2;\n\n  event Airdrop (address indexed receiver, uint256 indexed tokenId);\n  event BuildBaseStation (uint256 tokenId, address indexed owner);\n  event BuildTransport (uint256 tokenId, address indexed owner, uint8 level);\n  event BuildRobotAssembly (uint256 tokenId, address indexed owner, uint8 level);\n  event BuildPowerProduction (uint256 tokenId, address indexed owner, uint8 level);\n\n  modifier onlyDAO {\n    require(msg.sender == DAO, 'Only DAO');\n    _;\n  }\n\n  modifier onlyTokenOwner(uint256 tokenId) {\n    require(NFTMintableInterface(MCAddress).ownerOf(tokenId) == msg.sender, \"You aren't the token owner\");\n    _;\n  }\n\n  function initialize(\n    address _DAO,\n    address _CLNYAddress,\n    address _MCAddress,\n    address _treasury,\n    address _liquidity\n  ) public initializer {\n    __Pausable_init();\n    DAO = _DAO;\n    CLNYAddress = _CLNYAddress;\n    MCAddress = _MCAddress;\n    maxTokenId = 21000;\n    price = 250 ether;\n    treasury = _treasury;\n    liquidity = _liquidity;\n  }\n\n  /**\n   * From SafeMath\n   */\n  function sub(\n    uint256 a,\n    uint256 b,\n    string memory errorMessage\n  ) internal pure returns (uint256) {\n    unchecked {\n      require(b <= a, errorMessage);\n      return a - b;\n    }\n  }\n\n  /**\n   * Tranfers ownership\n   */\n  function transferDAO(address _DAO) external onlyDAO {\n    DAO = _DAO;\n  }\n\n  /**\n   * Sets treasury address\n   */\n  function setTreasury(address _treasury) external onlyDAO {\n    treasury = _treasury;\n  }\n\n  /**\n   * Sets liquidity address\n   */\n  function setLiquidity(address _liquidity) external onlyDAO {\n    liquidity = _liquidity;\n  }\n\n  /**\n   * Cost of minting for `tokenCount` tokens\n   */\n  function getFee(uint256 tokenCount) public view returns (uint256) {\n    return price * tokenCount;\n  }\n\n  /**\n   * Sets the cost of minting for 1 token\n   */\n  function setPrice(uint256 _price) external onlyDAO {\n    require(_price >= 0.1 ether && _price <= 10000 ether, 'New price is out of bounds');\n    price = _price;\n  }\n\n  /**\n   * `maxTokenId` increase may be needed if we decide to merge tokens or to sell poles (they are not tokenized yet)\n   */\n  function setMaxTokenId(uint256 _id) external onlyDAO {\n    require(_id > maxTokenId, 'New max id is not over current');\n    maxTokenId = _id;\n  }\n\n  /**\n   * Sets ERC20 token address\n   */\n  function setCLNYAddress(address _address) external onlyDAO {\n    CLNYAddress = _address;\n  }\n\n  /**\n   * Sets ERC721 token address\n   */\n  function setMCAddress(address _address) external onlyDAO {\n    MCAddress = _address;\n  }\n\n  function mintNFT(address _address, uint256 tokenId) private {\n    require (tokenId > 0 && tokenId <= maxTokenId, 'Token id out of bounds');\n    NFTMintableInterface(MCAddress).mint(_address, tokenId);\n    tokenData[tokenId].lastCLNYCheckout = uint64(block.timestamp);\n  }\n\n  /**\n   * Mints a token\n   */\n  function claimOne(uint256 tokenId) external payable whenNotPaused {\n    require (msg.value == price, 'Wrong claiming fee');\n    mintNFT(msg.sender, tokenId);\n  }\n\n  /**\n   * Mints several tokens\n   * Pls check gas limits to get max possible count\n   */\n  function claim(uint256[] calldata tokenIds) external payable whenNotPaused {\n    require (tokenIds.length != 0, \"You can't claim 0 tokens\");\n    require (msg.value == getFee(tokenIds.length), 'Wrong claiming fee');\n    for (uint8 i = 0; i < tokenIds.length; i++) {\n      mintNFT(msg.sender, tokenIds[i]);\n    }\n  }\n\n  function pause() external onlyDAO {\n    _pause();\n    PauseInterface(CLNYAddress).pause();\n    PauseInterface(MCAddress).pause();\n  }\n\n  function unpause() external onlyDAO {\n    _unpause();\n    PauseInterface(CLNYAddress).unpause();\n    PauseInterface(MCAddress).unpause();\n  }\n\n  function airdrop(address receiver, uint256 tokenId) external whenNotPaused onlyDAO {\n    mintNFT(receiver, tokenId);\n    emit Airdrop(receiver, tokenId);\n  }\n\n  uint8 constant BASE_STATION = 0;\n  /** these constants (for sure just `_deduct` function) can be changed while upgrading */\n  uint256 constant BASE_STATION_COST = 30;\n  uint256 constant LEVEL_1_COST = 120;\n  uint256 constant LEVEL_2_COST = 270;\n  uint256 constant LEVEL_3_COST = 480;\n\n  /**\n   * Burn CLNY token for building enhancements\n   * Assume decimals() is always 18\n   */\n  function _deduct(uint8 level) private {\n    uint256 amount = 0;\n    if (level == BASE_STATION) {\n      amount = BASE_STATION_COST * 10 ** 18;\n    }\n    if (level == 1) {\n      amount = LEVEL_1_COST * 10 ** 18;\n    }\n    if (level == 2) {\n      amount = LEVEL_2_COST * 10 ** 18;\n    }\n    if (level == 3) {\n      amount = LEVEL_3_COST * 10 ** 18;\n    }\n    require (amount > 0, 'Wrong level');\n    ERC20MintBurnInterface(CLNYAddress).burn(msg.sender, amount);\n  }\n\n  function getLastCheckout(uint256 tokenId) public view returns (uint256) {\n    return tokenData[tokenId].lastCLNYCheckout;\n  }\n\n  function getEarned(uint256 tokenId) public view returns (uint256) {\n    return getEarningSpeed(tokenId)\n      * sub(block.timestamp, getLastCheckout(tokenId), 'Math error') * 10 ** 18 / (24 * 60 * 60)\n      + tokenData[tokenId].fixedEarnings;\n  }\n\n  function getEarningData(uint256[] memory tokenIds) public view returns (uint256, uint256) {\n    uint256 result = 0;\n    uint256 speed = 0;\n    for (uint256 i = 0; i < tokenIds.length; i++) {\n      result = result + getEarned(tokenIds[i]);\n      speed = speed + getEarningSpeed(tokenIds[i]);\n    }\n    return (result, speed);\n  }\n\n  function getEarningSpeed(uint256 tokenId) public view returns (uint256) {\n    require (NFTMintableInterface(MCAddress).ownerOf(tokenId) != address(0)); // reverts itself\n    uint256 speed = 1; // bare land\n    if (tokenData[tokenId].baseStation > 0) {\n      speed = speed + 1; // base station gives +1\n    }\n    if (tokenData[tokenId].transport > 0 && tokenData[tokenId].transport <= 3) {\n      speed = speed + tokenData[tokenId].transport + 1; // others give from +2 to +4\n    }\n    if (tokenData[tokenId].robotAssembly > 0 && tokenData[tokenId].robotAssembly <= 3) {\n      speed = speed + tokenData[tokenId].robotAssembly + 1;\n    }\n    if (tokenData[tokenId].powerProduction > 0 && tokenData[tokenId].powerProduction <= 3) {\n      speed = speed + tokenData[tokenId].powerProduction + 1;\n    }\n    return speed;\n  }\n\n  function fixEarnings(uint256 tokenId) private {\n    tokenData[tokenId].fixedEarnings = getEarned(tokenId);\n    tokenData[tokenId].lastCLNYCheckout = uint64(block.timestamp);\n  }\n\n  /**\n   * Builds base station\n   */\n  function buildBaseStation(uint256 tokenId) external onlyTokenOwner(tokenId) whenNotPaused {\n    require(tokenData[tokenId].baseStation == 0, 'There is already a base station');\n    _deduct(BASE_STATION);\n    fixEarnings(tokenId);\n    tokenData[tokenId].baseStation = 1;\n    emit BuildBaseStation(tokenId, msg.sender);\n  }\n\n  /**\n   * Builds transport\n   * `uint8 level` is very important - it prevents accidental spending ERC20 with double transactions\n   */\n  function buildTransport(uint256 tokenId, uint8 level) external onlyTokenOwner(tokenId) whenNotPaused {\n    require(tokenData[tokenId].transport == sub(level, 1, 'Math error'), 'Can buy only next level');\n    _deduct(level);\n    fixEarnings(tokenId);\n    tokenData[tokenId].transport = level;\n    emit BuildTransport(tokenId, msg.sender, level);\n  }\n\n  /**\n   * Builds robot assembly\n   * `uint8 level` is very important - it prevents accidental spending ERC20 with double transactions\n   */\n  function buildRobotAssembly(uint256 tokenId, uint8 level) external onlyTokenOwner(tokenId) whenNotPaused {\n    require(tokenData[tokenId].robotAssembly == sub(level, 1, 'Math error'), 'Can buy only next level');\n    _deduct(level);\n    fixEarnings(tokenId);\n    tokenData[tokenId].robotAssembly = level;\n    emit BuildRobotAssembly(tokenId, msg.sender, level);\n  }\n\n  /**\n   * Builds power production\n   * `uint8 level` is very important - it prevents accidental spending ERC20 with double transactions\n   */\n  function buildPowerProduction(uint256 tokenId, uint8 level) external onlyTokenOwner(tokenId) whenNotPaused {\n    require(tokenData[tokenId].powerProduction == sub(level, 1, 'Math error'), 'Can buy only next level');\n    _deduct(level);\n    fixEarnings(tokenId);\n    tokenData[tokenId].powerProduction = level;\n    emit BuildPowerProduction(tokenId, msg.sender, level);\n  }\n\n  /**\n   * Enhancements getter\n   */\n  function getEnhancements(uint256 tokenId) external view returns (uint8, uint8, uint8, uint8) {\n    return (\n      tokenData[tokenId].baseStation,\n      tokenData[tokenId].transport,\n      tokenData[tokenId].robotAssembly,\n      tokenData[tokenId].powerProduction\n    );\n  }\n\n  /**\n   * Enhancements getter\n   */\n  function getAttributes(uint256 tokenId) external view returns (uint8, uint8, uint8, uint8, uint256, uint256) {\n    return (\n      tokenData[tokenId].baseStation,\n      tokenData[tokenId].transport,\n      tokenData[tokenId].robotAssembly,\n      tokenData[tokenId].powerProduction,\n      getEarned(tokenId),\n      getEarningSpeed(tokenId)\n    );\n  }\n\n  function getAttributesMany(uint256[] calldata tokenIds) external view returns (AttributeData[] memory) {\n    AttributeData[] memory result = new AttributeData[](tokenIds.length);\n    for (uint256 i = 0; i < tokenIds.length; i++) {\n      uint256 tokenId = tokenIds[i];\n      result[i] = AttributeData(\n        getEarningSpeed(tokenId),\n        getEarned(tokenId),\n        tokenData[tokenId].baseStation,\n        tokenData[tokenId].transport,\n        tokenData[tokenId].robotAssembly,\n        tokenData[tokenId].powerProduction\n      );\n    }\n    return result;\n  }\n\n  /**\n   * Claims CLNY from several tokens\n   * Pls check gas limits to get max possible count (> 100 for Harmony chain)\n   */\n  function claimEarned(uint256[] calldata tokenIds) external whenNotPaused {\n    require (tokenIds.length != 0, 'Empty array');\n    for (uint8 i = 0; i < tokenIds.length; i++) {\n      require (msg.sender == NFTMintableInterface(MCAddress).ownerOf(tokenIds[i]));\n      uint256 earned = getEarned(tokenIds[i]);\n      ERC20MintBurnInterface(CLNYAddress).mint(msg.sender, earned);\n      ERC20MintBurnInterface(CLNYAddress).mint(treasury, earned * 31 / 49);\n      ERC20MintBurnInterface(CLNYAddress).mint(liquidity, earned * 20 / 49);\n      tokenData[tokenIds[i]].fixedEarnings = 0;\n      tokenData[tokenIds[i]].lastCLNYCheckout = uint64(block.timestamp);\n    }\n  }\n\n  function withdraw() external onlyDAO {\n    require (address(this).balance != 0, 'Nothing to withdraw');\n    (bool success, ) = payable(DAO).call{ value: address(this).balance }('');\n    require(success, 'Withdraw failed');\n  }\n\n  function withdrawValue(uint256 value) external onlyDAO {\n    require (address(this).balance != 0, 'Nothing to withdraw');\n    (bool success, ) = payable(DAO).call{ value: value }('');\n    require(success, 'Withdraw failed');\n  }\n\n  // TODO test before execute\n  function burn10kLiquidity() external onlyDAO {\n    ERC20MintBurnInterface(CLNYAddress).burn(liquidity, 10 * 10 ** 18);\n  }\n}\n",
  "sourcePath": "/Users/kek/contracts/contracts/GameManager.sol",
  "compiler": {
    "name": "solc",
    "version": "0.8.5+commit.a4f2e591.Emscripten.clang"
  },
  "schemaVersion": "3.4.3",
  "updatedAt": "2022-01-14T00:41:38.624Z",
  "networkType": "ethereum",
  "devdoc": {
    "kind": "dev",
    "methods": {
      "paused()": {
        "details": "Returns true if the contract is paused, and false otherwise."
      }
    },
    "version": 1
  },
  "userdoc": {
    "kind": "user",
    "methods": {
      "buildBaseStation(uint256)": {
        "notice": "Builds base station"
      },
      "buildPowerProduction(uint256,uint8)": {
        "notice": "Builds power production `uint8 level` is very important - it prevents accidental spending ERC20 with double transactions"
      },
      "buildRobotAssembly(uint256,uint8)": {
        "notice": "Builds robot assembly `uint8 level` is very important - it prevents accidental spending ERC20 with double transactions"
      },
      "buildTransport(uint256,uint8)": {
        "notice": "Builds transport `uint8 level` is very important - it prevents accidental spending ERC20 with double transactions"
      },
      "claim(uint256[])": {
        "notice": "Mints several tokens Pls check gas limits to get max possible count"
      },
      "claimEarned(uint256[])": {
        "notice": "Claims CLNY from several tokens Pls check gas limits to get max possible count (> 100 for Harmony chain)"
      },
      "claimOne(uint256)": {
        "notice": "Mints a token"
      },
      "getAttributes(uint256)": {
        "notice": "Enhancements getter"
      },
      "getEnhancements(uint256)": {
        "notice": "Enhancements getter"
      },
      "getFee(uint256)": {
        "notice": "Cost of minting for `tokenCount` tokens"
      },
      "setCLNYAddress(address)": {
        "notice": "Sets ERC20 token address"
      },
      "setLiquidity(address)": {
        "notice": "Sets liquidity address"
      },
      "setMCAddress(address)": {
        "notice": "Sets ERC721 token address"
      },
      "setMaxTokenId(uint256)": {
        "notice": "`maxTokenId` increase may be needed if we decide to merge tokens or to sell poles (they are not tokenized yet)"
      },
      "setPrice(uint256)": {
        "notice": "Sets the cost of minting for 1 token"
      },
      "setTreasury(address)": {
        "notice": "Sets treasury address"
      },
      "transferDAO(address)": {
        "notice": "Tranfers ownership"
      }
    },
    "notice": "Game logic; upgradable",
    "version": 1
  }
}