{
  "contractName": "MC",
  "abi": [
    {
      "anonymous": false,
      "inputs": [
        {
          "indexed": true,
          "internalType": "address",
          "name": "owner",
          "type": "address"
        },
        {
          "indexed": true,
          "internalType": "address",
          "name": "approved",
          "type": "address"
        },
        {
          "indexed": true,
          "internalType": "uint256",
          "name": "tokenId",
          "type": "uint256"
        }
      ],
      "name": "Approval",
      "type": "event"
    },
    {
      "anonymous": false,
      "inputs": [
        {
          "indexed": true,
          "internalType": "address",
          "name": "owner",
          "type": "address"
        },
        {
          "indexed": true,
          "internalType": "address",
          "name": "operator",
          "type": "address"
        },
        {
          "indexed": false,
          "internalType": "bool",
          "name": "approved",
          "type": "bool"
        }
      ],
      "name": "ApprovalForAll",
      "type": "event"
    },
    {
      "anonymous": false,
      "inputs": [
        {
          "indexed": false,
          "internalType": "address",
          "name": "account",
          "type": "address"
        }
      ],
      "name": "Paused",
      "type": "event"
    },
    {
      "anonymous": false,
      "inputs": [
        {
          "indexed": true,
          "internalType": "address",
          "name": "from",
          "type": "address"
        },
        {
          "indexed": true,
          "internalType": "address",
          "name": "to",
          "type": "address"
        },
        {
          "indexed": true,
          "internalType": "uint256",
          "name": "tokenId",
          "type": "uint256"
        }
      ],
      "name": "Transfer",
      "type": "event"
    },
    {
      "anonymous": false,
      "inputs": [
        {
          "indexed": false,
          "internalType": "address",
          "name": "account",
          "type": "address"
        }
      ],
      "name": "Unpaused",
      "type": "event"
    },
    {
      "inputs": [],
      "name": "DAO",
      "outputs": [
        {
          "internalType": "address",
          "name": "",
          "type": "address"
        }
      ],
      "stateMutability": "view",
      "type": "function",
      "constant": true
    },
    {
      "inputs": [],
      "name": "GameManager",
      "outputs": [
        {
          "internalType": "address",
          "name": "",
          "type": "address"
        }
      ],
      "stateMutability": "view",
      "type": "function",
      "constant": true
    },
    {
      "inputs": [
        {
          "internalType": "address",
          "name": "to",
          "type": "address"
        },
        {
          "internalType": "uint256",
          "name": "tokenId",
          "type": "uint256"
        }
      ],
      "name": "approve",
      "outputs": [],
      "stateMutability": "nonpayable",
      "type": "function"
    },
    {
      "inputs": [
        {
          "internalType": "address",
          "name": "owner",
          "type": "address"
        }
      ],
      "name": "balanceOf",
      "outputs": [
        {
          "internalType": "uint256",
          "name": "",
          "type": "uint256"
        }
      ],
      "stateMutability": "view",
      "type": "function",
      "constant": true
    },
    {
      "inputs": [
        {
          "internalType": "uint256",
          "name": "tokenId",
          "type": "uint256"
        }
      ],
      "name": "getApproved",
      "outputs": [
        {
          "internalType": "address",
          "name": "",
          "type": "address"
        }
      ],
      "stateMutability": "view",
      "type": "function",
      "constant": true
    },
    {
      "inputs": [
        {
          "internalType": "address",
          "name": "owner",
          "type": "address"
        },
        {
          "internalType": "address",
          "name": "operator",
          "type": "address"
        }
      ],
      "name": "isApprovedForAll",
      "outputs": [
        {
          "internalType": "bool",
          "name": "",
          "type": "bool"
        }
      ],
      "stateMutability": "view",
      "type": "function",
      "constant": true
    },
    {
      "inputs": [],
      "name": "name",
      "outputs": [
        {
          "internalType": "string",
          "name": "",
          "type": "string"
        }
      ],
      "stateMutability": "view",
      "type": "function",
      "constant": true
    },
    {
      "inputs": [
        {
          "internalType": "uint256",
          "name": "tokenId",
          "type": "uint256"
        }
      ],
      "name": "ownerOf",
      "outputs": [
        {
          "internalType": "address",
          "name": "",
          "type": "address"
        }
      ],
      "stateMutability": "view",
      "type": "function",
      "constant": true
    },
    {
      "inputs": [],
      "name": "paused",
      "outputs": [
        {
          "internalType": "bool",
          "name": "",
          "type": "bool"
        }
      ],
      "stateMutability": "view",
      "type": "function",
      "constant": true
    },
    {
      "inputs": [
        {
          "internalType": "address",
          "name": "from",
          "type": "address"
        },
        {
          "internalType": "address",
          "name": "to",
          "type": "address"
        },
        {
          "internalType": "uint256",
          "name": "tokenId",
          "type": "uint256"
        }
      ],
      "name": "safeTransferFrom",
      "outputs": [],
      "stateMutability": "nonpayable",
      "type": "function"
    },
    {
      "inputs": [
        {
          "internalType": "address",
          "name": "from",
          "type": "address"
        },
        {
          "internalType": "address",
          "name": "to",
          "type": "address"
        },
        {
          "internalType": "uint256",
          "name": "tokenId",
          "type": "uint256"
        },
        {
          "internalType": "bytes",
          "name": "_data",
          "type": "bytes"
        }
      ],
      "name": "safeTransferFrom",
      "outputs": [],
      "stateMutability": "nonpayable",
      "type": "function"
    },
    {
      "inputs": [
        {
          "internalType": "address",
          "name": "operator",
          "type": "address"
        },
        {
          "internalType": "bool",
          "name": "approved",
          "type": "bool"
        }
      ],
      "name": "setApprovalForAll",
      "outputs": [],
      "stateMutability": "nonpayable",
      "type": "function"
    },
    {
      "inputs": [
        {
          "internalType": "address",
          "name": "_GameManager",
          "type": "address"
        }
      ],
      "name": "setGameManager",
      "outputs": [],
      "stateMutability": "nonpayable",
      "type": "function"
    },
    {
      "inputs": [
        {
          "internalType": "bytes4",
          "name": "interfaceId",
          "type": "bytes4"
        }
      ],
      "name": "supportsInterface",
      "outputs": [
        {
          "internalType": "bool",
          "name": "",
          "type": "bool"
        }
      ],
      "stateMutability": "view",
      "type": "function",
      "constant": true
    },
    {
      "inputs": [],
      "name": "symbol",
      "outputs": [
        {
          "internalType": "string",
          "name": "",
          "type": "string"
        }
      ],
      "stateMutability": "view",
      "type": "function",
      "constant": true
    },
    {
      "inputs": [
        {
          "internalType": "uint256",
          "name": "index",
          "type": "uint256"
        }
      ],
      "name": "tokenByIndex",
      "outputs": [
        {
          "internalType": "uint256",
          "name": "",
          "type": "uint256"
        }
      ],
      "stateMutability": "view",
      "type": "function",
      "constant": true
    },
    {
      "inputs": [
        {
          "internalType": "address",
          "name": "owner",
          "type": "address"
        },
        {
          "internalType": "uint256",
          "name": "index",
          "type": "uint256"
        }
      ],
      "name": "tokenOfOwnerByIndex",
      "outputs": [
        {
          "internalType": "uint256",
          "name": "",
          "type": "uint256"
        }
      ],
      "stateMutability": "view",
      "type": "function",
      "constant": true
    },
    {
      "inputs": [
        {
          "internalType": "uint256",
          "name": "tokenId",
          "type": "uint256"
        }
      ],
      "name": "tokenURI",
      "outputs": [
        {
          "internalType": "string",
          "name": "",
          "type": "string"
        }
      ],
      "stateMutability": "view",
      "type": "function",
      "constant": true
    },
    {
      "inputs": [],
      "name": "totalSupply",
      "outputs": [
        {
          "internalType": "uint256",
          "name": "",
          "type": "uint256"
        }
      ],
      "stateMutability": "view",
      "type": "function",
      "constant": true
    },
    {
      "inputs": [
        {
          "internalType": "address",
          "name": "_DAO",
          "type": "address"
        }
      ],
      "name": "transferDAO",
      "outputs": [],
      "stateMutability": "nonpayable",
      "type": "function"
    },
    {
      "inputs": [
        {
          "internalType": "address",
          "name": "from",
          "type": "address"
        },
        {
          "internalType": "address",
          "name": "to",
          "type": "address"
        },
        {
          "internalType": "uint256",
          "name": "tokenId",
          "type": "uint256"
        }
      ],
      "name": "transferFrom",
      "outputs": [],
      "stateMutability": "nonpayable",
      "type": "function"
    },
    {
      "inputs": [
        {
          "internalType": "address",
          "name": "_DAO",
          "type": "address"
        },
        {
          "internalType": "string",
          "name": "_nftBaseURI",
          "type": "string"
        }
      ],
      "name": "initialize",
      "outputs": [],
      "stateMutability": "nonpayable",
      "type": "function"
    },
    {
      "inputs": [
        {
          "internalType": "string",
          "name": "newURI",
          "type": "string"
        }
      ],
      "name": "setBaseURI",
      "outputs": [],
      "stateMutability": "nonpayable",
      "type": "function"
    },
    {
      "inputs": [
        {
          "internalType": "address",
          "name": "receiver",
          "type": "address"
        },
        {
          "internalType": "uint256",
          "name": "tokenId",
          "type": "uint256"
        }
      ],
      "name": "mint",
      "outputs": [],
      "stateMutability": "nonpayable",
      "type": "function"
    },
    {
      "inputs": [],
      "name": "pause",
      "outputs": [],
      "stateMutability": "nonpayable",
      "type": "function"
    },
    {
      "inputs": [],
      "name": "unpause",
      "outputs": [],
      "stateMutability": "nonpayable",
      "type": "function"
    },
    {
      "inputs": [],
      "name": "allTokens",
      "outputs": [
        {
          "internalType": "uint256[]",
          "name": "",
          "type": "uint256[]"
        }
      ],
      "stateMutability": "view",
      "type": "function",
      "constant": true
    },
    {
      "inputs": [],
      "name": "allMyTokens",
      "outputs": [
        {
          "internalType": "uint256[]",
          "name": "",
          "type": "uint256[]"
        }
      ],
      "stateMutability": "view",
      "type": "function",
      "constant": true
    },
    {
      "inputs": [
        {
          "internalType": "uint256",
          "name": "tokenId",
          "type": "uint256"
        },
        {
          "internalType": "string",
          "name": "_name",
          "type": "string"
        }
      ],
      "name": "setName",
      "outputs": [],
      "stateMutability": "nonpayable",
      "type": "function"
    },
    {
      "inputs": [
        {
          "internalType": "uint256",
          "name": "tokenId",
          "type": "uint256"
        }
      ],
      "name": "getName",
      "outputs": [
        {
          "internalType": "string",
          "name": "",
          "type": "string"
        }
      ],
      "stateMutability": "view",
      "type": "function",
      "constant": true
    }
  ],
  "bytecode": "0x608060405234801561001057600080fd5b506145e0806100206000396000f3fe608060405234801561001057600080fd5b50600436106101da5760003560e01c80636ff97f1d11610104578063a8ee0689116100a2578063c87b56dd11610071578063c87b56dd1461052f578063e985e9c51461055f578063f399e22e1461058f578063fe55932a146105ab576101da565b8063a8ee0689146104bb578063b7127e41146104d9578063b88d4fde146104f5578063bac6585414610511576101da565b80638456cb59116100de5780638456cb591461045957806395d89b411461046357806398fabd3a14610481578063a22cb4651461049f576101da565b80636ff97f1d146103ef57806370a082311461040d5780637a3188661461043d576101da565b80633f4ba83a1161017c57806355f804b31161014b57806355f804b3146103555780635c975abb146103715780636352211e1461038f5780636b8ff574146103bf576101da565b80633f4ba83a146102e357806340c10f19146102ed57806342842e0e146103095780634f6ccce714610325576101da565b8063095ea7b3116101b8578063095ea7b31461025d57806318160ddd1461027957806323b872dd146102975780632f745c59146102b3576101da565b806301ffc9a7146101df57806306fdde031461020f578063081812fc1461022d575b600080fd5b6101f960048036038101906101f4919061314a565b6105c7565b604051610206919061379d565b60405180910390f35b610217610641565b60405161022491906137b8565b60405180910390f35b610247600480360381019061024291906131ed565b6106d3565b6040516102549190613714565b60405180910390f35b6102776004803603810190610272919061310a565b610758565b005b610281610870565b60405161028e9190613aba565b60405180910390f35b6102b160048036038101906102ac9190612f98565b61087d565b005b6102cd60048036038101906102c8919061310a565b6108dd565b6040516102da9190613aba565b60405180910390f35b6102eb610982565b005b6103076004803603810190610302919061310a565b610a1c565b005b610323600480360381019061031e9190612f98565b610b02565b005b61033f600480360381019061033a91906131ed565b610b22565b60405161034c9190613aba565b60405180910390f35b61036f600480360381019061036a91906131a4565b610b93565b005b610379610c86565b604051610386919061379d565b60405180910390f35b6103a960048036038101906103a491906131ed565b610c9d565b6040516103b69190613714565b60405180910390f35b6103d960048036038101906103d491906131ed565b610d4f565b6040516103e691906137b8565b60405180910390f35b6103f7610df5565b604051610404919061377b565b60405180910390f35b61042760048036038101906104229190612f2b565b610e4d565b6040516104349190613aba565b60405180910390f35b61045760048036038101906104529190612f2b565b610f05565b005b610461610fd9565b005b61046b611073565b60405161047891906137b8565b60405180910390f35b610489611105565b6040516104969190613714565b60405180910390f35b6104b960048036038101906104b4919061306e565b61112b565b005b6104c3611141565b6040516104d0919061377b565b60405180910390f35b6104f360048036038101906104ee9190612f2b565b611249565b005b61050f600480360381019061050a9190612feb565b61131d565b005b61051961137f565b6040516105269190613714565b60405180910390f35b610549600480360381019061054491906131ed565b6113a5565b60405161055691906137b8565b60405180910390f35b61057960048036038101906105749190612f58565b61144c565b604051610586919061379d565b60405180910390f35b6105a960048036038101906105a491906130ae565b6114e0565b005b6105c560048036038101906105c0919061321a565b61166b565b005b60007f780e9d63000000000000000000000000000000000000000000000000000000007bffffffffffffffffffffffffffffffffffffffffffffffffffffffff1916827bffffffffffffffffffffffffffffffffffffffffffffffffffffffff1916148061063a57506106398261170e565b5b9050919050565b60606065805461065090613d49565b80601f016020809104026020016040519081016040528092919081815260200182805461067c90613d49565b80156106c95780601f1061069e576101008083540402835291602001916106c9565b820191906000526020600020905b8154815290600101906020018083116106ac57829003601f168201915b5050505050905090565b60006106de826117f0565b61071d576040517f08c379a0000000000000000000000000000000000000000000000000000000008152600401610714906139ba565b60405180910390fd5b6069600083815260200190815260200160002060009054906101000a900473ffffffffffffffffffffffffffffffffffffffff169050919050565b600061076382610c9d565b90508073ffffffffffffffffffffffffffffffffffffffff168373ffffffffffffffffffffffffffffffffffffffff1614156107d4576040517f08c379a00000000000000000000000000000000000000000000000000000000081526004016107cb90613a1a565b60405180910390fd5b8073ffffffffffffffffffffffffffffffffffffffff166107f361185c565b73ffffffffffffffffffffffffffffffffffffffff16148061082257506108218161081c61185c565b61144c565b5b610861576040517f08c379a0000000000000000000000000000000000000000000000000000000008152600401610858906138fa565b60405180910390fd5b61086b8383611864565b505050565b6000609980549050905090565b61088e61088861185c565b8261191d565b6108cd576040517f08c379a00000000000000000000000000000000000000000000000000000000081526004016108c490613a5a565b60405180910390fd5b6108d88383836119fb565b505050565b60006108e883610e4d565b8210610929576040517f08c379a0000000000000000000000000000000000000000000000000000000008152600401610920906137fa565b60405180910390fd5b609760008473ffffffffffffffffffffffffffffffffffffffff1673ffffffffffffffffffffffffffffffffffffffff168152602001908152602001600020600083815260200190815260200160002054905092915050565b60c960009054906101000a900473ffffffffffffffffffffffffffffffffffffffff1673ffffffffffffffffffffffffffffffffffffffff163373ffffffffffffffffffffffffffffffffffffffff1614610a12576040517f08c379a0000000000000000000000000000000000000000000000000000000008152600401610a0990613a3a565b60405180910390fd5b610a1a611c57565b565b60c960009054906101000a900473ffffffffffffffffffffffffffffffffffffffff1673ffffffffffffffffffffffffffffffffffffffff163373ffffffffffffffffffffffffffffffffffffffff1614610aac576040517f08c379a0000000000000000000000000000000000000000000000000000000008152600401610aa390613a3a565b60405180910390fd5b610ab4610c86565b15610af4576040517f08c379a0000000000000000000000000000000000000000000000000000000008152600401610aeb906138da565b60405180910390fd5b610afe8282611cf9565b5050565b610b1d8383836040518060200160405280600081525061131d565b505050565b6000610b2c610870565b8210610b6d576040517f08c379a0000000000000000000000000000000000000000000000000000000008152600401610b6490613a7a565b60405180910390fd5b60998281548110610b8157610b80613ee2565b5b90600052602060002001549050919050565b60ca60009054906101000a900473ffffffffffffffffffffffffffffffffffffffff1673ffffffffffffffffffffffffffffffffffffffff163373ffffffffffffffffffffffffffffffffffffffff1614610c23576040517f08c379a0000000000000000000000000000000000000000000000000000000008152600401610c1a9061385a565b60405180910390fd5b610c2b610c86565b15610c6b576040517f08c379a0000000000000000000000000000000000000000000000000000000008152600401610c62906138da565b60405180910390fd5b8061012f9080519060200190610c82929190612d3f565b5050565b600060fd60009054906101000a900460ff16905090565b6000806067600084815260200190815260200160002060009054906101000a900473ffffffffffffffffffffffffffffffffffffffff169050600073ffffffffffffffffffffffffffffffffffffffff168173ffffffffffffffffffffffffffffffffffffffff161415610d46576040517f08c379a0000000000000000000000000000000000000000000000000000000008152600401610d3d9061393a565b60405180910390fd5b80915050919050565b606061013060008381526020019081526020016000208054610d7090613d49565b80601f0160208091040260200160405190810160405280929190818152602001828054610d9c90613d49565b8015610de95780601f10610dbe57610100808354040283529160200191610de9565b820191906000526020600020905b815481529060010190602001808311610dcc57829003601f168201915b50505050509050919050565b60606099805480602002602001604051908101604052809291908181526020018280548015610e4357602002820191906000526020600020905b815481526020019060010190808311610e2f575b5050505050905090565b60008073ffffffffffffffffffffffffffffffffffffffff168273ffffffffffffffffffffffffffffffffffffffff161415610ebe576040517f08c379a0000000000000000000000000000000000000000000000000000000008152600401610eb59061391a565b60405180910390fd5b606860008373ffffffffffffffffffffffffffffffffffffffff1673ffffffffffffffffffffffffffffffffffffffff168152602001908152602001600020549050919050565b60ca60009054906101000a900473ffffffffffffffffffffffffffffffffffffffff1673ffffffffffffffffffffffffffffffffffffffff163373ffffffffffffffffffffffffffffffffffffffff1614610f95576040517f08c379a0000000000000000000000000000000000000000000000000000000008152600401610f8c9061385a565b60405180910390fd5b8060ca60006101000a81548173ffffffffffffffffffffffffffffffffffffffff021916908373ffffffffffffffffffffffffffffffffffffffff16021790555050565b60c960009054906101000a900473ffffffffffffffffffffffffffffffffffffffff1673ffffffffffffffffffffffffffffffffffffffff163373ffffffffffffffffffffffffffffffffffffffff1614611069576040517f08c379a000000000000000000000000000000000000000000000000000000000815260040161106090613a3a565b60405180910390fd5b611071611d17565b565b60606066805461108290613d49565b80601f01602080910402602001604051908101604052809291908181526020018280546110ae90613d49565b80156110fb5780601f106110d0576101008083540402835291602001916110fb565b820191906000526020600020905b8154815290600101906020018083116110de57829003601f168201915b5050505050905090565b60ca60009054906101000a900473ffffffffffffffffffffffffffffffffffffffff1681565b61113d61113661185c565b8383611dba565b5050565b6060600061114e33610e4d565b905060008114156111ab57600067ffffffffffffffff81111561117457611173613f11565b5b6040519080825280602002602001820160405280156111a25781602001602082028036833780820191505090505b50915050611246565b60008167ffffffffffffffff8111156111c7576111c6613f11565b5b6040519080825280602002602001820160405280156111f55781602001602082028036833780820191505090505b50905060005b8281101561123f5761120d33826108dd565b8282815181106112205761121f613ee2565b5b602002602001018181525050808061123790613dac565b9150506111fb565b5080925050505b90565b60ca60009054906101000a900473ffffffffffffffffffffffffffffffffffffffff1673ffffffffffffffffffffffffffffffffffffffff163373ffffffffffffffffffffffffffffffffffffffff16146112d9576040517f08c379a00000000000000000000000000000000000000000000000000000000081526004016112d09061385a565b60405180910390fd5b8060c960006101000a81548173ffffffffffffffffffffffffffffffffffffffff021916908373ffffffffffffffffffffffffffffffffffffffff16021790555050565b61132e61132861185c565b8361191d565b61136d576040517f08c379a000000000000000000000000000000000000000000000000000000000815260040161136490613a5a565b60405180910390fd5b61137984848484611f27565b50505050565b60c960009054906101000a900473ffffffffffffffffffffffffffffffffffffffff1681565b60606113b0826117f0565b6113ef576040517f08c379a00000000000000000000000000000000000000000000000000000000081526004016113e6906139fa565b60405180910390fd5b60006113f9611f83565b905060008151116114195760405180602001604052806000815250611444565b8061142384612016565b6040516020016114349291906136f0565b6040516020818303038152906040525b915050919050565b6000606a60008473ffffffffffffffffffffffffffffffffffffffff1673ffffffffffffffffffffffffffffffffffffffff16815260200190815260200160002060008373ffffffffffffffffffffffffffffffffffffffff1673ffffffffffffffffffffffffffffffffffffffff16815260200190815260200160002060009054906101000a900460ff16905092915050565b600060019054906101000a900460ff166115085760008054906101000a900460ff1615611511565b611510612177565b5b611550576040517f08c379a00000000000000000000000000000000000000000000000000000000081526004016115479061395a565b60405180910390fd5b60008060019054906101000a900460ff1615905080156115a0576001600060016101000a81548160ff02191690831515021790555060016000806101000a81548160ff0219169083151502179055505b6115a8612188565b61161c6040518060400160405280600a81526020017f4d617273436f6c6f6e79000000000000000000000000000000000000000000008152506040518060400160405280600281526020017f4d430000000000000000000000000000000000000000000000000000000000008152506121f1565b6116258361225e565b61162d6122a2565b8161012f9080519060200190611644929190612d3f565b5080156116665760008060016101000a81548160ff0219169083151502179055505b505050565b3373ffffffffffffffffffffffffffffffffffffffff1661168b83610c9d565b73ffffffffffffffffffffffffffffffffffffffff16146116e1576040517f08c379a00000000000000000000000000000000000000000000000000000000081526004016116d89061399a565b60405180910390fd5b8061013060008481526020019081526020016000209080519060200190611709929190612d3f565b505050565b60007f80ac58cd000000000000000000000000000000000000000000000000000000007bffffffffffffffffffffffffffffffffffffffffffffffffffffffff1916827bffffffffffffffffffffffffffffffffffffffffffffffffffffffff191614806117d957507f5b5e139f000000000000000000000000000000000000000000000000000000007bffffffffffffffffffffffffffffffffffffffffffffffffffffffff1916827bffffffffffffffffffffffffffffffffffffffffffffffffffffffff1916145b806117e957506117e882612303565b5b9050919050565b60008073ffffffffffffffffffffffffffffffffffffffff166067600084815260200190815260200160002060009054906101000a900473ffffffffffffffffffffffffffffffffffffffff1673ffffffffffffffffffffffffffffffffffffffff1614159050919050565b600033905090565b816069600083815260200190815260200160002060006101000a81548173ffffffffffffffffffffffffffffffffffffffff021916908373ffffffffffffffffffffffffffffffffffffffff160217905550808273ffffffffffffffffffffffffffffffffffffffff166118d783610c9d565b73ffffffffffffffffffffffffffffffffffffffff167f8c5be1e5ebec7d5bd14f71427d1e84f3dd0314c0f7b2291e5b200ac8c7c3b92560405160405180910390a45050565b6000611928826117f0565b611967576040517f08c379a000000000000000000000000000000000000000000000000000000000815260040161195e906138ba565b60405180910390fd5b600061197283610c9d565b90508073ffffffffffffffffffffffffffffffffffffffff168473ffffffffffffffffffffffffffffffffffffffff1614806119e157508373ffffffffffffffffffffffffffffffffffffffff166119c9846106d3565b73ffffffffffffffffffffffffffffffffffffffff16145b806119f257506119f1818561144c565b5b91505092915050565b8273ffffffffffffffffffffffffffffffffffffffff16611a1b82610c9d565b73ffffffffffffffffffffffffffffffffffffffff1614611a71576040517f08c379a0000000000000000000000000000000000000000000000000000000008152600401611a68906139da565b60405180910390fd5b600073ffffffffffffffffffffffffffffffffffffffff168273ffffffffffffffffffffffffffffffffffffffff161415611ae1576040517f08c379a0000000000000000000000000000000000000000000000000000000008152600401611ad89061387a565b60405180910390fd5b611aec83838361236d565b611af7600082611864565b6001606860008573ffffffffffffffffffffffffffffffffffffffff1673ffffffffffffffffffffffffffffffffffffffff1681526020019081526020016000206000828254611b479190613c5f565b925050819055506001606860008473ffffffffffffffffffffffffffffffffffffffff1673ffffffffffffffffffffffffffffffffffffffff1681526020019081526020016000206000828254611b9e9190613bd8565b92505081905550816067600083815260200190815260200160002060006101000a81548173ffffffffffffffffffffffffffffffffffffffff021916908373ffffffffffffffffffffffffffffffffffffffff160217905550808273ffffffffffffffffffffffffffffffffffffffff168473ffffffffffffffffffffffffffffffffffffffff167fddf252ad1be2c89b69c2b068fc378daa952ba7f163c4a11628f55a4df523b3ef60405160405180910390a4505050565b611c5f610c86565b611c9e576040517f08c379a0000000000000000000000000000000000000000000000000000000008152600401611c95906137da565b60405180910390fd5b600060fd60006101000a81548160ff0219169083151502179055507f5db9ee0a495bf2e6ff9c91a7834c1ba4fdd244a5e8aa4e537bd38aeae4b073aa611ce261185c565b604051611cef9190613714565b60405180910390a1565b611d13828260405180602001604052806000815250612481565b5050565b611d1f610c86565b15611d5f576040517f08c379a0000000000000000000000000000000000000000000000000000000008152600401611d56906138da565b60405180910390fd5b600160fd60006101000a81548160ff0219169083151502179055507f62e78cea01bee320cd4e420270b5ea74000d11b0c9f74754ebdbfc544b05a258611da361185c565b604051611db09190613714565b60405180910390a1565b8173ffffffffffffffffffffffffffffffffffffffff168373ffffffffffffffffffffffffffffffffffffffff161415611e29576040517f08c379a0000000000000000000000000000000000000000000000000000000008152600401611e209061389a565b60405180910390fd5b80606a60008573ffffffffffffffffffffffffffffffffffffffff1673ffffffffffffffffffffffffffffffffffffffff16815260200190815260200160002060008473ffffffffffffffffffffffffffffffffffffffff1673ffffffffffffffffffffffffffffffffffffffff16815260200190815260200160002060006101000a81548160ff0219169083151502179055508173ffffffffffffffffffffffffffffffffffffffff168373ffffffffffffffffffffffffffffffffffffffff167f17307eab39ab6107e8899845ad3d59bd9653f200f220920489ca2b5937696c3183604051611f1a919061379d565b60405180910390a3505050565b611f328484846119fb565b611f3e848484846124dc565b611f7d576040517f08c379a0000000000000000000000000000000000000000000000000000000008152600401611f749061381a565b60405180910390fd5b50505050565b606061012f8054611f9390613d49565b80601f0160208091040260200160405190810160405280929190818152602001828054611fbf90613d49565b801561200c5780601f10611fe15761010080835404028352916020019161200c565b820191906000526020600020905b815481529060010190602001808311611fef57829003601f168201915b5050505050905090565b6060600082141561205e576040518060400160405280600181526020017f30000000000000000000000000000000000000000000000000000000000000008152509050612172565b600082905060005b6000821461209057808061207990613dac565b915050600a826120899190613c2e565b9150612066565b60008167ffffffffffffffff8111156120ac576120ab613f11565b5b6040519080825280601f01601f1916602001820160405280156120de5781602001600182028036833780820191505090505b5090505b6000851461216b576001826120f79190613c5f565b9150600a856121069190613df5565b60306121129190613bd8565b60f81b81838151811061212857612127613ee2565b5b60200101907effffffffffffffffffffffffffffffffffffffffffffffffffffffffffffff1916908160001a905350600a856121649190613c2e565b94506120e2565b8093505050505b919050565b600061218230612673565b15905090565b600060019054906101000a900460ff166121d7576040517f08c379a00000000000000000000000000000000000000000000000000000000081526004016121ce90613a9a565b60405180910390fd5b6121df612686565b6121e76126d7565b6121ef612728565b565b600060019054906101000a900460ff16612240576040517f08c379a000000000000000000000000000000000000000000000000000000000815260040161223790613a9a565b60405180910390fd5b612248612686565b6122506126d7565b61225a8282612779565b5050565b8060ca60006101000a81548173ffffffffffffffffffffffffffffffffffffffff021916908373ffffffffffffffffffffffffffffffffffffffff16021790555050565b600060019054906101000a900460ff166122f1576040517f08c379a00000000000000000000000000000000000000000000000000000000081526004016122e890613a9a565b60405180910390fd5b6122f9612686565b6123016127fa565b565b60007f01ffc9a7000000000000000000000000000000000000000000000000000000007bffffffffffffffffffffffffffffffffffffffffffffffffffffffff1916827bffffffffffffffffffffffffffffffffffffffffffffffffffffffff1916149050919050565b612378838383612866565b600073ffffffffffffffffffffffffffffffffffffffff168373ffffffffffffffffffffffffffffffffffffffff1614156123bb576123b68161286b565b6123fa565b8173ffffffffffffffffffffffffffffffffffffffff168373ffffffffffffffffffffffffffffffffffffffff16146123f9576123f883826128b4565b5b5b600073ffffffffffffffffffffffffffffffffffffffff168273ffffffffffffffffffffffffffffffffffffffff16141561243d5761243881612a21565b61247c565b8273ffffffffffffffffffffffffffffffffffffffff168273ffffffffffffffffffffffffffffffffffffffff161461247b5761247a8282612af2565b5b5b505050565b61248b8383612b71565b61249860008484846124dc565b6124d7576040517f08c379a00000000000000000000000000000000000000000000000000000000081526004016124ce9061381a565b60405180910390fd5b505050565b60006124fd8473ffffffffffffffffffffffffffffffffffffffff16612673565b15612666578373ffffffffffffffffffffffffffffffffffffffff1663150b7a0261252661185c565b8786866040518563ffffffff1660e01b8152600401612548949392919061372f565b602060405180830381600087803b15801561256257600080fd5b505af192505050801561259357506040513d601f19601f820116820180604052508101906125909190613177565b60015b612616573d80600081146125c3576040519150601f19603f3d011682016040523d82523d6000602084013e6125c8565b606091505b5060008151141561260e576040517f08c379a00000000000000000000000000000000000000000000000000000000081526004016126059061381a565b60405180910390fd5b805181602001fd5b63150b7a0260e01b7bffffffffffffffffffffffffffffffffffffffffffffffffffffffff1916817bffffffffffffffffffffffffffffffffffffffffffffffffffffffff19161491505061266b565b600190505b949350505050565b600080823b905060008111915050919050565b600060019054906101000a900460ff166126d5576040517f08c379a00000000000000000000000000000000000000000000000000000000081526004016126cc90613a9a565b60405180910390fd5b565b600060019054906101000a900460ff16612726576040517f08c379a000000000000000000000000000000000000000000000000000000000815260040161271d90613a9a565b60405180910390fd5b565b600060019054906101000a900460ff16612777576040517f08c379a000000000000000000000000000000000000000000000000000000000815260040161276e90613a9a565b60405180910390fd5b565b600060019054906101000a900460ff166127c8576040517f08c379a00000000000000000000000000000000000000000000000000000000081526004016127bf90613a9a565b60405180910390fd5b81606590805190602001906127de929190612d3f565b5080606690805190602001906127f5929190612d3f565b505050565b600060019054906101000a900460ff16612849576040517f08c379a000000000000000000000000000000000000000000000000000000000815260040161284090613a9a565b60405180910390fd5b600060fd60006101000a81548160ff021916908315150217905550565b505050565b609980549050609a600083815260200190815260200160002081905550609981908060018154018082558091505060019003906000526020600020016000909190919091505550565b600060016128c184610e4d565b6128cb9190613c5f565b90506000609860008481526020019081526020016000205490508181146129b0576000609760008673ffffffffffffffffffffffffffffffffffffffff1673ffffffffffffffffffffffffffffffffffffffff168152602001908152602001600020600084815260200190815260200160002054905080609760008773ffffffffffffffffffffffffffffffffffffffff1673ffffffffffffffffffffffffffffffffffffffff168152602001908152602001600020600084815260200190815260200160002081905550816098600083815260200190815260200160002081905550505b6098600084815260200190815260200160002060009055609760008573ffffffffffffffffffffffffffffffffffffffff1673ffffffffffffffffffffffffffffffffffffffff16815260200190815260200160002060008381526020019081526020016000206000905550505050565b60006001609980549050612a359190613c5f565b90506000609a6000848152602001908152602001600020549050600060998381548110612a6557612a64613ee2565b5b906000526020600020015490508060998381548110612a8757612a86613ee2565b5b906000526020600020018190555081609a600083815260200190815260200160002081905550609a6000858152602001908152602001600020600090556099805480612ad657612ad5613eb3565b5b6001900381819060005260206000200160009055905550505050565b6000612afd83610e4d565b905081609760008573ffffffffffffffffffffffffffffffffffffffff1673ffffffffffffffffffffffffffffffffffffffff168152602001908152602001600020600083815260200190815260200160002081905550806098600084815260200190815260200160002081905550505050565b600073ffffffffffffffffffffffffffffffffffffffff168273ffffffffffffffffffffffffffffffffffffffff161415612be1576040517f08c379a0000000000000000000000000000000000000000000000000000000008152600401612bd89061397a565b60405180910390fd5b612bea816117f0565b15612c2a576040517f08c379a0000000000000000000000000000000000000000000000000000000008152600401612c219061383a565b60405180910390fd5b612c366000838361236d565b6001606860008473ffffffffffffffffffffffffffffffffffffffff1673ffffffffffffffffffffffffffffffffffffffff1681526020019081526020016000206000828254612c869190613bd8565b92505081905550816067600083815260200190815260200160002060006101000a81548173ffffffffffffffffffffffffffffffffffffffff021916908373ffffffffffffffffffffffffffffffffffffffff160217905550808273ffffffffffffffffffffffffffffffffffffffff16600073ffffffffffffffffffffffffffffffffffffffff167fddf252ad1be2c89b69c2b068fc378daa952ba7f163c4a11628f55a4df523b3ef60405160405180910390a45050565b828054612d4b90613d49565b90600052602060002090601f016020900481019282612d6d5760008555612db4565b82601f10612d8657805160ff1916838001178555612db4565b82800160010185558215612db4579182015b82811115612db3578251825591602001919060010190612d98565b5b509050612dc19190612dc5565b5090565b5b80821115612dde576000816000905550600101612dc6565b5090565b6000612df5612df084613afa565b613ad5565b905082815260208101848484011115612e1157612e10613f45565b5b612e1c848285613d07565b509392505050565b6000612e37612e3284613b2b565b613ad5565b905082815260208101848484011115612e5357612e52613f45565b5b612e5e848285613d07565b509392505050565b600081359050612e758161454e565b92915050565b600081359050612e8a81614565565b92915050565b600081359050612e9f8161457c565b92915050565b600081519050612eb48161457c565b92915050565b600082601f830112612ecf57612ece613f40565b5b8135612edf848260208601612de2565b91505092915050565b600082601f830112612efd57612efc613f40565b5b8135612f0d848260208601612e24565b91505092915050565b600081359050612f2581614593565b92915050565b600060208284031215612f4157612f40613f4f565b5b6000612f4f84828501612e66565b91505092915050565b60008060408385031215612f6f57612f6e613f4f565b5b6000612f7d85828601612e66565b9250506020612f8e85828601612e66565b9150509250929050565b600080600060608486031215612fb157612fb0613f4f565b5b6000612fbf86828701612e66565b9350506020612fd086828701612e66565b9250506040612fe186828701612f16565b9150509250925092565b6000806000806080858703121561300557613004613f4f565b5b600061301387828801612e66565b945050602061302487828801612e66565b935050604061303587828801612f16565b925050606085013567ffffffffffffffff81111561305657613055613f4a565b5b61306287828801612eba565b91505092959194509250565b6000806040838503121561308557613084613f4f565b5b600061309385828601612e66565b92505060206130a485828601612e7b565b9150509250929050565b600080604083850312156130c5576130c4613f4f565b5b60006130d385828601612e66565b925050602083013567ffffffffffffffff8111156130f4576130f3613f4a565b5b61310085828601612ee8565b9150509250929050565b6000806040838503121561312157613120613f4f565b5b600061312f85828601612e66565b925050602061314085828601612f16565b9150509250929050565b6000602082840312156131605761315f613f4f565b5b600061316e84828501612e90565b91505092915050565b60006020828403121561318d5761318c613f4f565b5b600061319b84828501612ea5565b91505092915050565b6000602082840312156131ba576131b9613f4f565b5b600082013567ffffffffffffffff8111156131d8576131d7613f4a565b5b6131e484828501612ee8565b91505092915050565b60006020828403121561320357613202613f4f565b5b600061321184828501612f16565b91505092915050565b6000806040838503121561323157613230613f4f565b5b600061323f85828601612f16565b925050602083013567ffffffffffffffff8111156132605761325f613f4a565b5b61326c85828601612ee8565b9150509250929050565b600061328283836136d2565b60208301905092915050565b61329781613c93565b82525050565b60006132a882613b6c565b6132b28185613b9a565b93506132bd83613b5c565b8060005b838110156132ee5781516132d58882613276565b97506132e083613b8d565b9250506001810190506132c1565b5085935050505092915050565b61330481613ca5565b82525050565b600061331582613b77565b61331f8185613bab565b935061332f818560208601613d16565b61333881613f54565b840191505092915050565b600061334e82613b82565b6133588185613bbc565b9350613368818560208601613d16565b61337181613f54565b840191505092915050565b600061338782613b82565b6133918185613bcd565b93506133a1818560208601613d16565b80840191505092915050565b60006133ba601483613bbc565b91506133c582613f65565b602082019050919050565b60006133dd602b83613bbc565b91506133e882613f8e565b604082019050919050565b6000613400603283613bbc565b915061340b82613fdd565b604082019050919050565b6000613423601c83613bbc565b915061342e8261402c565b602082019050919050565b6000613446600883613bbc565b915061345182614055565b602082019050919050565b6000613469602483613bbc565b91506134748261407e565b604082019050919050565b600061348c601983613bbc565b9150613497826140cd565b602082019050919050565b60006134af602c83613bbc565b91506134ba826140f6565b604082019050919050565b60006134d2601083613bbc565b91506134dd82614145565b602082019050919050565b60006134f5603883613bbc565b91506135008261416e565b604082019050919050565b6000613518602a83613bbc565b9150613523826141bd565b604082019050919050565b600061353b602983613bbc565b91506135468261420c565b604082019050919050565b600061355e602e83613bbc565b91506135698261425b565b604082019050919050565b6000613581602083613bbc565b915061358c826142aa565b602082019050919050565b60006135a4600e83613bbc565b91506135af826142d3565b602082019050919050565b60006135c7602c83613bbc565b91506135d2826142fc565b604082019050919050565b60006135ea602983613bbc565b91506135f58261434b565b604082019050919050565b600061360d602f83613bbc565b91506136188261439a565b604082019050919050565b6000613630602183613bbc565b915061363b826143e9565b604082019050919050565b6000613653601083613bbc565b915061365e82614438565b602082019050919050565b6000613676603183613bbc565b915061368182614461565b604082019050919050565b6000613699602c83613bbc565b91506136a4826144b0565b604082019050919050565b60006136bc602b83613bbc565b91506136c7826144ff565b604082019050919050565b6136db81613cfd565b82525050565b6136ea81613cfd565b82525050565b60006136fc828561337c565b9150613708828461337c565b91508190509392505050565b6000602082019050613729600083018461328e565b92915050565b6000608082019050613744600083018761328e565b613751602083018661328e565b61375e60408301856136e1565b8181036060830152613770818461330a565b905095945050505050565b60006020820190508181036000830152613795818461329d565b905092915050565b60006020820190506137b260008301846132fb565b92915050565b600060208201905081810360008301526137d28184613343565b905092915050565b600060208201905081810360008301526137f3816133ad565b9050919050565b60006020820190508181036000830152613813816133d0565b9050919050565b60006020820190508181036000830152613833816133f3565b9050919050565b6000602082019050818103600083015261385381613416565b9050919050565b6000602082019050818103600083015261387381613439565b9050919050565b600060208201905081810360008301526138938161345c565b9050919050565b600060208201905081810360008301526138b38161347f565b9050919050565b600060208201905081810360008301526138d3816134a2565b9050919050565b600060208201905081810360008301526138f3816134c5565b9050919050565b60006020820190508181036000830152613913816134e8565b9050919050565b600060208201905081810360008301526139338161350b565b9050919050565b600060208201905081810360008301526139538161352e565b9050919050565b6000602082019050818103600083015261397381613551565b9050919050565b6000602082019050818103600083015261399381613574565b9050919050565b600060208201905081810360008301526139b381613597565b9050919050565b600060208201905081810360008301526139d3816135ba565b9050919050565b600060208201905081810360008301526139f3816135dd565b9050919050565b60006020820190508181036000830152613a1381613600565b9050919050565b60006020820190508181036000830152613a3381613623565b9050919050565b60006020820190508181036000830152613a5381613646565b9050919050565b60006020820190508181036000830152613a7381613669565b9050919050565b60006020820190508181036000830152613a938161368c565b9050919050565b60006020820190508181036000830152613ab3816136af565b9050919050565b6000602082019050613acf60008301846136e1565b92915050565b6000613adf613af0565b9050613aeb8282613d7b565b919050565b6000604051905090565b600067ffffffffffffffff821115613b1557613b14613f11565b5b613b1e82613f54565b9050602081019050919050565b600067ffffffffffffffff821115613b4657613b45613f11565b5b613b4f82613f54565b9050602081019050919050565b6000819050602082019050919050565b600081519050919050565b600081519050919050565b600081519050919050565b6000602082019050919050565b600082825260208201905092915050565b600082825260208201905092915050565b600082825260208201905092915050565b600081905092915050565b6000613be382613cfd565b9150613bee83613cfd565b9250827fffffffffffffffffffffffffffffffffffffffffffffffffffffffffffffffff03821115613c2357613c22613e26565b5b828201905092915050565b6000613c3982613cfd565b9150613c4483613cfd565b925082613c5457613c53613e55565b5b828204905092915050565b6000613c6a82613cfd565b9150613c7583613cfd565b925082821015613c8857613c87613e26565b5b828203905092915050565b6000613c9e82613cdd565b9050919050565b60008115159050919050565b60007fffffffff0000000000000000000000000000000000000000000000000000000082169050919050565b600073ffffffffffffffffffffffffffffffffffffffff82169050919050565b6000819050919050565b82818337600083830152505050565b60005b83811015613d34578082015181840152602081019050613d19565b83811115613d43576000848401525b50505050565b60006002820490506001821680613d6157607f821691505b60208210811415613d7557613d74613e84565b5b50919050565b613d8482613f54565b810181811067ffffffffffffffff82111715613da357613da2613f11565b5b80604052505050565b6000613db782613cfd565b91507fffffffffffffffffffffffffffffffffffffffffffffffffffffffffffffffff821415613dea57613de9613e26565b5b600182019050919050565b6000613e0082613cfd565b9150613e0b83613cfd565b925082613e1b57613e1a613e55565b5b828206905092915050565b7f4e487b7100000000000000000000000000000000000000000000000000000000600052601160045260246000fd5b7f4e487b7100000000000000000000000000000000000000000000000000000000600052601260045260246000fd5b7f4e487b7100000000000000000000000000000000000000000000000000000000600052602260045260246000fd5b7f4e487b7100000000000000000000000000000000000000000000000000000000600052603160045260246000fd5b7f4e487b7100000000000000000000000000000000000000000000000000000000600052603260045260246000fd5b7f4e487b7100000000000000000000000000000000000000000000000000000000600052604160045260246000fd5b600080fd5b600080fd5b600080fd5b600080fd5b6000601f19601f8301169050919050565b7f5061757361626c653a206e6f7420706175736564000000000000000000000000600082015250565b7f455243373231456e756d657261626c653a206f776e657220696e646578206f7560008201527f74206f6620626f756e6473000000000000000000000000000000000000000000602082015250565b7f4552433732313a207472616e7366657220746f206e6f6e20455243373231526560008201527f63656976657220696d706c656d656e7465720000000000000000000000000000602082015250565b7f4552433732313a20746f6b656e20616c7265616479206d696e74656400000000600082015250565b7f4f6e6c792044414f000000000000000000000000000000000000000000000000600082015250565b7f4552433732313a207472616e7366657220746f20746865207a65726f2061646460008201527f7265737300000000000000000000000000000000000000000000000000000000602082015250565b7f4552433732313a20617070726f766520746f2063616c6c657200000000000000600082015250565b7f4552433732313a206f70657261746f7220717565727920666f72206e6f6e657860008201527f697374656e7420746f6b656e0000000000000000000000000000000000000000602082015250565b7f5061757361626c653a2070617573656400000000000000000000000000000000600082015250565b7f4552433732313a20617070726f76652063616c6c6572206973206e6f74206f7760008201527f6e6572206e6f7220617070726f76656420666f7220616c6c0000000000000000602082015250565b7f4552433732313a2062616c616e636520717565727920666f7220746865207a6560008201527f726f206164647265737300000000000000000000000000000000000000000000602082015250565b7f4552433732313a206f776e657220717565727920666f72206e6f6e657869737460008201527f656e7420746f6b656e0000000000000000000000000000000000000000000000602082015250565b7f496e697469616c697a61626c653a20636f6e747261637420697320616c72656160008201527f647920696e697469616c697a6564000000000000000000000000000000000000602082015250565b7f4552433732313a206d696e7420746f20746865207a65726f2061646472657373600082015250565b7f4e6f7420796f757220746f6b656e000000000000000000000000000000000000600082015250565b7f4552433732313a20617070726f76656420717565727920666f72206e6f6e657860008201527f697374656e7420746f6b656e0000000000000000000000000000000000000000602082015250565b7f4552433732313a207472616e73666572206f6620746f6b656e2074686174206960008201527f73206e6f74206f776e0000000000000000000000000000000000000000000000602082015250565b7f4552433732314d657461646174613a2055524920717565727920666f72206e6f60008201527f6e6578697374656e7420746f6b656e0000000000000000000000000000000000602082015250565b7f4552433732313a20617070726f76616c20746f2063757272656e74206f776e6560008201527f7200000000000000000000000000000000000000000000000000000000000000602082015250565b7f4f6e6c792047616d654d616e6167657200000000000000000000000000000000600082015250565b7f4552433732313a207472616e736665722063616c6c6572206973206e6f74206f60008201527f776e6572206e6f7220617070726f766564000000000000000000000000000000602082015250565b7f455243373231456e756d657261626c653a20676c6f62616c20696e646578206f60008201527f7574206f6620626f756e64730000000000000000000000000000000000000000602082015250565b7f496e697469616c697a61626c653a20636f6e7472616374206973206e6f74206960008201527f6e697469616c697a696e67000000000000000000000000000000000000000000602082015250565b61455781613c93565b811461456257600080fd5b50565b61456e81613ca5565b811461457957600080fd5b50565b61458581613cb1565b811461459057600080fd5b50565b61459c81613cfd565b81146145a757600080fd5b5056fea26469706673582212201b31f7306090439a7eba3b7103be1e81a6e1b97aba6dd914a81127840beeb65864736f6c63430008050033",
  "immutableReferences": {},
  "source": "/**\n * ERC721 MC token - land plots\n */\n\n// SPDX-License-Identifier: MIT\npragma solidity >=0.8.0 <0.9.0;\nimport './ERC721EnumerableUpgradeable.sol';\nimport './GameConnection.sol';\nimport '@openzeppelin/contracts-upgradeable/security/PausableUpgradeable.sol';\n\n\ncontract MC is ERC721EnumerableUpgradeable, GameConnection, PausableUpgradeable {\n  string private nftBaseURI;\n  mapping (uint256 => string) private names;\n\n  uint256[50] private ______mc_gap;\n\n  function initialize(address _DAO, string memory _nftBaseURI) public initializer {\n    ERC721EnumerableUpgradeable.__ERC721Enumerable_init();\n    __ERC721_init('MarsColony', 'MC');\n    GameConnection.__GameConnection_init(_DAO);\n    PausableUpgradeable.__Pausable_init();\n    nftBaseURI = _nftBaseURI;\n  }\n\n  function _baseURI() internal view virtual override returns (string memory) {\n    return nftBaseURI;\n  }\n\n  function setBaseURI(string memory newURI) external onlyDAO whenNotPaused {\n    nftBaseURI = newURI;\n  }\n\n  function mint(address receiver, uint256 tokenId) external onlyGameManager whenNotPaused {\n    _safeMint(receiver, tokenId);\n  }\n\n  function pause() external onlyGameManager {\n    _pause();\n  }\n\n  function unpause() external onlyGameManager {\n    _unpause();\n  }\n\n  function allTokens() external view returns(uint256[] memory) {\n    return _allTokens;\n  }\n\n  function allMyTokens() external view returns(uint256[] memory) {\n    uint256 tokenCount = balanceOf(msg.sender);\n    if (tokenCount == 0) {\n      return new uint256[](0);\n    } else {\n      uint256[] memory result = new uint256[](tokenCount);\n      for (uint256 i = 0; i < tokenCount; i++) {\n        result[i] = tokenOfOwnerByIndex(msg.sender, i);\n      }\n      return result;\n    }\n  }\n\n  function setName(uint256 tokenId, string memory _name) external {\n    require (ownerOf(tokenId) == msg.sender, 'Not your token');\n    names[tokenId] = _name;\n  }\n\n  function getName(uint256 tokenId) external view returns (string memory) {\n    return names[tokenId];\n  }\n\n  // // only for tests\n  // function dayBack(uint256 tokenId) external onlyTokenOwner(tokenId) {\n  //   lastCLNYCheckout[tokenId] = lastCLNYCheckout[tokenId] - 10 * 60 * 60 * 24;\n  // }\n}\n",
  "sourcePath": "/Users/kek/contracts/contracts/MC.sol",
  "compiler": {
    "name": "solc",
    "version": "0.8.5+commit.a4f2e591.Emscripten.clang"
  },
  "schemaVersion": "3.4.3",
  "updatedAt": "2021-12-29T14:29:10.531Z",
  "networkType": "ethereum",
  "devdoc": {
    "kind": "dev",
    "methods": {
      "approve(address,uint256)": {
        "details": "See {IERC721-approve}."
      },
      "balanceOf(address)": {
        "details": "See {IERC721-balanceOf}."
      },
      "getApproved(uint256)": {
        "details": "See {IERC721-getApproved}."
      },
      "isApprovedForAll(address,address)": {
        "details": "See {IERC721-isApprovedForAll}."
      },
      "name()": {
        "details": "See {IERC721Metadata-name}."
      },
      "ownerOf(uint256)": {
        "details": "See {IERC721-ownerOf}."
      },
      "paused()": {
        "details": "Returns true if the contract is paused, and false otherwise."
      },
      "safeTransferFrom(address,address,uint256)": {
        "details": "See {IERC721-safeTransferFrom}."
      },
      "safeTransferFrom(address,address,uint256,bytes)": {
        "details": "See {IERC721-safeTransferFrom}."
      },
      "setApprovalForAll(address,bool)": {
        "details": "See {IERC721-setApprovalForAll}."
      },
      "supportsInterface(bytes4)": {
        "details": "See {IERC165-supportsInterface}."
      },
      "symbol()": {
        "details": "See {IERC721Metadata-symbol}."
      },
      "tokenByIndex(uint256)": {
        "details": "See {IERC721Enumerable-tokenByIndex}."
      },
      "tokenOfOwnerByIndex(address,uint256)": {
        "details": "See {IERC721Enumerable-tokenOfOwnerByIndex}."
      },
      "tokenURI(uint256)": {
        "details": "See {IERC721Metadata-tokenURI}."
      },
      "totalSupply()": {
        "details": "See {IERC721Enumerable-totalSupply}."
      },
      "transferFrom(address,address,uint256)": {
        "details": "See {IERC721-transferFrom}."
      }
    },
    "version": 1
  },
  "userdoc": {
    "kind": "user",
    "methods": {},
    "version": 1
  }
}