{
  "contractName": "CLNY",
  "abi": [
    {
      "anonymous": false,
      "inputs": [
        {
          "indexed": true,
          "internalType": "address",
          "name": "owner",
          "type": "address"
        },
        {
          "indexed": true,
          "internalType": "address",
          "name": "spender",
          "type": "address"
        },
        {
          "indexed": false,
          "internalType": "uint256",
          "name": "value",
          "type": "uint256"
        }
      ],
      "name": "Approval",
      "type": "event"
    },
    {
      "anonymous": false,
      "inputs": [
        {
          "indexed": false,
          "internalType": "address",
          "name": "account",
          "type": "address"
        }
      ],
      "name": "Paused",
      "type": "event"
    },
    {
      "anonymous": false,
      "inputs": [
        {
          "indexed": true,
          "internalType": "address",
          "name": "from",
          "type": "address"
        },
        {
          "indexed": true,
          "internalType": "address",
          "name": "to",
          "type": "address"
        },
        {
          "indexed": false,
          "internalType": "uint256",
          "name": "value",
          "type": "uint256"
        }
      ],
      "name": "Transfer",
      "type": "event"
    },
    {
      "anonymous": false,
      "inputs": [
        {
          "indexed": false,
          "internalType": "address",
          "name": "account",
          "type": "address"
        }
      ],
      "name": "Unpaused",
      "type": "event"
    },
    {
      "inputs": [],
      "name": "DAO",
      "outputs": [
        {
          "internalType": "address",
          "name": "",
          "type": "address"
        }
      ],
      "stateMutability": "view",
      "type": "function",
      "constant": true
    },
    {
      "inputs": [],
      "name": "GameManager",
      "outputs": [
        {
          "internalType": "address",
          "name": "",
          "type": "address"
        }
      ],
      "stateMutability": "view",
      "type": "function",
      "constant": true
    },
    {
      "inputs": [
        {
          "internalType": "address",
          "name": "owner",
          "type": "address"
        },
        {
          "internalType": "address",
          "name": "spender",
          "type": "address"
        }
      ],
      "name": "allowance",
      "outputs": [
        {
          "internalType": "uint256",
          "name": "",
          "type": "uint256"
        }
      ],
      "stateMutability": "view",
      "type": "function",
      "constant": true
    },
    {
      "inputs": [
        {
          "internalType": "address",
          "name": "spender",
          "type": "address"
        },
        {
          "internalType": "uint256",
          "name": "amount",
          "type": "uint256"
        }
      ],
      "name": "approve",
      "outputs": [
        {
          "internalType": "bool",
          "name": "",
          "type": "bool"
        }
      ],
      "stateMutability": "nonpayable",
      "type": "function"
    },
    {
      "inputs": [
        {
          "internalType": "address",
          "name": "account",
          "type": "address"
        }
      ],
      "name": "balanceOf",
      "outputs": [
        {
          "internalType": "uint256",
          "name": "",
          "type": "uint256"
        }
      ],
      "stateMutability": "view",
      "type": "function",
      "constant": true
    },
    {
      "inputs": [],
      "name": "decimals",
      "outputs": [
        {
          "internalType": "uint8",
          "name": "",
          "type": "uint8"
        }
      ],
      "stateMutability": "view",
      "type": "function",
      "constant": true
    },
    {
      "inputs": [
        {
          "internalType": "address",
          "name": "spender",
          "type": "address"
        },
        {
          "internalType": "uint256",
          "name": "subtractedValue",
          "type": "uint256"
        }
      ],
      "name": "decreaseAllowance",
      "outputs": [
        {
          "internalType": "bool",
          "name": "",
          "type": "bool"
        }
      ],
      "stateMutability": "nonpayable",
      "type": "function"
    },
    {
      "inputs": [
        {
          "internalType": "address",
          "name": "spender",
          "type": "address"
        },
        {
          "internalType": "uint256",
          "name": "addedValue",
          "type": "uint256"
        }
      ],
      "name": "increaseAllowance",
      "outputs": [
        {
          "internalType": "bool",
          "name": "",
          "type": "bool"
        }
      ],
      "stateMutability": "nonpayable",
      "type": "function"
    },
    {
      "inputs": [],
      "name": "name",
      "outputs": [
        {
          "internalType": "string",
          "name": "",
          "type": "string"
        }
      ],
      "stateMutability": "view",
      "type": "function",
      "constant": true
    },
    {
      "inputs": [],
      "name": "paused",
      "outputs": [
        {
          "internalType": "bool",
          "name": "",
          "type": "bool"
        }
      ],
      "stateMutability": "view",
      "type": "function",
      "constant": true
    },
    {
      "inputs": [
        {
          "internalType": "address",
          "name": "_GameManager",
          "type": "address"
        }
      ],
      "name": "setGameManager",
      "outputs": [],
      "stateMutability": "nonpayable",
      "type": "function"
    },
    {
      "inputs": [],
      "name": "symbol",
      "outputs": [
        {
          "internalType": "string",
          "name": "",
          "type": "string"
        }
      ],
      "stateMutability": "view",
      "type": "function",
      "constant": true
    },
    {
      "inputs": [],
      "name": "totalSupply",
      "outputs": [
        {
          "internalType": "uint256",
          "name": "",
          "type": "uint256"
        }
      ],
      "stateMutability": "view",
      "type": "function",
      "constant": true
    },
    {
      "inputs": [
        {
          "internalType": "address",
          "name": "recipient",
          "type": "address"
        },
        {
          "internalType": "uint256",
          "name": "amount",
          "type": "uint256"
        }
      ],
      "name": "transfer",
      "outputs": [
        {
          "internalType": "bool",
          "name": "",
          "type": "bool"
        }
      ],
      "stateMutability": "nonpayable",
      "type": "function"
    },
    {
      "inputs": [
        {
          "internalType": "address",
          "name": "_DAO",
          "type": "address"
        }
      ],
      "name": "transferDAO",
      "outputs": [],
      "stateMutability": "nonpayable",
      "type": "function"
    },
    {
      "inputs": [
        {
          "internalType": "address",
          "name": "sender",
          "type": "address"
        },
        {
          "internalType": "address",
          "name": "recipient",
          "type": "address"
        },
        {
          "internalType": "uint256",
          "name": "amount",
          "type": "uint256"
        }
      ],
      "name": "transferFrom",
      "outputs": [
        {
          "internalType": "bool",
          "name": "",
          "type": "bool"
        }
      ],
      "stateMutability": "nonpayable",
      "type": "function"
    },
    {
      "inputs": [
        {
          "internalType": "address",
          "name": "_DAO",
          "type": "address"
        }
      ],
      "name": "initialize",
      "outputs": [],
      "stateMutability": "nonpayable",
      "type": "function"
    },
    {
      "inputs": [
        {
          "internalType": "address",
          "name": "_address",
          "type": "address"
        },
        {
          "internalType": "uint256",
          "name": "_amount",
          "type": "uint256"
        }
      ],
      "name": "burn",
      "outputs": [],
      "stateMutability": "nonpayable",
      "type": "function"
    },
    {
      "inputs": [
        {
          "internalType": "address",
          "name": "_address",
          "type": "address"
        },
        {
          "internalType": "uint256",
          "name": "_amount",
          "type": "uint256"
        }
      ],
      "name": "mint",
      "outputs": [],
      "stateMutability": "nonpayable",
      "type": "function"
    },
    {
      "inputs": [],
      "name": "pause",
      "outputs": [],
      "stateMutability": "nonpayable",
      "type": "function"
    },
    {
      "inputs": [],
      "name": "unpause",
      "outputs": [],
      "stateMutability": "nonpayable",
      "type": "function"
    }
  ],
  "bytecode": "0x608060405234801561001057600080fd5b506127fb806100206000396000f3fe608060405234801561001057600080fd5b50600436106101375760003560e01c80637a318866116100b8578063a457c2d71161007c578063a457c2d714610318578063a9059cbb14610348578063b7127e4114610378578063bac6585414610394578063c4d66de8146103b2578063dd62ed3e146103ce57610137565b80637a3188661461029a5780638456cb59146102b657806395d89b41146102c057806398fabd3a146102de5780639dc29fac146102fc57610137565b806339509351116100ff57806339509351146101f65780633f4ba83a1461022657806340c10f19146102305780635c975abb1461024c57806370a082311461026a57610137565b806306fdde031461013c578063095ea7b31461015a57806318160ddd1461018a57806323b872dd146101a8578063313ce567146101d8575b600080fd5b6101446103fe565b6040516101519190611f39565b60405180910390f35b610174600480360381019061016f9190611c1e565b610490565b6040516101819190611f1e565b60405180910390f35b6101926104ae565b60405161019f919061215b565b60405180910390f35b6101c260048036038101906101bd9190611bcb565b6104b8565b6040516101cf9190611f1e565b60405180910390f35b6101e06105b0565b6040516101ed9190612176565b60405180910390f35b610210600480360381019061020b9190611c1e565b6105b9565b60405161021d9190611f1e565b60405180910390f35b61022e610665565b005b61024a60048036038101906102459190611c1e565b6106ff565b005b6102546107e5565b6040516102619190611f1e565b60405180910390f35b610284600480360381019061027f9190611b5e565b6107fc565b604051610291919061215b565b60405180910390f35b6102b460048036038101906102af9190611b5e565b610845565b005b6102be610919565b005b6102c86109b3565b6040516102d59190611f39565b60405180910390f35b6102e6610a45565b6040516102f39190611f03565b60405180910390f35b61031660048036038101906103119190611c1e565b610a6b565b005b610332600480360381019061032d9190611c1e565b610b51565b60405161033f9190611f1e565b60405180910390f35b610362600480360381019061035d9190611c1e565b610c3c565b60405161036f9190611f1e565b60405180910390f35b610392600480360381019061038d9190611b5e565b610c5a565b005b61039c610d2e565b6040516103a99190611f03565b60405180910390f35b6103cc60048036038101906103c79190611b5e565b610d54565b005b6103e860048036038101906103e39190611b8b565b610ebe565b6040516103f5919061215b565b60405180910390f35b60606036805461040d906122bf565b80601f0160208091040260200160405190810160405280929190818152602001828054610439906122bf565b80156104865780601f1061045b57610100808354040283529160200191610486565b820191906000526020600020905b81548152906001019060200180831161046957829003601f168201915b5050505050905090565b60006104a461049d610f45565b8484610f4d565b6001905092915050565b6000603554905090565b60006104c5848484611118565b6000603460008673ffffffffffffffffffffffffffffffffffffffff1673ffffffffffffffffffffffffffffffffffffffff1681526020019081526020016000206000610510610f45565b73ffffffffffffffffffffffffffffffffffffffff1673ffffffffffffffffffffffffffffffffffffffff16815260200190815260200160002054905082811015610590576040517f08c379a00000000000000000000000000000000000000000000000000000000081526004016105879061205b565b60405180910390fd5b6105a48561059c610f45565b858403610f4d565b60019150509392505050565b60006012905090565b600061065b6105c6610f45565b8484603460006105d4610f45565b73ffffffffffffffffffffffffffffffffffffffff1673ffffffffffffffffffffffffffffffffffffffff16815260200190815260200160002060008873ffffffffffffffffffffffffffffffffffffffff1673ffffffffffffffffffffffffffffffffffffffff1681526020019081526020016000205461065691906121ad565b610f4d565b6001905092915050565b606560009054906101000a900473ffffffffffffffffffffffffffffffffffffffff1673ffffffffffffffffffffffffffffffffffffffff163373ffffffffffffffffffffffffffffffffffffffff16146106f5576040517f08c379a00000000000000000000000000000000000000000000000000000000081526004016106ec9061209b565b60405180910390fd5b6106fd61139c565b565b606560009054906101000a900473ffffffffffffffffffffffffffffffffffffffff1673ffffffffffffffffffffffffffffffffffffffff163373ffffffffffffffffffffffffffffffffffffffff161461078f576040517f08c379a00000000000000000000000000000000000000000000000000000000081526004016107869061209b565b60405180910390fd5b6107976107e5565b156107d7576040517f08c379a00000000000000000000000000000000000000000000000000000000081526004016107ce9061201b565b60405180910390fd5b6107e1828261143e565b5050565b6000609960009054906101000a900460ff16905090565b6000603360008373ffffffffffffffffffffffffffffffffffffffff1673ffffffffffffffffffffffffffffffffffffffff168152602001908152602001600020549050919050565b606660009054906101000a900473ffffffffffffffffffffffffffffffffffffffff1673ffffffffffffffffffffffffffffffffffffffff163373ffffffffffffffffffffffffffffffffffffffff16146108d5576040517f08c379a00000000000000000000000000000000000000000000000000000000081526004016108cc90611ffb565b60405180910390fd5b80606660006101000a81548173ffffffffffffffffffffffffffffffffffffffff021916908373ffffffffffffffffffffffffffffffffffffffff16021790555050565b606560009054906101000a900473ffffffffffffffffffffffffffffffffffffffff1673ffffffffffffffffffffffffffffffffffffffff163373ffffffffffffffffffffffffffffffffffffffff16146109a9576040517f08c379a00000000000000000000000000000000000000000000000000000000081526004016109a09061209b565b60405180910390fd5b6109b161159f565b565b6060603780546109c2906122bf565b80601f01602080910402602001604051908101604052809291908181526020018280546109ee906122bf565b8015610a3b5780601f10610a1057610100808354040283529160200191610a3b565b820191906000526020600020905b815481529060010190602001808311610a1e57829003601f168201915b5050505050905090565b606660009054906101000a900473ffffffffffffffffffffffffffffffffffffffff1681565b606560009054906101000a900473ffffffffffffffffffffffffffffffffffffffff1673ffffffffffffffffffffffffffffffffffffffff163373ffffffffffffffffffffffffffffffffffffffff1614610afb576040517f08c379a0000000000000000000000000000000000000000000000000000000008152600401610af29061209b565b60405180910390fd5b610b036107e5565b15610b43576040517f08c379a0000000000000000000000000000000000000000000000000000000008152600401610b3a9061201b565b60405180910390fd5b610b4d8282611642565b5050565b60008060346000610b60610f45565b73ffffffffffffffffffffffffffffffffffffffff1673ffffffffffffffffffffffffffffffffffffffff16815260200190815260200160002060008573ffffffffffffffffffffffffffffffffffffffff1673ffffffffffffffffffffffffffffffffffffffff16815260200190815260200160002054905082811015610c1d576040517f08c379a0000000000000000000000000000000000000000000000000000000008152600401610c149061211b565b60405180910390fd5b610c31610c28610f45565b85858403610f4d565b600191505092915050565b6000610c50610c49610f45565b8484611118565b6001905092915050565b606660009054906101000a900473ffffffffffffffffffffffffffffffffffffffff1673ffffffffffffffffffffffffffffffffffffffff163373ffffffffffffffffffffffffffffffffffffffff1614610cea576040517f08c379a0000000000000000000000000000000000000000000000000000000008152600401610ce190611ffb565b60405180910390fd5b80606560006101000a81548173ffffffffffffffffffffffffffffffffffffffff021916908373ffffffffffffffffffffffffffffffffffffffff16021790555050565b606560009054906101000a900473ffffffffffffffffffffffffffffffffffffffff1681565b600060019054906101000a900460ff16610d7c5760008054906101000a900460ff1615610d85565b610d8461181b565b5b610dc4576040517f08c379a0000000000000000000000000000000000000000000000000000000008152600401610dbb9061203b565b60405180910390fd5b60008060019054906101000a900460ff161590508015610e14576001600060016101000a81548160ff02191690831515021790555060016000806101000a81548160ff0219169083151502179055505b610e1d8261182c565b610e25611870565b610e996040518060400160405280600b81526020017f436f6c6f6e79546f6b656e0000000000000000000000000000000000000000008152506040518060400160405280600481526020017f434c4e59000000000000000000000000000000000000000000000000000000008152506118d1565b8015610eba5760008060016101000a81548160ff0219169083151502179055505b5050565b6000603460008473ffffffffffffffffffffffffffffffffffffffff1673ffffffffffffffffffffffffffffffffffffffff16815260200190815260200160002060008373ffffffffffffffffffffffffffffffffffffffff1673ffffffffffffffffffffffffffffffffffffffff16815260200190815260200160002054905092915050565b600033905090565b600073ffffffffffffffffffffffffffffffffffffffff168373ffffffffffffffffffffffffffffffffffffffff161415610fbd576040517f08c379a0000000000000000000000000000000000000000000000000000000008152600401610fb4906120db565b60405180910390fd5b600073ffffffffffffffffffffffffffffffffffffffff168273ffffffffffffffffffffffffffffffffffffffff16141561102d576040517f08c379a000000000000000000000000000000000000000000000000000000000815260040161102490611fbb565b60405180910390fd5b80603460008573ffffffffffffffffffffffffffffffffffffffff1673ffffffffffffffffffffffffffffffffffffffff16815260200190815260200160002060008473ffffffffffffffffffffffffffffffffffffffff1673ffffffffffffffffffffffffffffffffffffffff168152602001908152602001600020819055508173ffffffffffffffffffffffffffffffffffffffff168373ffffffffffffffffffffffffffffffffffffffff167f8c5be1e5ebec7d5bd14f71427d1e84f3dd0314c0f7b2291e5b200ac8c7c3b9258360405161110b919061215b565b60405180910390a3505050565b600073ffffffffffffffffffffffffffffffffffffffff168373ffffffffffffffffffffffffffffffffffffffff161415611188576040517f08c379a000000000000000000000000000000000000000000000000000000000815260040161117f906120bb565b60405180910390fd5b600073ffffffffffffffffffffffffffffffffffffffff168273ffffffffffffffffffffffffffffffffffffffff1614156111f8576040517f08c379a00000000000000000000000000000000000000000000000000000000081526004016111ef90611f5b565b60405180910390fd5b611203838383611936565b6000603360008573ffffffffffffffffffffffffffffffffffffffff1673ffffffffffffffffffffffffffffffffffffffff1681526020019081526020016000205490508181101561128a576040517f08c379a000000000000000000000000000000000000000000000000000000000815260040161128190611fdb565b60405180910390fd5b818103603360008673ffffffffffffffffffffffffffffffffffffffff1673ffffffffffffffffffffffffffffffffffffffff1681526020019081526020016000208190555081603360008573ffffffffffffffffffffffffffffffffffffffff1673ffffffffffffffffffffffffffffffffffffffff168152602001908152602001600020600082825461131f91906121ad565b925050819055508273ffffffffffffffffffffffffffffffffffffffff168473ffffffffffffffffffffffffffffffffffffffff167fddf252ad1be2c89b69c2b068fc378daa952ba7f163c4a11628f55a4df523b3ef84604051611383919061215b565b60405180910390a361139684848461193b565b50505050565b6113a46107e5565b6113e3576040517f08c379a00000000000000000000000000000000000000000000000000000000081526004016113da90611f7b565b60405180910390fd5b6000609960006101000a81548160ff0219169083151502179055507f5db9ee0a495bf2e6ff9c91a7834c1ba4fdd244a5e8aa4e537bd38aeae4b073aa611427610f45565b6040516114349190611f03565b60405180910390a1565b600073ffffffffffffffffffffffffffffffffffffffff168273ffffffffffffffffffffffffffffffffffffffff1614156114ae576040517f08c379a00000000000000000000000000000000000000000000000000000000081526004016114a59061213b565b60405180910390fd5b6114ba60008383611936565b80603560008282546114cc91906121ad565b9250508190555080603360008473ffffffffffffffffffffffffffffffffffffffff1673ffffffffffffffffffffffffffffffffffffffff168152602001908152602001600020600082825461152291906121ad565b925050819055508173ffffffffffffffffffffffffffffffffffffffff16600073ffffffffffffffffffffffffffffffffffffffff167fddf252ad1be2c89b69c2b068fc378daa952ba7f163c4a11628f55a4df523b3ef83604051611587919061215b565b60405180910390a361159b6000838361193b565b5050565b6115a76107e5565b156115e7576040517f08c379a00000000000000000000000000000000000000000000000000000000081526004016115de9061201b565b60405180910390fd5b6001609960006101000a81548160ff0219169083151502179055507f62e78cea01bee320cd4e420270b5ea74000d11b0c9f74754ebdbfc544b05a25861162b610f45565b6040516116389190611f03565b60405180910390a1565b600073ffffffffffffffffffffffffffffffffffffffff168273ffffffffffffffffffffffffffffffffffffffff1614156116b2576040517f08c379a00000000000000000000000000000000000000000000000000000000081526004016116a99061207b565b60405180910390fd5b6116be82600083611936565b6000603360008473ffffffffffffffffffffffffffffffffffffffff1673ffffffffffffffffffffffffffffffffffffffff16815260200190815260200160002054905081811015611745576040517f08c379a000000000000000000000000000000000000000000000000000000000815260040161173c90611f9b565b60405180910390fd5b818103603360008573ffffffffffffffffffffffffffffffffffffffff1673ffffffffffffffffffffffffffffffffffffffff16815260200190815260200160002081905550816035600082825461179d9190612203565b92505081905550600073ffffffffffffffffffffffffffffffffffffffff168373ffffffffffffffffffffffffffffffffffffffff167fddf252ad1be2c89b69c2b068fc378daa952ba7f163c4a11628f55a4df523b3ef84604051611802919061215b565b60405180910390a36118168360008461193b565b505050565b600061182630611940565b15905090565b80606660006101000a81548173ffffffffffffffffffffffffffffffffffffffff021916908373ffffffffffffffffffffffffffffffffffffffff16021790555050565b600060019054906101000a900460ff166118bf576040517f08c379a00000000000000000000000000000000000000000000000000000000081526004016118b6906120fb565b60405180910390fd5b6118c7611953565b6118cf6119a4565b565b600060019054906101000a900460ff16611920576040517f08c379a0000000000000000000000000000000000000000000000000000000008152600401611917906120fb565b60405180910390fd5b611928611953565b6119328282611a10565b5050565b505050565b505050565b600080823b905060008111915050919050565b600060019054906101000a900460ff166119a2576040517f08c379a0000000000000000000000000000000000000000000000000000000008152600401611999906120fb565b60405180910390fd5b565b600060019054906101000a900460ff166119f3576040517f08c379a00000000000000000000000000000000000000000000000000000000081526004016119ea906120fb565b60405180910390fd5b6000609960006101000a81548160ff021916908315150217905550565b600060019054906101000a900460ff16611a5f576040517f08c379a0000000000000000000000000000000000000000000000000000000008152600401611a56906120fb565b60405180910390fd5b8160369080519060200190611a75929190611a91565b508060379080519060200190611a8c929190611a91565b505050565b828054611a9d906122bf565b90600052602060002090601f016020900481019282611abf5760008555611b06565b82601f10611ad857805160ff1916838001178555611b06565b82800160010185558215611b06579182015b82811115611b05578251825591602001919060010190611aea565b5b509050611b139190611b17565b5090565b5b80821115611b30576000816000905550600101611b18565b5090565b600081359050611b4381612797565b92915050565b600081359050611b58816127ae565b92915050565b600060208284031215611b7457611b7361234f565b5b6000611b8284828501611b34565b91505092915050565b60008060408385031215611ba257611ba161234f565b5b6000611bb085828601611b34565b9250506020611bc185828601611b34565b9150509250929050565b600080600060608486031215611be457611be361234f565b5b6000611bf286828701611b34565b9350506020611c0386828701611b34565b9250506040611c1486828701611b49565b9150509250925092565b60008060408385031215611c3557611c3461234f565b5b6000611c4385828601611b34565b9250506020611c5485828601611b49565b9150509250929050565b611c6781612237565b82525050565b611c7681612249565b82525050565b6000611c8782612191565b611c91818561219c565b9350611ca181856020860161228c565b611caa81612354565b840191505092915050565b6000611cc260238361219c565b9150611ccd82612365565b604082019050919050565b6000611ce560148361219c565b9150611cf0826123b4565b602082019050919050565b6000611d0860228361219c565b9150611d13826123dd565b604082019050919050565b6000611d2b60228361219c565b9150611d368261242c565b604082019050919050565b6000611d4e60268361219c565b9150611d598261247b565b604082019050919050565b6000611d7160088361219c565b9150611d7c826124ca565b602082019050919050565b6000611d9460108361219c565b9150611d9f826124f3565b602082019050919050565b6000611db7602e8361219c565b9150611dc28261251c565b604082019050919050565b6000611dda60288361219c565b9150611de58261256b565b604082019050919050565b6000611dfd60218361219c565b9150611e08826125ba565b604082019050919050565b6000611e2060108361219c565b9150611e2b82612609565b602082019050919050565b6000611e4360258361219c565b9150611e4e82612632565b604082019050919050565b6000611e6660248361219c565b9150611e7182612681565b604082019050919050565b6000611e89602b8361219c565b9150611e94826126d0565b604082019050919050565b6000611eac60258361219c565b9150611eb78261271f565b604082019050919050565b6000611ecf601f8361219c565b9150611eda8261276e565b602082019050919050565b611eee81612275565b82525050565b611efd8161227f565b82525050565b6000602082019050611f186000830184611c5e565b92915050565b6000602082019050611f336000830184611c6d565b92915050565b60006020820190508181036000830152611f538184611c7c565b905092915050565b60006020820190508181036000830152611f7481611cb5565b9050919050565b60006020820190508181036000830152611f9481611cd8565b9050919050565b60006020820190508181036000830152611fb481611cfb565b9050919050565b60006020820190508181036000830152611fd481611d1e565b9050919050565b60006020820190508181036000830152611ff481611d41565b9050919050565b6000602082019050818103600083015261201481611d64565b9050919050565b6000602082019050818103600083015261203481611d87565b9050919050565b6000602082019050818103600083015261205481611daa565b9050919050565b6000602082019050818103600083015261207481611dcd565b9050919050565b6000602082019050818103600083015261209481611df0565b9050919050565b600060208201905081810360008301526120b481611e13565b9050919050565b600060208201905081810360008301526120d481611e36565b9050919050565b600060208201905081810360008301526120f481611e59565b9050919050565b6000602082019050818103600083015261211481611e7c565b9050919050565b6000602082019050818103600083015261213481611e9f565b9050919050565b6000602082019050818103600083015261215481611ec2565b9050919050565b60006020820190506121706000830184611ee5565b92915050565b600060208201905061218b6000830184611ef4565b92915050565b600081519050919050565b600082825260208201905092915050565b60006121b882612275565b91506121c383612275565b9250827fffffffffffffffffffffffffffffffffffffffffffffffffffffffffffffffff038211156121f8576121f76122f1565b5b828201905092915050565b600061220e82612275565b915061221983612275565b92508282101561222c5761222b6122f1565b5b828203905092915050565b600061224282612255565b9050919050565b60008115159050919050565b600073ffffffffffffffffffffffffffffffffffffffff82169050919050565b6000819050919050565b600060ff82169050919050565b60005b838110156122aa57808201518184015260208101905061228f565b838111156122b9576000848401525b50505050565b600060028204905060018216806122d757607f821691505b602082108114156122eb576122ea612320565b5b50919050565b7f4e487b7100000000000000000000000000000000000000000000000000000000600052601160045260246000fd5b7f4e487b7100000000000000000000000000000000000000000000000000000000600052602260045260246000fd5b600080fd5b6000601f19601f8301169050919050565b7f45524332303a207472616e7366657220746f20746865207a65726f206164647260008201527f6573730000000000000000000000000000000000000000000000000000000000602082015250565b7f5061757361626c653a206e6f7420706175736564000000000000000000000000600082015250565b7f45524332303a206275726e20616d6f756e7420657863656564732062616c616e60008201527f6365000000000000000000000000000000000000000000000000000000000000602082015250565b7f45524332303a20617070726f766520746f20746865207a65726f20616464726560008201527f7373000000000000000000000000000000000000000000000000000000000000602082015250565b7f45524332303a207472616e7366657220616d6f756e742065786365656473206260008201527f616c616e63650000000000000000000000000000000000000000000000000000602082015250565b7f4f6e6c792044414f000000000000000000000000000000000000000000000000600082015250565b7f5061757361626c653a2070617573656400000000000000000000000000000000600082015250565b7f496e697469616c697a61626c653a20636f6e747261637420697320616c72656160008201527f647920696e697469616c697a6564000000000000000000000000000000000000602082015250565b7f45524332303a207472616e7366657220616d6f756e742065786365656473206160008201527f6c6c6f77616e6365000000000000000000000000000000000000000000000000602082015250565b7f45524332303a206275726e2066726f6d20746865207a65726f2061646472657360008201527f7300000000000000000000000000000000000000000000000000000000000000602082015250565b7f4f6e6c792047616d654d616e6167657200000000000000000000000000000000600082015250565b7f45524332303a207472616e736665722066726f6d20746865207a65726f20616460008201527f6472657373000000000000000000000000000000000000000000000000000000602082015250565b7f45524332303a20617070726f76652066726f6d20746865207a65726f2061646460008201527f7265737300000000000000000000000000000000000000000000000000000000602082015250565b7f496e697469616c697a61626c653a20636f6e7472616374206973206e6f74206960008201527f6e697469616c697a696e67000000000000000000000000000000000000000000602082015250565b7f45524332303a2064656372656173656420616c6c6f77616e63652062656c6f7760008201527f207a65726f000000000000000000000000000000000000000000000000000000602082015250565b7f45524332303a206d696e7420746f20746865207a65726f206164647265737300600082015250565b6127a081612237565b81146127ab57600080fd5b50565b6127b781612275565b81146127c257600080fd5b5056fea2646970667358221220a14b1f875d02635dcd254928b0e75ffa68ed834e647e66ba5e3b7a560113b78c64736f6c63430008050033",
  "immutableReferences": {},
  "source": "/**\n * ERC20 CLNY token\n */\n\n// SPDX-License-Identifier: MIT\npragma solidity >=0.8.0 <0.9.0;\n\n\nimport '@openzeppelin/contracts-upgradeable/token/ERC20/ERC20Upgradeable.sol';\nimport './GameConnection.sol';\nimport '@openzeppelin/contracts-upgradeable/security/PausableUpgradeable.sol';\n\n\ncontract CLNY is ERC20Upgradeable, GameConnection, PausableUpgradeable {\n  function initialize(address _DAO) public initializer {\n    GameConnection.__GameConnection_init(_DAO);\n    PausableUpgradeable.__Pausable_init();\n    ERC20Upgradeable.__ERC20_init('ColonyToken', 'CLNY');\n  }\n\n  uint256[50] private ______clny_gap;\n\n  // TODO total supply logic and limitations\n\n  function burn(address _address, uint256 _amount) external onlyGameManager whenNotPaused {\n    _burn(_address,  _amount);\n  }\n\n  function mint(address _address, uint256 _amount) external onlyGameManager whenNotPaused {\n    _mint(_address,  _amount);\n  }\n\n  function pause() external onlyGameManager {\n    _pause();\n  }\n\n  function unpause() external onlyGameManager {\n    _unpause();\n  }\n}\n",
  "sourcePath": "/Users/kek/contracts/contracts/CLNY.sol",
  "compiler": {
    "name": "solc",
    "version": "0.8.5+commit.a4f2e591.Emscripten.clang"
  },
  "schemaVersion": "3.4.3",
  "updatedAt": "2021-12-29T14:29:10.553Z",
  "networkType": "ethereum",
  "devdoc": {
    "kind": "dev",
    "methods": {
      "allowance(address,address)": {
        "details": "See {IERC20-allowance}."
      },
      "approve(address,uint256)": {
        "details": "See {IERC20-approve}. Requirements: - `spender` cannot be the zero address."
      },
      "balanceOf(address)": {
        "details": "See {IERC20-balanceOf}."
      },
      "decimals()": {
        "details": "Returns the number of decimals used to get its user representation. For example, if `decimals` equals `2`, a balance of `505` tokens should be displayed to a user as `5.05` (`505 / 10 ** 2`). Tokens usually opt for a value of 18, imitating the relationship between Ether and Wei. This is the value {ERC20} uses, unless this function is overridden; NOTE: This information is only used for _display_ purposes: it in no way affects any of the arithmetic of the contract, including {IERC20-balanceOf} and {IERC20-transfer}."
      },
      "decreaseAllowance(address,uint256)": {
        "details": "Atomically decreases the allowance granted to `spender` by the caller. This is an alternative to {approve} that can be used as a mitigation for problems described in {IERC20-approve}. Emits an {Approval} event indicating the updated allowance. Requirements: - `spender` cannot be the zero address. - `spender` must have allowance for the caller of at least `subtractedValue`."
      },
      "increaseAllowance(address,uint256)": {
        "details": "Atomically increases the allowance granted to `spender` by the caller. This is an alternative to {approve} that can be used as a mitigation for problems described in {IERC20-approve}. Emits an {Approval} event indicating the updated allowance. Requirements: - `spender` cannot be the zero address."
      },
      "name()": {
        "details": "Returns the name of the token."
      },
      "paused()": {
        "details": "Returns true if the contract is paused, and false otherwise."
      },
      "symbol()": {
        "details": "Returns the symbol of the token, usually a shorter version of the name."
      },
      "totalSupply()": {
        "details": "See {IERC20-totalSupply}."
      },
      "transfer(address,uint256)": {
        "details": "See {IERC20-transfer}. Requirements: - `recipient` cannot be the zero address. - the caller must have a balance of at least `amount`."
      },
      "transferFrom(address,address,uint256)": {
        "details": "See {IERC20-transferFrom}. Emits an {Approval} event indicating the updated allowance. This is not required by the EIP. See the note at the beginning of {ERC20}. Requirements: - `sender` and `recipient` cannot be the zero address. - `sender` must have a balance of at least `amount`. - the caller must have allowance for ``sender``'s tokens of at least `amount`."
      }
    },
    "version": 1
  },
  "userdoc": {
    "kind": "user",
    "methods": {},
    "version": 1
  }
}